:020000040800F2
:1000000078D7002061020008153E0008053200087C
:10001000913900087D050008FF4400080000000039
:10002000000000000000000000000000A101000826
:100030002106000800000000FD010008713E0008D4
:100040007B0200087B0200087B0200087B0200089C
:100050007B0200087B0200087B0200087B0200088C
:100060007B0200087B0200087B0200087B0200087C
:100070007B0200087B0200087B0200087B0200086C
:100080007B0200087B0200087B0200087B0200085C
:100090007B0200087B0200087B0200087B0200084C
:1000A0007B020008353F00087B0200087B02000845
:1000B0007B0200087B0200087B0200087B0200082C
:1000C0007B0200087B0200087B0200087B0200081C
:1000D0007B0200087B0200087B0200087B0200080C
:1000E0007B0200087B0200087B0200087B020008FC
:1000F0007B0200087B0200087B0200087B020008EC
:100100007B0200087B0200087B0200087B020008DB
:100110007B0200087B020008413F00087B020008C8
:10012000810500088D050008990500087B0200087C
:100130007B020008BD0600087B0200087B02000865
:100140007B0200087B0200087B0200087B0200089B
:100150007B0200087B0200087B0200087B0200088B
:100160007B0200087B0200087B0200087B0200087B
:100170007B0200087B0200087B02000800000000F0
:100180007B0200087B020008DFF810D000F032F993
:1001900000480047E16B0008AFF3008078D70020EB
:1001A0002C4B19680868B0E8F04F80F30988BFF35A
:1001B0006F8F4FF0000080F311887047000000003F
:1001C00008480068006880F308884FF0000080F35A
:1001D000148862B661B6BFF34F8FBFF36F8F00DF35
:1001E00000BF00BF08ED00E0DFF80C00016841F43B
:1001F00070010160704700BF88ED00E0EFF30980F7
:10020000BFF36F8F134B1A681EF0100F08BF20ED5D
:10021000108A20E9F04F106009B44FF0500080F3CD
:100220001188BFF34F8FBFF36F8F0FF005F94FF0B9
:10023000000080F3118809BC19680868B0E8F04F25
:100240001EF0100F08BFB0EC108A80F30988BFF3CE
:100250006F8F704770000020EFF30580704700003B
:100260000648804706480047FEE7FEE7FEE7FEE750
:10027000FEE7FEE7FEE7FEE7FEE7FEE7253F0008B4
:10028000890100082DE9F05F0546002092469B4653
:1002900088460646814640241BE02846414647469C
:1002A000224600F097F853465A46C01A914110D39F
:1002B00011461846224600F07EF82D1A67EB010819
:1002C0004F4622460120002100F075F817EB000987
:1002D0004E41201EA4F10104DFDC484631462A4687
:1002E0004346BDE8F09F00000649074A08685043AE
:1002F00043F2390210440860400870470149086021
:1003000070470000BC0100206D4EC64110B5431A75
:10031000934209D28318881803E010F8011D03F8EE
:10032000011D521EF9D210BD40EA01039B0703D004
:1003300009E008C9121F08C0042AFAD203E011F824
:10034000013B00F8013B521EF9D210BDD2B201E0D0
:1003500000F8012B491EFBD270470022F6E710B5CA
:1003600013460A4604461946FFF7F0FF204610BD23
:1003700030B504460020034600E05B1C934203D2E4
:10038000E05CCD5C401BF8D030BD30B50B4601467B
:1003900000202022012409E021FA02F59D4205D324
:1003A00003FA02F5491B04FA02F52844151EA2F1CE
:1003B0000102F1DC30BD202A04DB203A00FA02F110
:1003C000002070479140C2F1200320FA03F3194343
:1003D00090407047202A04DB203A21FA02F00021E5
:1003E000704721FA02F3D040C2F120029140084345
:1003F00019467047064C074D06E0E06840F00103DF
:1004000094E8070098471034AC42F6D3FFF7C0FEDB
:10041000140601083406010830B58C1810F8012BB9
:1004200012F00F0301D110F8013B120906D110F8A8
:10043000012B03E010F8015B01F8015B5B1EF9D1B1
:1004400001E001F8013B521EFBD1A142E6D300209E
:1004500030BD0000464910B54A6822F440324A6077
:100460004A6843681A434A6001684A6822F4807205
:100470004A6001684A68036942EA03224A600168E7
:100480004A6822F040724A6001684A6883681A43E9
:100490004A6001688A6822F400628A6001688A689A
:1004A000C3681A438A60816A6FF07062D142016842
:1004B0008A6822F070628A6001688A680CD0836A58
:1004C0001A438A6001688A6822F040528A60016893
:1004D0008A68C36A1A4301E022F040528A600168C8
:1004E0008A6822F002028A6001688A68037E42EA12
:1004F00043028A6090F82010002901684A680FD0F2
:1005000042F400624A6001684A6822F460424A602C
:1005100001684A68174C436A04EB43331A4301E00D
:1005200022F400624A600168CA6A22F47002CA6258
:100530000168CA6A838B104C04EB03531A43CA62E6
:1005400001688A6822F400728A6001688A6890F8FB
:10055000303042EA43228A6001688A6822F480626D
:100560008A6001688A68406942EA8020886010BD1C
:100570000023014000E0FFFF0000F0FFFEE7000065
:10058000014800F06DBD00009C020020014800F011
:1005900067BD00005C030020014800F061BD000061
:1005A000FC02002001681823CAB2103AB2FBF3F231
:1005B000054B6FF30901032A9B5CC36500D9091D34
:1005C00081650846704700008803010810B50146A0
:1005D00000208B698A6A4FF0C07453B1B3F5005F95
:1005E00015D072B1012A0CD0022A0AD0032A09D1EF
:1005F00004E01AB1012A06D0022A03D1C96AC9014E
:1006000000D5012010BDC96AA142FAD010BD002A50
:10061000F7D0012AF2D0022AF3D0032AF3D010BD7A
:1006200070470000F0B500231A464FF0004500BFA8
:10063000016903EB830401EBC4010A604A608A602C
:10064000CA600A620D604A62466946F480464E609E
:100650004E6826F000464E6000EB8306032BB16423
:1006600005D22827066907EBC404344400E0046976
:10067000CC605B1C042BDBD3C26502668266C2665B
:1006800082650169006800F58050C160F0BD38B531
:100690000446006800F58050816941F48011816151
:1006A000206800F5805080690090012000F012FE63
:1006B0002068009900F58050816138BD014800F044
:1006C000A5BE00006C51002070B5A4B00125002427
:1006D00006468DF828408DF804501494A8038DF830
:1006E000564005908DF8105002948DF80E508DF8FC
:1006F0005440C0108DF811508DF81F408DF82040E7
:1007000006908DF81E508DF80F4009948DF81C400E
:1007100012948DF84C408DF855406946304600F0F3
:1007200063F98DF881508DF880408DF8824028045F
:100730001B908DF8685080011F908DF870508DF8D7
:10074000885040128DF871501E941D908DF8725093
:10075000239421948DF8895019A93046199400F0FA
:10076000E3F824B070BD0020704701F0EFBA00201C
:100770007047000013460A4610B50146034801F0D1
:1007800033F8002801D04FF0FF3010BD6C5100202D
:1007900013460A4610B50146034801F0A9F900289E
:1007A00001D04FF0FF3010BD6C5100202DE9F04317
:1007B000836A1830914650F823208D681C461768CC
:1007C0000026002F6BDB00EB83077F69BFBBD5F8EA
:1007D00000C00127C2F808C0D2F804C0D5F80480D0
:1007E0006FF30C0C4CEA080CC2F804C091F800C07E
:1007F0005FEACC7C09D0D2F800C0D1F814802CF488
:10080000400C4CEA080CC2F800C091F800C05FEA46
:100810008C6C09D5D2F800C0D1F810802CF0406C57
:100820004CEA080CC2F800C00978490703D51168E2
:1008300041F080011160116841F0805148E02EE0E4
:10084000116821F0005111601168B9F1000F02D058
:1008500041F0804101E021F0804111605B1C042BDC
:1008600000D31B1F50F823201168002903DB00EB85
:1008700083014969B1B150F8242000210DE000BF87
:10088000BFF35F8F136823F000431360641C042CD4
:1008900000D3241F491C50F82420B942F0D3022071
:1008A000BDE8F083116821F080511160AD682968BE
:1008B00091605168D5F804C06FF30C0141EA0C0156
:1008C0005160761C7F1CBFF35F8F116841F00041BF
:1008D0001160A9680029B3D11168B9F1000F02D0E5
:1008E00041F0804101E021F080411160116841F048
:1008F0000051116050F82410BFF35F8F0A6842F076
:1009000000420A6000EB8302416A5161EFF31081FB
:10091000012282F310880361826A761C324481F3DB
:10092000108882620020BBE770B50C46016805465E
:1009300001F5805188692B4A1040227BEAB30022DE
:10094000637B920642EA4362637FBBB35FF00003BE
:1009500042EA0352A37B42EA435263691A43237F6C
:1009600042EAC312A37F42EA8312236A1A4394F82D
:10097000243042EA830202438A61286800F58050ED
:100980008669012000F0A6FC286800F58050866189
:10099000A169A06822790843216941EA42610843BC
:1009A00094F8251040EAC110A16A40EA810021684C
:1009B000084340F40001286801E00FE010E000F572
:1009C00080500160286800F580500468012000F024
:1009D00081FC286800F58050046070BD0122AFE7FB
:1009E0000123B5E7233FDEF870B5026805460C46E3
:1009F00010683C49A37B0840A16841EA4361237C1D
:100A0000002B64D00023667CDB05002E61D000261D
:100A100043EA86531943E37F41EA0341636919437B
:100A2000A37FEBB35FF0000341EA4331237F41EA48
:100A30000331A3691943237941EA832194F82030D3
:100A40007BB3002341EA4321E37B41EAC311636A9C
:100A5000194394F8283041EA0311014311602868D2
:100A60000668012000F036FC286806602A68906954
:100A70004FF641710840A36C216D41EA034194F89F
:100A80004C3063B3002394F85560DB01012E00D095
:100A9000002643EAC603194394F85630012B01E0BF
:100AA00019E01AE000D0002341EA830194F85430A1
:100AB000012B00D0002341EA4301014391612868E2
:100AC0008469012000F006FC2868846170BD012360
:100AD00099E701269CE70123A6E70123B2E701235A
:100AE000D1E700000F8120FD2DE9F84304460020E6
:100AF0000090A56E4FF0010804EB8500E76E866C50
:100B00001EE0306A30B9684600F0CEFE009880B32F
:100B10003062B060B8F1000F12D0A06D002860699B
:100B20002BD040F480407060306840F0004030606E
:100B30006D1C042D00D32D1F04EB85007F1E866CD9
:100B400017B1B8F1000FDCD1E06EB8420FD0E81C4D
:100B500000F00300BFF35F8F216900EB800001EB21
:100B6000C001206800F580508160C4E91A57BDE8D3
:100B7000F883FFE74FF00008E2E701490843D2E7B6
:100B80000040008072B6FEE778B50024009490F82B
:100B90003C20012A19D0012280F83C200A68072352
:100BA0000568092A13D9EE680A3A02EB420293401B
:100BB0009E43EE600B788A680A3B03EB43039A403E
:100BC0000368DD682A43DA6010E0022078BD2E69F0
:100BD00002EB420293409E432E610B788A6803EB3E
:100BE00043039A4003681D692A431A614A681F2318
:100BF000072A13D205686E6B521E02EB82029340E5
:100C00009E436E630B790A885B1E92B203EB8303EB
:100C10009A4003685D6B2A435A6327E005680D2AF2
:100C200012D22E6BD21F02EB820293409E432E63A0
:100C30000B790A88DB1F92B203EB83039A400368A7
:100C40001D6B2A431A6311E0EE6A0D3A02EB820231
:100C500093409E43EE620B790A880D3B92B203EB00
:100C600083039A400368DD6A2A43DA62164B0568FB
:100C7000144A9D4206D10D68122D03D1556845F4E2
:100C80008005556005689D4218D10B68102B01D076
:100C9000112B13D1536843F40003536009681029E2
:100CA0000CD10A490A4A0968B1FBF2F101EB810152
:100CB000490000E0491E00910029FBD180F83C402A
:100CC000002078BD00230140002001406C0000207E
:100CD00040420F0070B504004FF0000503D0206CB7
:100CE000002610B107E0012070BD204600F01CF87E
:100CF000666484F83C60206CC00610D4206C20F43C
:100D0000885040F0020020642046FFF7A3FB666491
:100D1000206C20F0020040F00100206400E001257A
:100D200084F83C60284670BD2DE9F04F87B0054639
:100D300014216846FFF711FB5548DFF850C11438FD
:100D40002B68002452490326524A07154FF40069C4
:100D50004FF4005A4FF4807B634538D10B6843F45D
:100D600080730B60096801F480710591016841F09E
:100D700001010160016801F001010591016841F084
:100D8000020101600068694600F002000590412000
:100D9000CDE900060294104600F0D6FE0096CDE99B
:100DA000016469463C4800F0CFFE3D4E3B4806F1E9
:100DB0000C03C6E90004B46083E8900E3462304648
:100DC00074625CE0AE63B56307B0BDE8F08FDFF836
:100DD000D4804FF0080C434527D10B6843F40073CF
:100DE0000B60096801F400710591016841F001018F
:100DF00001600068694600F001000590CDE900C679
:100E00000294104600F0A0FE2448254E3030603693
:100E100006F10C0330604FF00070C6E9010483E86E
:100E2000900E34623046746229E01F4A9342CBD15F
:100E30000A6842F480620A60096801F480610591E1
:100E4000016841F0200101600068694600F020005F
:100E50000590CDE900C60294144800F075FE104ECE
:100E60000E48C036183030604FF08060C6E901048B
:100E700006F10C02304682E8900E3462746200F093
:100E8000BFF900289ED0FFF77DFE9BE700200140C0
:100E90004438024000000240000402401064024056
:100EA0009C02002000210140002201400014024069
:100EB00070B5040003D094F8200010B104E00120C4
:100EC00070BD204600F082F82068016841F0010101
:100ED000016000F03BFF0546052604E000F036FF08
:100EE000401B0A2811D820684068C007F6D0206847
:100EF000016821F00201016000F028FF05460BE0C7
:100F000000F024FF401B0A2806D9606A40F4003034
:100F1000606284F82060D2E7206840688007EFD4E0
:100F2000207E0128206801683DD021F08001016009
:100F3000607E01282068016838D021F040010160FE
:100F4000A07E01282068016833D021F020010160D3
:100F5000E07E0128206801682ED041F01001016078
:100F6000207F01282068016829D021F00801016054
:100F7000607F01282068016824D021F0040101600D
:100F8000D4E902010843D4E904121143084361681B
:100F9000491E08432168C86100206062012084F86E
:100FA0002000002070BD41F08001C0E741F0400109
:100FB000C5E741F02001CAE721F01001CFE741F079
:100FC0000801D4E741F00401D9E700002DE9F04120
:100FD00086B0044614216846FFF7BFF91C49206813
:100FE000884231D11B484FF00008016841F0007180
:100FF0000160006800F00070059016481038016824
:1010000041F480710160016801F48071059101680B
:1010100041F0020101600068092700F00200CDE9FB
:10102000047003264FF40074022503968DE8300106
:101030006946094800F088FD8DE830016946074897
:10104000CDE9036700F080FD06B0BDE8F081000047
:10105000006400404038024000200240000402408A
:101060002DE9F84304464FF00009CDF8009063489D
:101070004FF41651A56D0068B0FBF1F72E6894F897
:101080005C10082000FA01F131420FD021680A6893
:1010900052070BD50A6822F004020A6094F85C102B
:1010A0008840A860606D40F00100606594F85C10B5
:1010B0004FF0010808FA01F0304208D02168496970
:1010C000090604D5A860606D40F00200606594F8E0
:1010D0005C1004208840304208D0216809688907E4
:1010E00004D5A860606D40F00400606594F85C1061
:1010F00010208840304218D021680968090714D5AB
:10110000A86020680168490304D50068000308D579
:10111000A16C07E00168C90503D4016821F008014A
:101120000160216C09B12046884794F85C102020AA
:101130008840304231D021680968C9062DD5A860A1
:1011400094F8350005282068016806D0490347D582
:10115000006800031DD4616C1CE021F016010160E1
:101160002068416921F080014161206C08B9A06CC0
:1011700020B12068016821F00801016094F85C103A
:101180003F208840A86084F8358084F83490216D31
:101190001FE0E16B09B120468847606D00282BD025
:1011A000606DC00714D0052084F835002068016800
:1011B00021F0010101600098401C0090B84203D862
:1011C00020680068C007F6D184F8358084F8349030
:1011D000E16C002910D001B02046BDE8F04308477B
:1011E0000168C905D5D4016821F01001016084F8B7
:1011F000358084F83490CCE7BDE8F8836C0000209B
:101200002DE9F041044600F0A1FD06465CB1022044
:1012100084F83500002584F834502068016821F0F6
:10122000010101600DE00120BDE8F08100F08EFDBC
:10123000801B052805D920206065032084F835002F
:10124000F2E720680068C007F0D1226811682048E2
:101250000140D4E901031843D4E90336334318436A
:1012600063691843A3691843E3691843236A184361
:101270000843616A042903D1D4E90B1319430843D5
:10128000106020684069666A20F0070130460E430E
:10129000012704280CD1A06A0643E06A40B1204629
:1012A000FFF794F920B14020606584F83570BAE703
:1012B000206846612046FFF775F994F85C203F21CD
:1012C00091408160656584F835700020ACE70000CE
:1012D0003F8010F070B5044600F038FD0546601CF4
:1012E00002D004480078044400F030FD401BA042C6
:1012F000FAD370BD6000002010B500F00BF80006B6
:1013000005D503488068BDE8104006F0ADBE10BDAD
:1013100034000020D0F88C007047D0F88800704767
:10132000002970D002681268C2F3001281F82820E8
:101330000268126802F060024A620268126842F3B0
:101340004022521C81F8202002681268C2F3004239
:10135000CA770268126842F34032521C8A770268E8
:101360001268C2F300320A770268126802F400625F
:101370008A610268126802F480424A610268126857
:1013800042F38052521C4A740268126842F3C052FF
:10139000521C0A7402681268C2F3C012CA7302684F
:1013A000126802F460228A6002681268C2F3802226
:1013B0000A7102681268C2F340628A730268926915
:1013C000C2F3400281F854200268926942F3C012CD
:1013D000521C81F84C200268926902F030020A65C2
:1013E00002689269120C8A6402689269C2F38002F0
:1013F00081F8562000688069C0F3C00081F855006C
:1014000000207047FFE70120FBE700002DE9F047CF
:101410000446006850F8387FD0F8DC5FD0F8E46FFD
:10142000DFF8B490D9F8008000F6C870690606D5D8
:10143000710604D529494161204600F059FA05EAB0
:101440000600C00708D020684FF0011100F5805059
:101450004161204600F042FB280423D5300421D509
:10146000D4F8880040F00800C4F88800A804206878
:1014700000F580500CD54169194A1140C4F88C1010
:10148000C16921F4C031C161E020C4F8840006E0E4
:10149000426948F280610A40C4F88C2041612046CC
:1014A000FFF72AFF38070BD52068C06A00F06000FC
:1014B000C4F89400204600F023F90020C4F89400FA
:1014C0005FEA083006D54FF40021C9F80010204625
:1014D00000F00CFBBDE8F087143C01404000010027
:1014E00000207E00F8B5040003D0D4F8840010B1C9
:1014F00007E00120F8BD2020C4F88400204600F059
:1015000093F845480025016841F480410160006876
:1015100000F4804000904148016821F4000101601E
:101520000168A268114301600068206800F58050DE
:10153000016841F00101016000F008FC06464FF42B
:10154000FA770BE000F002FC801BB84206D90420B9
:10155000C4F88800E020C4F88400CAE7206800F5D9
:1015600080500068C007EDD12046FFF7ADF800219C
:10157000E06801EB810200EBC20005604560856018
:10158000C56004EB81039861036843F48013036032
:10159000032905D22826E36806EBC2021A4400E0BC
:1015A000E268C260026842F440020260491C0429F9
:1015B000DED3A5622068E16800F580500161204615
:1015C000FFF730F86068164A818811640178C378A3
:1015D00041EA0361837840781B0443EA0020014319
:1015E00051642068C16B41F40271C1632068D0F876
:1015F0000C110C4A1143C0F80C112068D0F81011DE
:1016000041F40311C0F81011C4F888501020C4F838
:1016100084000020F8BD0000443802400438014036
:10162000008002406000020010B586B0044614211C
:101630006846FEF792FE2D492068884253D12C4817
:101640000021026842F001020260026802F0010219
:101650000592026842F004020260026802F004028D
:101660000592026842F040020260026802F0400205
:101670000592026842F000720260026802F0007295
:101680000592026842F080620260026802F08062A5
:101690000592026842F000620260006800F000609B
:1016A0000590862000900220CDE9010103200390DF
:1016B0000B20049069460F4800F046FA3220009053
:1016C00069460D4800F040FA4FF4D040009069465A
:1016D0000A4800F039FA002205213D2000F0CCFC38
:1016E0003D2000F0BBFC06B010BD000000800240B1
:1016F000303802400000024000080240001802405A
:1017000070472DE9F84F4FF000075FEA01090446E2
:10171000B84604D0D4F8840040285AD105E054F8E3
:10172000880F40F00100206053E0E66D4FF0000BA1
:1017300004EB8600856CE06EC0F1040A36E0286890
:10174000C00503D5E869A067A869606728688005B7
:1017500001D4E06F10B32868800503D5C4F860B0E9
:10176000C4F864B02868C0F30D4000902868C00534
:1017700003D528684FF001082067AA682A6204F19F
:101780008001081F009B00F0B9F8206E401C206605
:10179000616E009808446066C5F820B0761C042E7F
:1017A00000D3361F04EB86007F1C856C2868002858
:1017B00004DB574502D2B8F1000FC0D0E06EC0196B
:1017C000E06602D02046FFF78FF9E665B8F1010F19
:1017D00002D00120BDE8F88FE16FC9F800100020A9
:1017E000C4F87CB0F6E700002DE9F04198460368A4
:1017F0000546186900F01C044FF6FF7000EAC1208E
:101800004FF4F861204301EA8211014321F0020004
:1018100040F001041C6100F099FA06464FF480374D
:101820000AE000BF00F092FA801BB84202D3012008
:10183000BDE8F08128680469E007F3D128684069B1
:1018400081B20020C8F80010F2E700002DE9F0474F
:1018500000F118058046D5E90A64012719E000BFA8
:1018600005EB8409761ED9F81400C0B1D8F80C1025
:1018700004EB840251F8321000290DDB00F034F93A
:101880000021641CC9F81410042C00D3241FC5E9DE
:101890000A640EB1002FE3D10020BDE8F087641C7C
:1018A000042CF6D3241FF4E71CB504460D4805F0BC
:1018B0004BFE03000FD003F1200020600A4818619E
:1018C0004FF4C0612068CDE90001002141220846A3
:1018D00006F024FE1CBD0549012008700020206090
:1018E0001CBD00007C030108918B0008340000201F
:1018F0000148806806F0B8BB3400002010B5002411
:1019000042F8204D1481538104681CB10C68226098
:101910000A6004E00260FBE7018919440181006864
:101920000028F9D110BD10B519B1D0F88420102AC3
:1019300001D0012010BDFFF757F8002010BD0000B6
:1019400070B50446D0F88400102801D0012070BD85
:101950002020C4F884000120A0650420E066204611
:10196000FFF7C2F8206805680120FFF7B3FC206884
:101970000560206800F58050816941F40051816163
:10198000206800F58050816941F0020181612046A4
:10199000FEF77DFE2068016841F0080101602068C3
:1019A00005680120FFF796FC206805602068016843
:1019B00041F004010160206800F58050C169044ACB
:1019C0001143C1614020C4F88400002070BD0000B4
:1019D000C1A0010070B50446D0F88400402801D0B1
:1019E000012070BD2020C4F88400206800F58050DC
:1019F000C1691F4A1140C161206800F580508169AA
:101A000021F400518161206800F58050816921F046
:101A1000020181612068016821F0040101602068F1
:101A200005680120FFF756FC206805602046FEF798
:101A30002EFE2068016821F0080101602068056819
:101A40000120FFF747FC20680560002004EB8001BF
:101A5000896C4A6842F000424A60401C0428F5D371
:101A60000020A0651020C4F88400002070BD000094
:101A70003E5FFEFF10B5044621B1D4F88400402833
:101A800005D010E054F8880F40F001000AE0486BE0
:101A9000E06301222046FEF789FE30B154F8880F3A
:101AA00040F002002060012010BDBFF34F8FA06AFC
:101AB000401CA062042801D3001FA062206800F52A
:101AC00080504169490706D5042141612068002101
:101AD00000F580504160002010BD00000148C06842
:101AE00006F0C2BA3400002006F0A0BF7047000024
:101AF0002DE9F04106680546306900F01C044FF6F8
:101B0000FF7000EAC1204FF4F861204301EA82111E
:101B1000014398B241F0030470612868046100F049
:101B200015F906464FF480370AE000BF00F00EF9C1
:101B3000801BB84202D30120BDE8F0812868046907
:101B4000E007F3D1F8E700002DE9F84FDFF8BCA17A
:101B50000022012503264FF00F090AF1040BAAF118
:101B6000040E00BF0B6805FA02F42340A34270D1B3
:101B70000F7907F00307012F01D0022F16D18768D4
:101B80004FEA420806FA08FC27EA0C07D1F80CC015
:101B90000CFA08FC4CEA070CC0F808C04768A743D9
:101BA0000C79C4F3001494403C4344600C79E44342
:101BB000A4070AD0C4684FEA420C06FA0CF7BC43EB
:101BC0008F6807FA0CF72743C7600C7904F0030409
:101BD000022C12D1D40800EB840CDCF8204057070B
:101BE000FF0E09FA07F824EA0804D1F8108008FA71
:101BF00007F848EA0408CCF8208004684FEA420C51
:101C000006FA0CF7BC430F7907F0030707FA0CF745
:101C1000274307604C6814F4403F70D03C4C276861
:101C200047F480472760246822F0030704F48044C7
:101C30000094384C07EB040CDCF8084897074FEA8F
:101C4000177809FA08F7BC43334FB84202D100278E
:101C500024E054E0314FB84201D101271EE0304F5B
:101C6000B84201D1022719E02E4FB84201D1032713
:101C700014E02D4FB84201D104270FE02B4FB8429A
:101C800001D105270AE02A4FB84201D1062705E015
:101C9000284FB84201D1072700E0082707FA08F7C4
:101CA0002743CCF80878DAF800405746D1F804C04A
:101CB0009C435FEACC2C00D51C433C60DBF8004021
:101CC0005F46D1F804C09C435FEA8C2C00D51C43CE
:101CD0003C60DEF800407746D1F804C09C435FEAE0
:101CE0008C3C00D51C433C60084F083F3C68D1F851
:101CF00004C09C435FEACC3C00D51C433C60521CB2
:101D0000102AFFF42FAFBDE8F88F0000083C014017
:101D1000443802400030014000000240000402400C
:101D200000080240000C0240001002400014024073
:101D300000180240001C02400069084000D0012049
:101D400070470AB1816170470904FBE70148806868
:101D5000704700006000002070B5040025D094F8A2
:101D60003D00002520B984F83C50204600F0B8F82A
:101D7000242084F83D002068016821F00101016001
:101D80002068016841F4004101602068016821F485
:101D90000041016000F05CFA4D4A6168914201D84F
:101DA0004C4900E04C49884201D2012070BD4B49AA
:101DB0002368B0FBF1F15E6826F03F060E435E60DB
:101DC0006368934206D94FF4967359434FF47A737C
:101DD000B1FBF3F12368491C1E6A26F03F0631432C
:101DE00019626168914210D84900401EB0FBF1F2BF
:101DF000521CC2F30B02042A01D2042022E0B0FBE1
:101E0000F1F0401CC0F30B001CE0A268F2B301EB40
:101E1000C10303EB0116431EB3FBF6F35B1C43F453
:101E200080431B0549D092B301EBC10202EB0111C3
:101E3000401EB0FBF1F0401CC0F30B0040F48040AA
:101E400040F400402168CA694CF6FF739A4310437E
:101E5000C861D4E9071001432068026822F0C0027B
:101E600011430160D4E9030101432068826848F20C
:101E7000FF339A4311438160D4E905010843216887
:101E8000CA6822F0FF021043C86001E00EE016E0CD
:101E90002068016841F0010101602564202084F878
:101EA0003D00256384F83E50002070BD01EB4106E3
:101EB000431EB3FBF6F35B1CB3E70120C2E701EB63
:101EC0004101401EB0FBF1F0401CC0F30B00B7E72E
:101ED000A086010080841E0000093D0040420F00E2
:101EE00010B586B0044614216846FEF736FA134949
:101EF0002068884220D112480021026842F0800206
:101F00000260006800F080000590302000901220F0
:101F1000CDE901010320039004200490694609489B
:101F2000FFF712FE06481030016841F4800101609D
:101F3000006800F48000059006B010BD0058004015
:101F400030380240001C0240024881680278114487
:101F500081607047600000200B4810B5016841F4B3
:101F600000710160016841F480610160016841F421
:101F700080710160032000F09FF80F2000F006F848
:101F800000F050F8002010BD003C024030B505467E
:101F90001F4887B00024016841F01001016000680B
:101FA00006A900F01000009001A800F031F9049893
:101FB000A8B100F04DF940001649174AB0FBF1F105
:101FC0001648491E026040F2E732C0E90324C0E926
:101FD0000114846100F0E4FC040003D015E000F07B
:101FE00037F9E9E70D4800F045FD04000DD1362032
:101FF00000F034F8102D07D200222946362000F0D8
:102000003BF80748056000E0012407B0204630BDDA
:102010004038024040420F000010004040060020BF
:10202000640000200C4882B0016841F480410160E6
:10203000006800F4804000900748001F016841F0EC
:10204000805101600068002200F0805000900F2154
:10205000901E02B000F010B844380240002809DB9E
:1020600000F01F02012191404009800000F1E020B2
:10207000C0F8001170470000F0B40E4B1B680C460E
:10208000C3F30223C3F10705042D00D90425191D4C
:10209000072901D2002300E0DB1E012606FA05F124
:1020A000491E214099409E40761E16403143F0BCA7
:1020B00002F036BA0CED00E0064900F007020868AD
:1020C0004FF6FF03184040EA0220034A104308601D
:1020D000704700000CED00E00000FA052DE9F04724
:1020E0000E46050065D0DFF81481D8F80000F7B27D
:1020F00000F00700B04207D288F80070D8F800005E
:1021000000F00700B04254D128683D4C810712D539
:10211000400703D5206840F4E0502060287800078D
:1021200003D5206840F4604020602068A96820F052
:10213000F000084320602878C0072DD03049686837
:102140000839012812D0022813D0032811D00968B9
:10215000890700292DDA216821F00301014321605C
:10216000FFF7F4FD814641F2883A0EE009688903E1
:10217000EFE709688901ECE7FFF7E8FDA0EB09014B
:10218000514502D90320BDE8F0872068696800F056
:102190000C00B0EB810FEFD1D8F80010404601F0F1
:1021A0000701B14207D90770006800F00700B0428C
:1021B00001D00120E7E72878400705D52068E968C5
:1021C00020F4E050084320602878000706D52068F6
:1021D000296920F4604040EAC100206000F058F80E
:1021E0002168084AC1F30311515CC84006490860E0
:1021F00006480068FFF7CAFE0020C4E7003C024022
:1022000008380240900301086C00002064000020A0
:102210000F2202600C4A136803F003034360136843
:1022200003F0F0038360136803F4E053C3601268A3
:102230004FF4E05303EAD20202610448006800F060
:10224000070008607047000008380240003C024068
:102250000448054900680968044AC1F38221515CB9
:10226000C84070476C00002008380240A0030108F5
:102270000448054900680968044AC1F34231515CC9
:10228000C84070476C00002008380240A0030108D5
:10229000154810B5006810F00C02144813D0411016
:1022A000042A0FD0082A0ED10F4C241F226823685D
:1022B00002F03F025B0207D52068C0F38810A0FB44
:1022C000010106E0084610BD2168C1F38811A1FB99
:1022D00000010023FDF7D6FF2168C1F30141491C2D
:1022E0004900B0FBF1F010BD083802400024F400B2
:1022F0002DE9F84F04006ED02078DFF84C93C0072A
:10230000A9F104054AD009F104000168C1F3810173
:10231000012908D00068C0F3810002280AD1D9F849
:102320000000400206D52868800337D56068002881
:10233000E1D033E06068B0F5803F10D0B0F5A02F59
:10234000286810D020F480302860286820F480208D
:1023500028606068A8B1FFF7F9FC06460DE0286820
:1023600040F48030F4E740F480202860F7E700BFB5
:10237000FFF7ECFC801B642873D828688003F7D52E
:102380000CE0FFF7E3FC064605E000BFFFF7DEFCCC
:10239000801B6428F0D828688003F7D42078DFF801
:1023A000AC8280074FF0000A3ED5A748001D0168A7
:1023B00011F00C0F08D00068C0F3810002280BD187
:1023C000D9F80000400207D42868800716D5E068D5
:1023D000012800D112E033E1E068B8B10120C8F86B
:1023E0000000FFF7B3FC064605E000BFFFF7AEFCB8
:1023F000801B0228C0D828688007F7D52868216983
:1024000020F0F80040EAC10028600DE0C8F800A004
:10241000FFF79CFC064604E0FFF798FC801B0228AF
:102420001FD828688007F7D42078000722D5864F68
:1024300087486169703771B101210160FFF786FC3F
:10244000064604E0FFF782FC801B022809D83868A2
:102450008007F7D50EE0C0F800A0FFF777FC06462E
:1024600005E082E0FFF772FC801B02287DD8386807
:102470008007F7D42078400768D5DFF8CCB1002773
:102480000BF13C0BDBF80000C0000BD4DBF80010B4
:1024900041F08051CBF80010DBF80000012700F07C
:1024A000805000906B4E3068C00510D4306840F406
:1024B00080703060FFF74AFC009005E0FFF746FCB3
:1024C0000099401A022850D83068C005F6D55E4EF3
:1024D000A0686C3601280FD00528306810D020F095
:1024E00001003060306820F004003060A068B8B1AE
:1024F000FFF72CFC00900FE0306840F00100F4E79B
:1025000040F004003060F7E7FFF720FC0099411A23
:1025100041F28830814266D830688007F4D50EE0F9
:10252000FFF714FC009007E0FFF710FC0099411A38
:1025300041F28830814256D830688007F4D42FB1F8
:10254000DBF8001021F08051CBF80010A069C8B36F
:102550003D49091D0968C1F3810102294AD00228B9
:10256000504607D0C8F8600000E03CE0FFF7EEFB03
:1025700004463BE04746C8F86000FFF7E7FB064625
:1025800005E000BFFFF7E2FB801B02282BD828687C
:102590008001F7D4D4E907010843A16A2E4A49080B
:1025A00002EB0141626A41EA8211084394F82C105F
:1025B00040EA0161C9F8001001203866FFF7C6FB48
:1025C000044606E03EE000BFFFF7C0FB001B022808
:1025D00009D828688001F7D534E000BFFFF7B6FBC3
:1025E000001B022802D90320BDE8F88F286880016B
:1025F000F4D427E00128F7D0D9F80000E26900F40C
:10260000800191421CD1226A00F03F01914217D112
:1026100047F6C071626A0140B1EB821F10D1A26A15
:102620004FF0FF3300F4403103EB5202B1EB024FA5
:1026300006D194F82C1000F07060B0EB016F01D05F
:102640000120D1E70020CFE70438024000004742D4
:10265000800E4742007000400000FFFF70B504008C
:1026600009D0606A002540B125616561A56294F8D2
:10267000510040B10CE0012070BD6068B0F5827F70
:10268000F4D0E561F2E784F85050204600F044F8B9
:10269000022084F851002068016821F040010160A7
:1026A000A088218900F4827001F404410843A189C3
:1026B00001F400610843217C01F002010843217DFF
:1026C00001F001010843218B01F400710843217FCF
:1026D00001F03801084394F8201001F0800108430C
:1026E000218D01F40051084321680860A06904218C
:1026F00001EA104094F8241001F010010843216809
:1027000048602068C16921F40061C16165650120EC
:1027100084F85100002070BD10B586B00446142125
:102720006846FDF71AFE13492068884220D11248F6
:102730000021026842F480420260006800F4804098
:1027400005900D481038026842F4807202600068FB
:1027500000F4807005900E2000900220CDE9010168
:10276000032003900520049069460448FFF7ECF924
:1027700006B010BD00380040403802400020024042
:102780007047704710B590F83C20012A22D00122F2
:1027900080F83C20CA688C6822F4407222434C685E
:1027A00022F4806222430C6822F4006222430C6906
:1027B00022F4805222434C6922F400522243C96918
:1027C000002322F480420A4301684A6480F83C30C6
:1027D000002010BD022010BD70B588B00E46040068
:1027E00004D094F83D00002518B107E0012008B09E
:1027F00070BD84F83C50204600F056F8022084F862
:102800003D00211D206801F0A1FBB368316803225F
:10281000206801F0F7FC2068816921F00C018161DA
:10282000206881697268114381612068416841F0C4
:10283000800141602068816821F07001816020681A
:10284000816841F0400181602068816821F00701C2
:1028500081602068816841F00401816070200595E5
:1028600004950695039502950090F06801906946DD
:10287000206801F023FC2068416821F0700141606C
:102880002068416841F050014160012084F8460011
:1028900084F83E0084F83F0084F8420084F8430046
:1028A00084F83D000020A2E710B586B0044614214C
:1028B0006846FDF752FD1349206888421FD112482F
:1028C0000021026842F008020260006800F008007F
:1028D00005900D481038026842F0800202600068DE
:1028E00000F0800005904FF4E05000900220CDE908
:1028F0000101CDE9031069460448FFF725F906B048
:1029000010BD0000000C004040380240001C024096
:1029100070B590F83C20012A32D0012480F83C4068
:10292000022280F83D2003685A689D6822F07006F4
:102930000A6832435A60134B02689A4214D0B2F1CB
:10294000804F11D0104B9A420ED0104B9A420BD0B0
:102950000F4B9A4208D00F4B9A4205D00E4B9A4229
:1029600002D00E4B9A4204D1496825F080031943E6
:10297000916080F83D40002180F83C10084670BD11
:10298000022070BD0000014000040040000800402B
:10299000000C0040000401400040014000180040CD
:1029A00010B5040003D094F83D0010B107E00120F9
:1029B00010BD002084F83C00204600F01FF80220E3
:1029C00084F83D00211D206801F0C0FA012084F840
:1029D000460084F83E0084F83F0084F8400084F804
:1029E000410084F8420084F8430084F8440084F8ED
:1029F000450084F83D00002010BD000010B586B0F1
:102A0000044614216846FDF7A8FC1749206888424F
:102A100028D116480021026842F0010202600068D5
:102A200000F00100059011481438026842F00202DB
:102A30000260006800F0020005904FF480500090A2
:102A40000220CDE901010120CDE9031069460848C3
:102A5000FFF77AF8002205211920FFF70DFB192056
:102A6000FFF7FCFA06B010BD0000014044380240F8
:102A70000004024090F83D10012901D00120704768
:102A8000022180F83D100168CA6842F00102CA6064
:102A900000681149884214D0B0F1804F11D00F491D
:102AA00088420ED00E4988420BD00E49884208D089
:102AB0000D49884205D00D49884202D00C49884210
:102AC00004D1816801F00701062903D0016841F0B3
:102AD0000101016000207047000001400004004037
:102AE00000080040000C004000040140004001408C
:102AF0000018004070B5044690F83C0000250128FD
:102B000017D0012684F83C60022084F83D0020683C
:102B1000826822F0770222F47F428260086850289F
:102B200038D00DDC20284FD005DC90B3102811D10F
:102B30004AE0022070BD302846D040280AD13BE050
:102B400060282FD070280DD0B0F5805F03D0B0F58D
:102B5000005F12D0012584F83D60002084F83C001D
:102B6000284670BDCB68D1E90121206801F063FAE5
:102B70002068816841F0770109E0CB68D1E9012143
:102B8000206801F058FA2068816841F48041816032
:102B9000E1E719E0CA684968206801F021FB50218B
:102BA000206806E0CA684968206801F06BFB602174
:102BB000206801F04AFACEE7CA684968206801F047
:102BC0000FFB40212068F4E7226801461046F0E739
:102BD0002DE9F0410D46040003D094F83D0018B1F2
:102BE00008E00120BDE8F081002084F83C00204688
:102BF00000F040F8022084F83D002068816844F22B
:102C0000070291438160211D206801F09FF922682D
:102C100090689169166A2B68AF69034340F20330EC
:102C2000814341EA0721A868EF6908434FF6FC4158
:102C30008843E96840EA0720014328692F6A0001B8
:102C400040EA0730084369686D6926F0AA0646EA3B
:102C50000515294393602268906154F8460B016280
:102C6000012004F81F09E0752076E0762077A07532
:102C70000020B7E710B586B0044614216846FDF77A
:102C80006CFB1249206888421ED11148002102685D
:102C900042F002020260006800F0020005900C4859
:102CA0001038026842F004020260006800F004007C
:102CB0000590C02000900220CDE90101CDE903106C
:102CC00069460448FEF740FF06B010BD000400400E
:102CD000403802400008024070472DE9F0410446A8
:102CE0000068C66805694FF00007A90713D5B1074A
:102CF00011D5F91E016101202077206880698007C5
:102D0000204602D0FFF7E8FF04E000F0BFF82046BD
:102D100000F051F92777680716D5700714D5216898
:102D20006FF004000861022020772068806910F4A9
:102D3000407F204602D0FFF7CFFF04E000F0A6F866
:102D4000204600F038F92777280715D5300713D526
:102D500021686FF008000861042020772068C069AE
:102D60008007204602D0FFF7B7FF04E000F08EF89E
:102D7000204600F020F92777E80616D5F00614D58E
:102D800021686FF010000861082020772068C06972
:102D900010F4407F204602D0FFF79EFF04E000F0D1
:102DA00075F8204600F007F92777E80708D0F00704
:102DB00006D021686FF001000861204600F060F93C
:102DC000280608D5300606D521686FF08000086116
:102DD0002046FFF7D5FC680608D5700606D52168A1
:102DE0006FF040000861204600F060F9A8060AD59F
:102DF000B00608D521686FF0200008612046BDE8C4
:102E0000F041FFF7BEBCBDE8F0810000F0B587B02F
:102E1000044614216846FDF7A0FA18492068884244
:102E20002AD117480024016841F0020101600168BD
:102E300001F002010591016841F0010101600068A3
:102E4000022500F0010005904FF46040CDE9000537
:102E500002AA0326012782E8D00069460948FEF746
:102E600073FE4FF4E060CDE9000502AA694682E8EE
:102E7000D0000548FEF768FE07B0F0BD0000014035
:102E8000303802400004024000000240704770B534
:102E9000044690F83C0000260D4601280FD0012082
:102EA00084F83C006AB1042A1DD0082A2FD00C2ACD
:102EB0003FD00126002084F83C00304670BD02203F
:102EC00070BD206801F0CAF82068816941F00801EE
:102ED00081612068816921F0040181612068816934
:102EE0002A69114311E0206801F0E8F8206881693F
:102EF00041F4006181612068816921F48061816110
:102F0000206881692A6941EA02218161D2E720684B
:102F100001F00AF92068C16941F00801C161206827
:102F2000C16921F00401C1612068C1692A691143A6
:102F300011E0206801F02CF92068C16941F40061BA
:102F4000C1612068C16921F48061C1612068C169E3
:102F50002A6941EA0221C161ACE710B5040003D03F
:102F600094F83D0010B107E0012010BD002084F866
:102F70003C00204600F01EF8022084F83D00211D90
:102F8000206800F0E3FF012084F8460084F83E004A
:102F900084F83F0084F8400084F8410084F842003F
:102FA00084F8430084F8440084F8450084F83D0028
:102FB000002010BD7047704710B50446022249B189
:102FC00004290ED0082913D094F84100012816D006
:102FD000012010BD94F83E000128F9D184F83E206C
:102FE0000FE094F83F000128F2D184F83F2008E078
:102FF00094F840000128EBD184F8402001E084F8E7
:1030000041200122206801F009F816492068164A7B
:10301000884201D0904203D1436C43F4004343649F
:103020002068884213D0B0F1804F10D00F498842F9
:103030000DD00F4988420AD00E49884207D09042ED
:1030400005D00D49884202D00C49884204D18168DC
:1030500001F00701062903D0016841F00101016078
:10306000002010BD000001400004014000040040A9
:1030700000080040000C00400040014000180040E3
:1030800010B5044600680749884201D1FEF75CFF8D
:1030900005492068884203D1BDE8104000F0A2BC79
:1030A00010BD00000010004000000140704770B5E6
:1030B000040004D094F84100002510B106E001207E
:1030C00070BD84F84050204600F024F8242084F895
:1030D00041002068C16821F40051C160204601F020
:1030E000E3F82068016921F4904101612068416999
:1030F00021F02A0141612068C16841F40051C1609A
:103100006564202084F8410084F842006563002053
:1031100070BD0000F0B587B0044614216846FDF785
:103120001CF933493148D4F800C00022304B103923
:10313000022403254FF44066844516D1186840F4F4
:1031400000201860186800F400200590086840F01E
:10315000040008600868009600F00400059008204C
:10316000CDE90350694623483CE0DFF88CE00727AF
:103170002248F4451CD11E4B1B1D1E6846F010064C
:103180001E601B6803F0100305930B6843F00203F5
:103190000B60096802AB01F002010591C021CDE985
:1031A000001483E8A4006946FEF7CEFC07B0F0BD2A
:1031B000DFF84CE0F445F9D1D3F800C04CF4802C92
:1031C000C3F800C01B6803F4802305930B6843F029
:1031D00002030B600968009601F00201CDE9047159
:1031E00003956946CDE90142DEE70000004C00404E
:1031F0004038024000080240001001400004024034
:1032000000480040FEE700007FB500241548009408
:10321000019402941249039401604FF48031C0E993
:1032200001140461047680F820400F49C0E90A14B3
:103230000125C561C46080F830404561FDF74AFD55
:1032400008B1FDF79FFC0820CDE90005694602940E
:103250000448FDF799FC002801D0FDF793FC7FBDE1
:1032600000200140C40100200100000F7FB50024B0
:1032700015480094019402941249039401604FF49C
:103280008031C0E901140461047680F820400F49C0
:10329000C0E90A140125C561C46080F83040456169
:1032A000FDF718FD08B1FDF76DFC0320CDE9000521
:1032B000694602940448FDF767FC002801D0FDF739
:1032C00061FC7FBD002101400C0200200100000FC5
:1032D0007FB5002415480094019402941249039488
:1032E00001604FF48031C0E901140461047680F874
:1032F00020400F49C0E90A140125C561C46080F867
:1033000030404561FDF7E6FC08B1FDF73BFC0920C4
:10331000CDE90005694602940448FDF735FC002814
:1033200001D0FDF72FFC7FBD002201405402002098
:103330000100000F0D4810B50B4901601C214160D0
:1033400000218160C1600161416101764176817631
:10335000C17601774177FDF7ABFD002803D0BDE8CA
:103360001040FDF70FBC10BD00640040BC030020FE
:10337000114808B5016841F480010160006800222D
:1033800000F48000009005213820FEF775FE3820FB
:10339000FEF764FE002205213920FEF76DFE39207C
:1033A000FEF75CFE002205213A20FEF765FEBDE82F
:1033B00008403A20FEF752BE3038024010B5044AA9
:1033C0000021044804F07CFE0349486010BD000061
:1033D00058030108193E00082C0000202DE9F04395
:1033E00087B014216846FCF7B8FF4E4800250168F5
:1033F00041F010010160016801F0100105910168C0
:1034000041F480710160016801F4807105910168E7
:1034100041F004010160016801F0040105910168B7
:1034200041F020010160016801F02001059101686F
:1034300041F080010160016801F08001059101689F
:1034400041F001010160016801F00101059101688D
:1034500041F002010160016801F00201059101687B
:1034600041F0400101600068012200F040002E4F51
:103470001602059031463846FEF763FCDFF8AC8053
:10348000002240F201414046FEF75BFC0022012190
:103490003846FEF756FCDFF8989001220321484693
:1034A000FEF74FFC1C20CDE900050124694602947B
:1034B0004846FEF749FB40200090F800CDE90105A1
:1034C00069464846FEF740FBCDE900646946384648
:1034D000CDE90245FEF738FB022003950094CDE9C3
:1034E000014069464046FEF72FFBA0028DE83100FF
:1034F000694640460395FEF727FB0094CDE9014558
:10350000694638460395FEF71FFB0320CDE900040A
:1035100069464846CDE90245FEF716FB07B0BDE80F
:10352000F0830000303802400020024000140240C6
:10353000001002400D4810B50B4901600C49416074
:1035400000214FF480428160C0E903124161816132
:10355000C1610162FEF700FC002803D0BDE8104005
:10356000FDF710BB10BD000000580040E403002030
:10357000A0860100FEB54F4CC020251D2070A8205C
:1035800060707320A0701E20E070FF2028706870AB
:103590000027A8702E1DEF7037707770B770F77026
:1035A000394638460BF0FAF8208841BA0A04A17867
:1035B00042EA0123E27844BA2404134344EA012492
:1035C0001B06A4B243EA042344BA40BA000440EA0A
:1035D0000120E4B243EA04231043A5F1100143EAB9
:1035E00010600860288841BA0A04A97844BA42EAFF
:1035F0000123EA782404134344EA01241B06A4B2FD
:1036000043EA042344BA40BA000440EA0120E4B289
:1036100043EA04231043A5F10C0143EA106008605B
:10362000308841BA0A04B17844BA42EA0123F278F8
:103630002404134344EA01241B06A4B243EA0423EE
:1036400044BA40BA000440EA0120E4B243EA042349
:10365000104343EA1060A5F10801A5F108030860D2
:10366000154816490097CDE901101A1F111F14487B
:1036700003F0B0FF124804F0C7F9114804F0D8FA7B
:1036800010490F4804F01AFA0D4824213430FCF791
:1036900064FE0B480CA13430024601604FF4806197
:1036A00041611021816103B00549BDE8F04008483F
:1036B00004F006BD540000206DE9000851560008D2
:1036C00054520020455500084574684C696E6B00E3
:1036D000475500080F4810B50D4901604FF482713D
:1036E000416000218160C1604FF400720161C0E956
:1036F0000512C1610162416281620A21C162FEF765
:10370000ADFF002803D0BDE81040FDF73BBA10BD67
:10371000003800403804002070B596B000240F94A3
:1037200010941194129413941C2168461494FCF77D
:1037300014FE202107A8FCF710FE3B4D3948C5E9CF
:1037400000042020A86041F26700C5E903046C6111
:103750002846AC61FFF724F908B1FDF713FA4FF4DE
:1037600080560FA930480F96FFF7C4F908B1FDF74E
:1037700009FA2D48FFF7F1FB08B1FDF703FA13949E
:1037800013A929481494FFF7C3F808B1FDF7FAF913
:103790006020CDE90004029403940494059400226F
:1037A000694621480694FFF772FB08B1FDF7EAF974
:1037B000042269461C48FFF76AFB08B1FDF7E2F9ED
:1037C000082269461848FFF762FB08B1FDF7DAF9ED
:1037D000079454200894CDE909404FF400500E940A
:1037E000CDE90B6007A91048FEF7CCFF08B1FDF743
:1037F000C9F92868016A41F21112114207D1016A20
:103800009210114203D1016821F001010160286882
:10381000416C21F4405141640348FFF7F7FA16B0B8
:1038200070BD0000000001409004002010B58CB075
:1038300024216846FCF791FD00241548099413499A
:103840000A94C0E900144FF6FF71C0E90241046117
:1038500084610120CDE90004CDE902040494CDE99E
:103860000540079469460A480894FFF7B1F908B182
:10387000FDF788F9099409A905480A94FFF748F863
:10388000002801D0FDF77EF90CB010BD0004004007
:10389000D804002010B586B000241248009401948A
:1038A0000294039404940E490594C0E90014611E27
:1038B000C0E90241046169468461FEF78DFF08B1E9
:1038C000FDF760F95020CDE9040404A90548FFF78D
:1038D0001FF8002801D0FDF755F906B010BD000013
:1038E000000C0040200500200C4810B50A4901607A
:1038F0004FF4E1314160002181600C22C160C0E9D8
:1039000004128161C161FFF7D2FB002803D0BDE83A
:103910001040FDF737B910BD004C0040680500208D
:103920000C4810B50A4901604FF4E13141600021B3
:1039300081600C22C160C0E904128161C161FFF79E
:10394000B6FB002803D0BDE81040FDF71BB910BD41
:1039500000100140B00500200C4810B50A49016074
:103960004FF4E1314160002181600C22C160C0E967
:1039700004128161C161FFF79AFB002803D0BDE802
:103980001040FDF7FFB810BD00480040F8050020CA
:10399000FEE70000002210B51146104600F0C6F800
:1039A0000A4C00224FF400512046FEF7CAF90022CB
:1039B0004FF480412046FEF7C4F92046BDE8104090
:1039C00000224FF40041FEF7BCB9000000040240A1
:1039D00000B5014600F06CF8814200D90146084666
:1039E00000BD000010B5104C207801281BD100F05C
:1039F00041F8A4F1200108606278022A01D1C0F1E7
:103A00000700A0604860411E052906D8074901EB60
:103A1000800050F8040C804701E000F0DBF8BDE8BE
:103A2000104000F023B910BD200000204003010821
:103A300010B500224FF480610348FEF782F9BDE81B
:103A4000104000F013B900000014024010B501222C
:103A500091020648FEF775F905480068416C41F48B
:103A600000414164BDE8104000F000B9001402407C
:103A70009004002070B50D4D00244FF4806128465D
:103A8000FEF75AF900B101244FF400612846FEF711
:103A900053F908B144F002044FF480512846FEF770
:103AA0004BF908B144F00404204670BD001C0240EC
:103AB00001480068C06A70479004002070B586B065
:103AC00014216846FCF749FC4FF4E050002401261D
:103AD0008DE85100694613480394FEF735F8142128
:103AE0006846FCF73AFC0220CDE902404FF46045FD
:103AF0000D4CCDE9005669462046FEF725F8002218
:103B000029462046FEF71DF9FFF792FFFFF742FF17
:103B10000021012000F020F806B0BDE8704000F060
:103B20003DB80000001C02400004024070B515467C
:103B30000E46FFF74DFF074C216848633046FFF7FC
:103B400047FF216888632846FFF742FF2168C86362
:103B500070BD00009004002070B50C46022800D013
:103B60000120B4F57C6F01D340F6BF740A4D687034
:103B70006C6000F07BF83CB101202870FFF766FF15
:103B8000BDE87040FFF72EBF00202870FFF750FF00
:103B9000BDE87040FFF7FEBE2000002010B50021F8
:103BA0000B48FFF709FA48B904210948FFF704FA5E
:103BB00020B908210648FFF7FFF908B1012010BD20
:103BC00003480068C16841F00101C160002010BDD8
:103BD00090040020044910B500200870FFF728FF6A
:103BE000BDE81040FFF7D6BE200000200D4810B5FC
:103BF000406800221146FFF799FF0B4C00224FF45A
:103C000000512046FEF79DF8012291032046FEF761
:103C100098F82046BDE8104000224FF40041FEF71E
:103C200090B8000020000020000402400D4810B5AC
:103C3000406800221146FFF779FF0B4C00224FF439
:103C400000512046FEF77DF800224FF480412046C7
:103C5000FEF777F820460122BDE81040D103FEF7B9
:103C600070B80000200000200004024010B5FFF7EB
:103C700001FF0E4C206004F1200081686160017832
:103C8000A1604068E0600A480068416B2161816B77
:103C90006161C06BA0614FF480610648FEF74CF88B
:103CA000012800D00020E06110BD000000000020CD
:103CB00090040020001402400D4810B54168002215
:103CC0001046FFF733FF0B4C012251032046FEF74D
:103CD00038F800224FF480412046FEF732F82046A3
:103CE000BDE8104000224FF40041FEF72AB8000062
:103CF00020000020000402400D4810B54168002259
:103D00001046FFF713FF0B4C00224FF400512046E2
:103D1000FEF717F800224FF480412046FEF711F815
:103D200020460122BDE81040D103FEF70AB800008A
:103D300020000020000402400D4810B54268002118
:103D40000846FFF7F3FE0B4C012251032046FDF716
:103D5000F8FF00224FF480412046FDF7F2FF204695
:103D6000BDE8104000224FF40041FDF7EABF00001B
:103D700020000020000402400D4810B542680021D8
:103D80000846FFF7D3FE0B4C00224FF400512046AB
:103D9000FDF7D7FF012291032046FDF7D2FF204611
:103DA000BDE8104000224FF40041FDF7CABF0000FB
:103DB000200000200004024070B5144E042130465B
:103DC000FDF7BAFF054608213046FDF7B5FF04466A
:103DD00010213046FDF7B0FF0D4A01460020137850
:103DE000012B00D11DB15378012B02D002E001203C
:103DF00008E01CB19378012B02D003E0022001E01F
:103E000001B9032015705470917070BD001002400C
:103E10002C000020FEE70000FFF7ACFB5FF0000481
:103E2000FFF7CAFF012804D002280DD0032814D0C0
:103E300018E06434B4F5FC6F0CDB40F2DF7421460B
:103E400002200DE061420AE0643C14F5FC6F01DCE5
:103E5000064CF7E7002CF5DBF1E7002421460120B2
:103E6000FFF77AFE0A2003F033FFD9E721F8FFFFBE
:103E700010B54FF0E02000690CF068F8012803D07D
:103E8000BDE810400BF084BB10BD000030B593B00E
:103E900030216846FCF761FA14210CA8FCF75DFAA2
:103EA0001E480025016841F080510160006800F063
:103EB000805011901A48016841F480410160006807
:103EC000022400F480401190012000900004019031
:103ED0008001CDE90640082008904FF4A870CDE994
:103EE000090404200B906846FEF702FA08B172B686
:103EF000FEE70CA90F2081E831004FF4A0500F908D
:103F00004FF48050109005210CA8FEF7E7F8002828
:103F100001D072B6FEE713B030BD00004038024059
:103F2000007000400248016841F470010160704770
:103F300088ED00E00148FEF7D0BE000090040020AC
:103F40000148FEF7CABE000040060020F0B5026836
:103F5000274B284D284E294F294C4FF0804C984232
:103F600009D0604507D0A84205D0B04203D0B8427E
:103F700001D0A04204D122F0700E4A6842EA0E023B
:103F800098421BD0604519D0A84217D0B04215D036
:103F9000B84213D0A04211D01A4DA8420ED01A4DEB
:103FA000A8420BD0194DA84208D0194DA84205D0FF
:103FB000184DA84202D0184DA84203D122F44075F2
:103FC000CA682A434D6922F080022A438D68C5627F
:103FD0000D688562984201D0A04201D10969016350
:103FE000016841F004010160012141610260F0BDFE
:103FF000000001400004004000080040000C0040A8
:1040000000040140004001400044014000480140DC
:1040100000180040001C00400020004010B501F0D6
:104020001F030121046A99408C430462016A9A408B
:104030001143016210BD10B5846842EA032224F4E2
:104040007F440A432243826010BD826822F07002DE
:104050000A4342F00701816070470000F0B5036A2F
:10406000026A22F00102026242688469124E24F060
:1040700073050C682C4323F002058B682B430D4D10
:10408000A84201D0B04205D123F00807CB683B43DA
:1040900023F00403A84201D0B04205D14D6922F4B7
:1040A000407215438A692A434260846149684163CA
:1040B0000362F0BD0000014000040140F0B5026A57
:1040C000036A23F010030362436884690D6824F4D3
:1040D000E64444EA05248D6822F0200242EA0512F3
:1040E0000F4D104EA84201D0B04206D1CF6822F049
:1040F000800242EA071222F04002A84201D0B042F8
:1041000007D14D6923F4406343EA85038D6943EA8F
:10411000850343608461496881630262F0BD0000E9
:104120000000014000040140F0B5026A036A23F474
:10413000807303624368C46922F4007224F073053B
:104140000C68124E2C438D6842EA05220E4DA8429F
:1041500001D0B04206D1CF6822F4006242EA0722C1
:1041600022F48062A84201D0B04207D14D6923F405
:10417000405343EA05138D6943EA05134360C46164
:104180004968C1630262F0BD0000014000040140C3
:1041900030B5046A026A22F4805202624268C3693E
:1041A0000D6823F4E64343EA05238D6824F40054A4
:1041B00044EA0534084DA84202D0084DA84204D173
:1041C0004D6922F4804242EA85124260C361496827
:1041D0000164046230BD00000000014000040140A1
:1041E00010B5036A046A24F001040462846924F0AF
:1041F000F00444EA021423F00A020A4384610262D2
:1042000010BD000070B5056A046A24F00104046260
:104210008469154EB04214D0B0F1804F11D0134EC6
:10422000B0420ED0124EB0420BD0124EB04208D067
:10423000114EB04205D0114EB04202D0104EB042E5
:1042400003D124F00304144301E044F001041A07ED
:1042500024F0F00444EA126225F00A0301F00A0196
:1042600019438261016270BD0000014000040040FA
:1042700000080040000C00400004014000400140E4
:104280000018004010B5036A046A24F010040462A8
:10429000846923F0A00324F4704444EA023243EA20
:1042A00001118261016210BD70B5044600680169A8
:1042B000E26821F44051114301612169A068E2697B
:1042C00008436169114308432168CA6849F20C63D5
:1042D0009A430243CA6020684169A26921F440718F
:1042E0001143416131492068884202D030498842F7
:1042F00002D1FDF7BDFF01E0FDF7AAFFE26900234F
:10430000192164253226B2F5004F626828D0A0FB3F
:104310000101930F9200FBF7B5FF0146B0FBF5F0EA
:104320006FF01802504301EB800006EB0010B0FB69
:10433000F5F000F0F002B1FBF5F002EB0012B1FB7A
:10434000F5F06FF01803584301EB800006EB001006
:10435000B0FBF5F000F00F0021681044886070BDDC
:10436000A0FB010192185B41FBF78CFF0146B0FBFB
:10437000F5F00201B1FBF5F06FF01803584301EBC3
:10438000800006EBC000B0FBF5F000F0F80002EB97
:104390004002B1FBF5F0584301EB800006EBC00092
:1043A000B0FBF5F000F00700D6E700000010014078
:1043B00000140140F8B504460020009063696A4685
:1043C0000121206898476FF00406002838DB6369F4
:1043D0006A46012120689847002831DB0098400791
:1043E00043D563696A46002120689847002827DB87
:1043F0000098C10408D44FF40451814327D08104AC
:1044000029D4C0052BD42EE063696A4601212068B7
:104410009847002814DB0098800601D40620F8BDD8
:1044200063696A46042120689847002808DB0098E1
:10443000636985B26A46052120689847002801DA39
:104440003046F8BD009880B20540E80501D502204D
:10445000F8BD280601D50320F8BD680601D5042063
:10446000F8BDA80601D50520F8BD0120F8BD2DE94D
:10447000F84304460020054606460090606808BBE5
:10448000A06800B1804720206FF004074FF6FF7846
:10449000206063696A46022128469847002801DAAD
:1044A0003E4607E00099414504D0002625601F2DB7
:1044B00006D809E06D1C1F2DEBD925681F2D02D9E8
:1044C0006FF0020602E00EB9012060603046BDE8E0
:1044D000F88388B1CA687AB18A686AB10A695AB140
:1044E0000A6882604A68C260CA6842618A6802617A
:1044F00009698161002070474FF0FF307047FEE787
:104500000FB4054B10B503A9044A029800F028F82F
:1045100010BC5DF814FB000029570008C001002002
:104520000907090E002804DB00F1E02080F80014E0
:10453000704700F00F0000F1E02080F8141D704774
:1045400002E008C8121F08C1002AFAD1704770475C
:10455000002001E001C1121F002AFBD170470000BA
:104560002DE9FF4F8BB09A460F460546002606E020
:1045700025280BD052460D9990476D1C761C287843
:104580000028F5D10FB03046BDE8F08F0024A046DA
:104590000122604900E0044315F8013F203B02FA84
:1045A00003F00842F7D128782E2817D115F8010F0B
:1045B00044F004042A280ED06FF02F022878A0F1CE
:1045C000300109290AD808EB880102EB410100EB10
:1045D00001086D1CF2E757F8048B6D1C28786928D8
:1045E0003ED006DC0028CDD063280BD0642804D14F
:1045F00036E0732810D075284BD052460D9990475D
:10460000761C85E017F8040B8DF8000000208DF86B
:104610000100E946012003E057F8049B4FF0FF300A
:1046200061074FF0000401D40AE0641C44450DDA30
:104630008442FADB19F804100029F6D106E0641C64
:104640008442FCDB19F804100029F8D1264404E068
:1046500019F8010B52460D999047641EF8D257E0A5
:1046600001CF4FF00A0B002802DA40422D2102E070
:10467000210504D52B218DF82410012103E0E10749
:1046800005D02021F7E70DF1200908910CE0002169
:10469000F9E701CF4FF00A0BF9E75946FBF775FE32
:1046A00001F1300209F8012D0028F6D1ADEB090027
:1046B00000F1200B600701D44FF00108D84502DD5E
:1046C000A8EB0B0000E000208046002406E009A8CB
:1046D0005246005D0D999047641C761C08988442F0
:1046E000F5DB04E0302052460D999047761CB8F176
:1046F0000001A8F10108F5DC05E019F8010B5246AC
:104700000D999047761CBBF10001ABF1010BF4DC75
:104710006D1C34E70928010070B505460C46880772
:1047200006D009A34FF4B67213A11BA0FFF7E8FE51
:1047300005F022F9A96809682160A9680C60BDE844
:10474000704005F025B900002E2E2F4D6964646C71
:104750006577617265732F54686972645F50617226
:1047600074792F4C7749502F7372632F636F726582
:104770002F6D656D702E63006D656D705F6672657F
:10478000653A206D656D2070726F7065726C79206E
:10479000616C69676E656400417373657274696FFB
:1047A0006E2022257322206661696C656420617425
:1047B000206C696E6520256420696E2025730A00CF
:1047C00070B5044605F0D8F80546A0680468002CCA
:1047D0000FD021680160A00706D008A34FF48C72A7
:1047E00012A11BA0FFF78CFE284605F0D1F8204649
:1047F00070BD284605F0CCF8002070BD2E2E2F4D40
:104800006964646C6577617265732F54686972645A
:104810005F50617274792F4C7749502F7372632FF8
:10482000636F72652F6D656D702E63006D656D70C1
:104830005F6D616C6C6F633A206D656D7020707296
:104840006F7065726C7920616C69676E65640000D9
:10485000417373657274696F6E202225732220661E
:1048600061696C6564206174206C696E65202564E3
:1048700020696E2025730A0070B5094D0646002494
:1048800004EB440005EBC000017D29B18068B04213
:1048900002D1204600F036F9641C0A2CF0DB70BD12
:1048A00088D200202DE9F74F84B04FF00A0B002486
:1048B0000646DA465F46D94602940194CDF8004098
:1048C000514904EB440001EBC008039098F81450E0
:1048D0000A2F1DD0002D2AD0012D08D0022D06D27E
:1048E0004AA340F2231257A166A0FFF709FE9EB12A
:1048F0003168D8F8040081420ED1069820B1D8F86A
:1049000008100698814207D1204607B0BDE8F08F15
:10491000002DE1D127460AE0012D16D0022D06D345
:10492000B8F812000099884201D3A2460090641C96
:1049300024B20A2CC4DB059881074FF0FF30E4D481
:104940000A2F16D018DA3C463EE02F49039851F85A
:1049500030000028B8F8120005D002998842E6D34A
:10496000A1460290E3E701998842E0D3A346019073
:10497000DDE70599C907C8D05146BAF10A0F0EDA2A
:104980000C46214801EB440150F8310080B11FA3CF
:1049900040F26D1245A13BA0FFF7B2FD08E0594679
:1049A000BBF10A0F03DB4946B9F10A0FADDA0C4639
:1049B0000A2C06DB15A340F27F1242A131A0FFF7BB
:1049C0009FFD204600F09EF80A2C06DB0FA340F264
:1049D00083123CA12BA0FFF793FD0B4804EB44018D
:1049E00000EBC105287D30B108A34FF4C2723AA193
:1049F00024A0FFF785FD0EB1306868600020688252
:104A00000698A86080E7000088D200202E2E2F4D47
:104A10006964646C6577617265732F546869726448
:104A20005F50617274792F4C7749502F7372632FE6
:104A3000636F72652F697076342F65746861727068
:104A40002E6300007374617465203D3D2045544819
:104A50004152505F53544154455F50454E44494E76
:104A600047207C7C207374617465203E3D20455452
:104A7000484152505F53544154455F535441424C56
:104A800045000000417373657274696F6E202225C2
:104A90007322206661696C6564206174206C696EA4
:104AA0006520256420696E2025730A006172705F9D
:104AB0007461626C655B695D2E71203D3D204E55D1
:104AC0004C4C000069203C204152505F5441424C04
:104AD000455F53495A4500006172705F7461626CB2
:104AE000655B695D2E7374617465203D3D2045549E
:104AF000484152505F53544154455F454D505459BD
:104B00000000000070B5074C00EB4005002654F88B
:104B1000350018B103F08AFF44F8356004EBC50096
:104B2000067570BD88D200202DE9F04385B00D00D8
:104B3000074609D07C684FF480782088404539D1F9
:104B40002079062836D109E01CA340F28A2229A147
:104B50002CA0FFF7D5FC05B0BDE8F08360790428F0
:104B600028D16088082825D1D4F80E000490A169C6
:104B7000686820B1814202D10126334601E0002657
:104B8000022304F10802914604A9284600F0A2FB82
:104B9000E08840450ED16EB1022204ABCDE902326D
:104BA000291DCDE9001905F1260319464A46284674
:104BB00000F090FA384603F039FFCCE72E2E2F4D47
:104BC0006964646C6577617265732F546869726497
:104BD0005F50617274792F4C7749502F7372632F35
:104BE000636F72652F697076342F657468617270B7
:104BF0002E6300006E6574696620213D204E554C81
:104C00004C000000417373657274696F6E20222539
:104C10007322206661696C6564206174206C696E22
:104C20006520256420696E2025730A00FEB51546AF
:104C30000E46040006D143A340F21E324FA153A0FA
:104C4000FFF75EFC36B93FA340F21F3259A14FA0D7
:104C5000FFF756FC35B93BA34FF4487258A14BA05F
:104C6000FFF74EFC2146286800F0ECFE08B1584BD7
:104C70003FE02868C0F303110E2925D0A1686368BE
:104C800000EA01020B409A4208D080B2A0F57E41B2
:104C9000A93903D0E068B0B304F10C054D4B4E4880
:104CA0001A7802EB420100EBC1010F7D022F2ED3D7
:104CB0008F68A7422BD12F6849688F4227D1314690
:104CC000204600F08BF8FEBD01208DF80400002086
:104CD0008DF805005E208DF80600687801AB00F0C5
:104CE0007F008DF80700A8788DF80800E8788DF827
:104CF00009004FF40060009004F12602314620467E
:104D000000F02AFCFEBDFFE76FF00300FAE7002287
:104D100002EB420100EBC1010F7D022F08D38F6827
:104D2000A74205D12F6849688F4201D11A70C6E7A2
:104D3000521CD2B20A2AEBD332462946204600F052
:104D4000D5F8DFE72E2E2F4D6964646C65776172AC
:104D500065732F54686972645F50617274792F4C67
:104D60007749502F7372632F636F72652F69707666
:104D7000342F6574686172702E6300006E6574690B
:104D80006620213D204E554C4C0000004173736558
:104D90007274696F6E2022257322206661696C65CA
:104DA00064206174206C696E6520256420696E2022
:104DB00025730A007120213D204E554C4C00000007
:104DC00069706164647220213D204E554C4C000096
:104DD000A8030108AC01002088D200202DE9F84387
:104DE0000646154688461C4802EB450100EBC10407
:104DF000207D022806D219A340F2EE2225A131A07F
:104E0000FFF77EFB144A05EB4501207D02EBC1054F
:104E10000C35022813D1608A0327B0F58E7F04D9A0
:104E2000211D304600F010FA07E0B0F5877F06D369
:104E30002A46211D304600F00DFA00B927754FF4BF
:104E4000006000902B4606F126024146304600F0F5
:104E500083FBBDE8F883000088D200202E2E2F4D62
:104E60006964646C6577617265732F5468697264F4
:104E70005F50617274792F4C7749502F7372632F92
:104E8000636F72652F697076342F65746861727014
:104E90002E6300006172705F7461626C655B6172A9
:104EA000705F6964785D2E7374617465203E3D2087
:104EB0004554484152505F53544154455F53544107
:104EC000424C4500417373657274696F6E202225F0
:104ED0007322206661696C6564206174206C696E60
:104EE0006520256420696E2025730A002DE9FC5F8A
:104EF0008246263001900E46086814464FF0FF3770
:104F00004FF0000B514600F09DFD80B93068C0F3B2
:104F100003110E290BD056B148B15246012130463B
:104F2000FFF7C0FC050005D540B2BDE8FC9F6FF05F
:104F30000F00FAE77F2D06D337A340F2C13244A118
:104F400047A0FFF7DDFA05F0FF094F4909EB4908D3
:104F500001EBC805287D00280ED0012808D00228C2
:104F600006D22DA340F2CD3248A13DA0FFF7C8FAEA
:104F7000BBF1000F06D104E001202875C5F808A098
:104F800000E034B93146504600F05EF90746002C87
:104F9000CBD0287D3C4E02280ED346494FF400600A
:104FA00005F10C0381F80090009021465046019ACB
:104FB00000F0D2FA07462DE001282BD1254640F219
:104FC000F13768892989884207D1286828B112A356
:104FD0003A4639A122A0FFF793FA287B400607D56D
:104FE00022464FF420710E2003F056FB044605E0E4
:104FF0002D68002DE5D1204603F0ACFE44B156F8F3
:10500000380008B103F012FD46F83840002701E0EF
:105010004FF0FF37384688E72E2E2F4D6964646CB9
:105020006577617265732F54686972645F5061724D
:1050300074792F4C7749502F7372632F636F7265A9
:105040002F697076342F6574686172702E6300006A
:1050500074797065206F766572666C6F77000000FA
:10506000417373657274696F6E2022257322206606
:1050700061696C6564206174206C696E65202564CB
:1050800020696E2025730A0088D200206172705F4B
:105090007461626C655B695D2E7374617465203D3B
:1050A0003D2050454E44494E47206F722053544195
:1050B000424C4500AC0100206E6F207061636B654F
:1050C000742071756575657320616C6C6F776564AC
:1050D000210000002DE9FF4F81B09846DDE90FA9BE
:1050E000DDF838B006004FF0000706D12CA340F2DF
:1050F000574239A13CA0FFF703FA4FF420721C215C
:105100000E2003F085F8050046D068891C2806D2D9
:1051100023A340F262423EA133A0FFF7F1F96C688D
:10512000119801F049FDE08096F82C00062806D081
:105130001BA340F2694243492BA0FFF7E1F9D8F8DD
:105140000010A160B8F80400A081DAF80010C4F8DB
:105150001210BAF80400E082DBF80000C4F80E0078
:10516000D9F80000A0614FF4807020800820608092
:10517000062020710420607140F60600DDE902235C
:1051800000902946304600F0E7F9284603F04EFC2F
:10519000384605B0BDE8F08F4FF0FF30F9E700006A
:1051A0002E2E2F4D6964646C6577617265732F5480
:1051B000686972645F50617274792F4C7749502F1F
:1051C0007372632F636F72652F697076342F657405
:1051D000686172702E6300006E6574696620213DFF
:1051E000204E554C4C000000417373657274696F1A
:1051F0006E2022257322206661696C6564206174CB
:10520000206C696E6520256420696E2025730A0074
:10521000636865636B207468617420666972737477
:1052200020706275662063616E20686F6C64207305
:105230007472756374206574686172705F686472FB
:1052400000000000D0050108014A00F003B800008A
:10525000A80301087FB5064D031D0124CDE90035E3
:10526000CDE9021422331946FFF734FF04B070BDB4
:10527000AE03010870B5164D002400BF04EB4400D6
:1052800005EBC002117DF1B1508A401C80B2508202
:10529000B0F5967F0AD2012906D003290AD0042945
:1052A0000AD001290BD00EE0052808D32046FFF7CD
:1052B00029FC08E0042000E00220107503E0111D25
:1052C0009068FFF7C1FF641C0A2CD7DB70BD00009B
:1052D00088D20020F8B5044690F82C001F461646E8
:1052E0000D46062806D020A340F2A9122CA135A015
:1052F000FFF706F99DB1286888B1214600F0A2FBAE
:1053000068B92878C0F303100E2808D02246394621
:105310002846FFF7C7FA002804DA40B2F8BD6FF05C
:105320000F00F8BD00EB40013048022300EBC10242
:10533000137594603368D360B3881382002353825B
:1053400050F8315075B140F831304FF400600090A2
:10535000334604F126022946204600F0FDF828468F
:1053600003F064FB0020F8BD2E2E2F4D6964646CA1
:105370006577617265732F54686972645F506172FA
:1053800074792F4C7749502F7372632F636F726556
:105390002F697076342F6574686172702E63000017
:1053A0006E657469662D3E6877616464725F6C65D2
:1053B0006E203D3D204554485F4857414444525F6C
:1053C0004C454E00417373657274696F6E202225DF
:1053D0007322206661696C6564206174206C696E5B
:1053E0006520256420696E2025730A0088D200207C
:1053F0002DE9F041044640890E270D460E283CD980
:10540000E07B18B995F83000401CE07360680178C3
:105410008689CA0714D0012905D006221C49FAF74B
:10542000A7FF48B10CE0417851B980785E2807D1D8
:10543000607B40F0100002E0607B40F00800607389
:10544000082E03D0B6F5C16F17D10DE095F82D00E9
:10545000000712D53946204603F0CAFC68B9294630
:10546000204600F037FC10E095F82D00000704D529
:105470003946204603F0BCFC18B1204603F0D6FAAA
:1054800003E029462046FFF74FFB0020BDE8F081EE
:10549000A803010870B59AB0064664216846FAF779
:1054A0005CFF2648FEF786FF254D0446012811DCE7
:1054B00096F82D00400709D520482030FCF78AFADD
:1054C000304602F0A7FA304602F0FCFA012068608C
:1054D0001AB070BD062CFBD096F82D00400706D5FB
:1054E0006868A042F4D015482030FCF773FA1348DE
:1054F00069462030FBF714FF4FF48041022C08D09E
:105500000020032C03D00590042C03D004E0059167
:1055100002E005914FF4006006900848694620308B
:10552000FCF701FA05482030FCF70AFA304602F091
:105530007FFB304602F01CFB6C60C9E74C51002039
:1055400034000020704704462046FFF7A3FF642084
:1055500002F0BEFBF8E700002DE9F04104461F46CB
:1055600090460E46069801F027FB05460E21304670
:1055700002F0EBFD18B16FF00100BDE8F08170683A
:10558000858139680160B9888180D8F80020C0F829
:105590000620B8F80410418194F82C00062806D0A3
:1055A00006A34FF4997213A11FA0FEF7A9FF31467D
:1055B0002046A269BDE8F041104700002E2E2F4D75
:1055C0006964646C6577617265732F54686972648D
:1055D0005F50617274792F4C7749502F7372632F2B
:1055E0006E657469662F65746865726E65742E6386
:1055F000000000006E657469662D3E687761646422
:10560000725F6C656E206D75737420626520362044
:10561000666F722065746865726E65745F6F75740D
:105620007075742100000000417373657274696FB6
:105630006E2022257322206661696C656420617486
:10564000206C696E6520256420696E2025730A0030
:1056500010B5040006D10BA340F2D71210A114A07C
:10566000FEF74EFF732084F82E00742084F82F007C
:10567000194860611948A061204601F073F90020C3
:1056800010BD00002E2E2F4C5749502F54617267C9
:1056900065742F65746865726E657469662E630043
:1056A0006E6574696620213D204E554C4C0000000B
:1056B000417373657274696F6E20222573222066B0
:1056C00061696C6564206174206C696E6520256475
:1056D00020696E2025730A002D4C0008D16A00084D
:1056E00008B50F4D04464FF0FF3800274146A86823
:1056F00002F040FC0028F9D10097287818B96946D3
:105700000848FBF7FEFF009E002EEFD022692146DD
:10571000304690470028EFD0304603F087F9EBE79A
:10572000340000206C51002038B504468DF800008C
:1057300069460320ABBE204638BD0A46032100F06F
:10574000F5B800002DE9FE4F8A4644490446D1F8D9
:10575000088098F800000007850E142D79D3608921
:10576000042876D360680078002872D0082870D1A9
:10577000486901F11407C0F303120E2A69D0894663
:10578000096800F05FF9002863D12089082860D3F8
:1057900005F10E010E46204602F0D7FC002830D05D
:1057A0002089411989B2884253D84FF420720E20C3
:1057B00002F02EFD06004CD0718905F108008142EF
:1057C00016D32A4641467068FAF7A0FD29463046AE
:1057D00003F00EFB002806D021A3B6222EA13CA088
:1057E000FEF78EFE04E02146304602F0A3FF18B11A
:1057F000304603F01BF92CE0204603F017F934463D
:105800000CE03146204603F0F3FA002806D014A33A
:10581000C72239A12EA0FEF773FE1AE029462046C2
:10582000666802F092FCA0B960683968FF22C16026
:10583000D9F810100161002131707180027241812C
:1058400001228DE806040A46FF233946204600F06F
:1058500011FB2046BDE8FE4F03F0E8B8809B002016
:105860002E2E2F4D6964646C6577617265732F54B9
:10587000686972645F50617274792F4C7749502F58
:105880007372632F636F72652F697076342F69634B
:105890006D702E630000000069636D705F696E704B
:1058A00075743A206D6F76696E6720722D3E706157
:1058B000796C6F616420746F2069636D7020686516
:1058C00061646572206661696C65640A00000000AD
:1058D000417373657274696F6E202225732220668E
:1058E00061696C6564206174206C696E6520256453
:1058F00020696E2025730A0069636D705F696E70A0
:1059000075743A20726573746F72696E67206F7276
:105910006967696E616C20702D3E7061796C6F6192
:1059200064206661696C65640A0000002DE9FF4728
:105930009146884606464FF420722421222002F028
:1059400067FC050031D06889242806D218A34FF4DB
:10595000B47225A12FA0FEF7D3FD6C6877681C22D6
:1059600084F8008084F801904FF00008A4F80480C7
:10597000A4F80680686871680830FAF7C7FCF86810
:10598000039003A800F086FC60B1A4F80280012215
:10599000CDF80080CDE90120FF2303AA002128468D
:1059A00000F068FA284603F041F8BDE8FF870000E0
:1059B0002E2E2F4D6964646C6577617265732F5468
:1059C000686972645F50617274792F4C7749502F07
:1059D0007372632F636F72652F697076342F6963FA
:1059E0006D702E6300000000636865636B2074684F
:1059F00061742066697273742070627566206361D9
:105A00006E20686F6C642069636D70206D657373C0
:105A100061676500417373657274696F6E2022253A
:105A20007322206661696C6564206174206C696E04
:105A30006520256420696E2025730A000A460B2123
:105A4000FFF774BF421C12D088B191F82D20920745
:105A50000BD54B68834208D0896800EA01020B40ED
:105A60009A4202D10143491C01D000207047012015
:105A7000704700002DE9F74F88B0044609980025CB
:105A80001426808CAF1F1438C11700EB5170C0F37F
:105A9000CF00039060680690017801F00F0105299E
:105AA00003D038460BB0BDE8F08F6189142907D2C6
:105AB0005BA34FF43F7269A16FA0FEF721FDF0E7F1
:105AC000C08801F079F8C0F30C0100F40050029195
:105AD0000790208914381FFA80F88EE003984FF65B
