:020000040800F2
:1000000060D3002061020008A7260008C52200086E
:10001000A5260008530400089B2C000800000000DF
:10002000000000000000000000000000A101000826
:100030005504000800000000FD010008B526000876
:100040007B0200087B0200087B0200087B0200089C
:100050007B0200087B0200087B0200087B0200088C
:100060007B0200087B0200087B0200087B0200087C
:100070007B0200087B0200087B0200087B0200086C
:100080007B0200087B0200087B0200087B0200085C
:100090007B0200087B0200087B0200087B0200084C
:1000A0007B0200087B0200087B0200087B0200083C
:1000B0007B0200087B0200087B0200087B0200082C
:1000C0007B0200087B0200087B0200087B0200081C
:1000D0007B0200087B0200087B0200087B0200080C
:1000E0007B0200087B0200087B0200087B020008FC
:1000F0007B0200087B0200087B0200087B020008EC
:100100007B0200087B0200087B0200087B020008DB
:100110007B0200087B020008792700087B020008A8
:100120007B0200087B0200087B0200087B020008BB
:100130007B020008F10400087B0200087B02000833
:100140007B0200087B0200087B0200087B0200089B
:100150007B0200087B0200087B0200087B0200088B
:100160007B0200087B0200087B0200087B0200087B
:100170007B0200087B0200087B02000800000000F0
:100180007B0200087B020008DFF810D000F032F993
:10019000004800477D530008AFF3008060D3002083
:1001A0002C4B19680868B0E8F04F80F30988BFF35A
:1001B0006F8F4FF0000080F311887047000000003F
:1001C00008480068006880F308884FF0000080F35A
:1001D000148862B661B6BFF34F8FBFF36F8F00DF35
:1001E00000BF00BF08ED00E0DFF80C00016841F43B
:1001F00070010160704700BF88ED00E0EFF30980F7
:10020000BFF36F8F134B1A681EF0100F08BF20ED5D
:10021000108A20E9F04F106009B44FF0500080F3CD
:100220001188BFF34F8FBFF36F8F0DF0B7FC4FF006
:10023000000080F3118809BC19680868B0E8F04F25
:100240001EF0100F08BFB0EC108A80F30988BFF3CE
:100250006F8F704740000020EFF30580704700006B
:100260000648804706480047FEE7FEE7FEE7FEE750
:10027000FEE7FEE7FEE7FEE7FEE7FEE76927000888
:10028000890100082DE9F05F0546002092469B4653
:1002900088460646814640241BE02846414647469C
:1002A000224600F097F853465A46C01A914110D39F
:1002B00011461846224600F07EF82D1A67EB010819
:1002C0004F4622460120002100F075F817EB000987
:1002D0004E41201EA4F10104DFDC484631462A4687
:1002E0004346BDE8F09F00000649074A08685043AE
:1002F00043F2390210440860400870470149086021
:10030000704700008C0100206D4EC64110B5431AA5
:10031000934209D28318881803E010F8011D03F8EE
:10032000011D521EF9D210BD40EA01039B0703D004
:1003300009E008C9121F08C0042AFAD203E011F824
:10034000013B00F8013B521EF9D210BDD2B201E0D0
:1003500000F8012B491EFBD270470022F6E710B5CA
:1003600013460A4604461946FFF7F0FF204610BD23
:1003700030B504460020034600E05B1C934203D2E4
:10038000E05CCD5C401BF8D030BD30B50B4601467B
:1003900000202022012409E021FA02F59D4205D324
:1003A00003FA02F5491B04FA02F52844151EA2F1CE
:1003B0000102F1DC30BD202A04DB203A00FA02F110
:1003C000002070479140C2F1200320FA03F3194343
:1003D00090407047202A04DB203A21FA02F00021E5
:1003E000704721FA02F3D040C2F120029140084345
:1003F00019467047064C074D06E0E06840F00103DF
:1004000094E8070098471034AC42F6D3FFF7C0FEDB
:1004100058ED000878ED000830B58C1810F8012B65
:1004200012F00F0301D110F8013B120906D110F8A8
:10043000012B03E010F8015B01F8015B5B1EF9D1B1
:1004400001E001F8013B521EFBD1A142E6D300209E
:1004500030BDFEE770470000F0B500231A464FF0AC
:10046000004500BF016903EB830401EBC4010A608E
:100470004A608A60CA600A620D604A62466946F450
:1004800080464E604E6826F000464E6000EB8306C4
:10049000032BB16405D22827066907EBC404344452
:1004A00000E00469CC605B1C042BDBD3C2650266F0
:1004B0008266C26682650169006800F58050C1608D
:1004C000F0BD38B50446006800F58050816941F4FC
:1004D00080118161206800F58050806900900120C2
:1004E00000F06CFA2068009900F58050816138BDF9
:1004F000014800F0FFBA0000504D002070B5A4B0D4
:100500000125002406468DF828408DF804501494E7
:10051000A8038DF8564005908DF8105002948DF880
:100520000E508DF85440C0108DF811508DF81F40BA
:100530008DF8204006908DF81E508DF80F400994DC
:100540008DF81C4012948DF84C408DF8554069464A
:10055000304600F063F98DF881508DF880408DF8B9
:10056000824028041B908DF8685080011F908DF800
:1005700070508DF8885040128DF871501E941D9067
:100580008DF87250239421948DF8895019A9304622
:10059000199400F0E3F824B070BD0020704700F01B
:1005A000D9BE00207047000013460A4610B5014628
:1005B000034800F021FC002801D04FF0FF3010BDAF
:1005C000504D002013460A4610B50146034800F07E
:1005D00097FD002801D04FF0FF3010BD504D002096
:1005E0002DE9F043836A1830914650F823208D6836
:1005F0001C4617680026002F6BDB00EB83077F6922
:10060000BFBBD5F800C00127C2F808C0D2F804C0AB
:10061000D5F804806FF30C0C4CEA080CC2F804C047
:1006200091F800C05FEACC7C09D0D2F800C0D1F8C4
:1006300014802CF4400C4CEA080CC2F800C091F86D
:1006400000C05FEA8C6C09D5D2F800C0D1F81080E8
:100650002CF0406C4CEA080CC2F800C0097849073D
:1006600003D5116841F080011160116841F080519B
:1006700048E02EE0116821F0005111601168B9F1D5
:10068000000F02D041F0804101E021F08041116073
:100690005B1C042B00D31B1F50F82320116800297A
:1006A00003DB00EB83014969B1B150F8242000213C
:1006B0000DE000BFBFF35F8F136823F000431360AA
:1006C000641C042C00D3241F491C50F82420B94278
:1006D000F0D30220BDE8F083116821F08051116051
:1006E000AD68296891605168D5F804C06FF30C01BA
:1006F00041EA0C015160761C7F1CBFF35F8F1168CB
:1007000041F000411160A9680029B3D11168B9F125
:10071000000F02D041F0804101E021F080411160E2
:10072000116841F00051116050F82410BFF35F8F41
:100730000A6842F000420A6000EB8302416A51619C
:10074000EFF31081012282F310880361826A761C24
:10075000324481F3108882620020BBE770B50C46FA
:100760000168054601F5805188692B4A1040227BBB
:10077000EAB30022637B920642EA4362637FBBB323
:100780005FF0000342EA0352A37B42EA43526369EB
:100790001A43237F42EAC312A37F42EA8312236AE9
:1007A0001A4394F8243042EA830202438A6128689B
:1007B00000F580508669012000F000F9286800F5F6
:1007C00080508661A169A06822790843216941EAC5
:1007D0004261084394F8251040EAC110A16A40EA3A
:1007E00081002168084340F40001286801E00FE01F
:1007F00010E000F580500160286800F58050046822
:10080000012000F0DBF8286800F58050046070BD1E
:100810000122AFE70123B5E7233FDEF870B5026898
:1008200005460C4610683C49A37B0840A16841EA94
:100830004361237C002B64D00023667CDB05002E03
:1008400061D0002643EA86531943E37F41EA03411E
:1008500063691943A37FEBB35FF0000341EA4331BF
:10086000237F41EA0331A3691943237941EA8321B4
:1008700094F820307BB3002341EA4321E37B41EA33
:10088000C311636A194394F8283041EA0311014304
:10089000116028680668012000F090F8286806605A
:1008A0002A6890694FF641710840A36C216D41EAB6
:1008B000034194F84C3063B3002394F85560DB0196
:1008C000012E00D0002643EAC603194394F856309F
:1008D000012B01E019E01AE000D0002341EA830176
:1008E00094F85430012B00D0002341EA4301014326
:1008F000916128688469012000F060F828688461AB
:1009000070BD012399E701269CE70123A6E7012397
:10091000B2E70123D1E700000F8120FD2DE9F84364
:10092000044600200090A56E4FF0010804EB8500FE
:10093000E76E866C1EE0306A30B9684600F0BCFA9B
:10094000009880B33062B060B8F1000F12D0A06D93
:10095000002860692BD040F480407060306840F01F
:10096000004030606D1C042D00D32D1F04EB85006A
:100970007F1E866C17B1B8F1000FDCD1E06EB84273
:100980000FD0E81C00F00300BFF35F8F216900EB7C
:10099000800001EBC001206800F580508160C4E94F
:1009A0001A57BDE8F883FFE74FF00008E2E7014976
:1009B0000843D2E70040008072B6FEE770B50446F7
:1009C00000F0C8FC0546601C02D0044800780444CE
:1009D00000F0C0FC401BA042FAD370BD30000020E4
:1009E00010B500F00BF8000605D503488068BDE897
:1009F000104005F0EBBE10BD04000020D0F88C00C4
:100A00007047D0F888007047002970D002681268DB
:100A1000C2F3001281F828200268126802F0600216
:100A20004A620268126842F34022521C81F8202078
:100A300002681268C2F30042CA770268126842F381
:100A40004032521C8A7702681268C2F300320A7779
:100A50000268126802F400628A610268126802F495
:100A600080424A610268126842F38052521C4A7402
:100A70000268126842F3C052521C0A74026812687B
:100A8000C2F3C012CA730268126802F460228A605C
:100A900002681268C2F380220A7102681268C2F307
:100AA00040628A7302689269C2F3400281F854205E
:100AB0000268926942F3C012521C81F84C2002680D
:100AC000926902F030020A6502689269120C8A6427
:100AD00002689269C2F3800281F85620006880693A
:100AE000C0F3C00081F8550000207047FFE70120E7
:100AF000FBE700002DE9F0470446006850F8387F16
:100B0000D0F8DC5FD0F8E46FDFF8B490D9F800805B
:100B100000F6C870690606D5710604D529494161F9
:100B2000204600F0EDF905EA0600C00708D020686D
:100B30004FF0011100F580504161204600F0D6FAD7
:100B4000280423D5300421D5D4F8880040F00800CB
:100B5000C4F88800A804206800F580500CD54169CD
:100B6000194A1140C4F88C10C16921F4C031C16127
:100B7000E020C4F8840006E0426948F280610A403F
:100B8000C4F88C2041612046FFF72AFF38070BD5B7
:100B90002068C06A00F06000C4F89400204600F0AD
:100BA000B8F80020C4F894005FEA083006D54FF486
:100BB0000021C9F80010204600F0A0FABDE8F08737
:100BC000143C01404000010000207E00F8B5040004
:100BD00003D0D4F8840010B107E00120F8BD202034
:100BE000C4F88400204600F093F8454800250168C9
:100BF00041F480410160006800F480400090414869
:100C0000016821F4000101600168A26811430160DC
:100C10000068206800F58050016841F00101016022
:100C200000F098FB06464FF4FA770BE000F092FBD9
:100C3000801BB84206D90420C4F88800E020C4F81C
:100C40008400CAE7206800F580500068C007EDD135
:100C50002046FFF753FC0021E06801EB810200EB26
:100C6000C200056045608560C56004EB8103986142
:100C7000036843F480130360032905D22826E36840
:100C800006EBC2021A4400E0E268C260026842F465
:100C900040020260491C0429DED3A5622068E16895
:100CA00000F5805001612046FFF7D6FB6068164AC8
:100CB000818811640178C37841EA036183784078C0
:100CC0001B0443EA0020014351642068C16B41F4D6
:100CD0000271C1632068D0F80C110C4A1143C0F8AE
:100CE0000C112068D0F8101141F40311C0F8101154
:100CF000C4F888501020C4F884000020F8BD00001B
:100D00004438024004380140008002406000020084
:100D1000704770472DE9F84F4FF000075FEA01096F
:100D20000446B84604D0D4F8840040285AD105E0DF
:100D300054F8880F40F00100206053E0E66D4FF05A
:100D4000000B04EB8600856CE06EC0F1040A36E00F
:100D50002868C00503D5E869A067A86960672868A6
:100D6000800501D4E06F10B32868800503D5C4F86E
:100D700060B0C4F864B02868C0F30D4000902868E3
:100D8000C00503D528684FF001082067AA682A62C9
:100D900004F18001081F009B00F0B8F8206E401C91
:100DA0002066616E009808446066C5F820B0761C25
:100DB000042E00D3361F04EB86007F1C856C286848
:100DC000002804DB574502D2B8F1000FC0D0E06E16
:100DD000C019E06602D02046FFF7A0FDE665B8F135
:100DE000010F02D00120BDE8F88FE16FC9F80010B3
:100DF0000020C4F87CB0F6E72DE9F041984603687E
:100E00000546186900F01C044FF6FF7000EAC12087
:100E10004FF4F861204301EA8211014321F00200FE
:100E200040F001041C6100F095FA06464FF480374B
:100E30000AE000BF00F08EFA801BB84202D3012006
:100E4000BDE8F08128680469E007F3D128684069AB
:100E500081B20020C8F80010F2E700002DE9F04749
:100E600000F118058046D5E90A64012719E000BFA2
:100E700005EB8409761ED9F81400C0B1D8F80C101F
:100E800004EB840251F8321000290DDB00F034F934
:100E90000021641CC9F81410042C00D3241FC5E9D8
:100EA0000A640EB1002FE3D10020BDE8F087641C76
:100EB000042CF6D3241FF4E71CB504460D4804F0B7
:100EC000F5FE03000FD003F1200020600A481861EE
:100ED0004FF4C0612068CDE900010021412208469D
:100EE00005F0CEFE1CBD05490120087000202060E1
:100EF0001CBD0000C8EA0008F572000804000020CC
:100F00000148806805F062BC0400002010B5002490
:100F100042F8204D1481538104681CB10C68226092
:100F20000A6004E00260FBE701891944018100685E
:100F30000028F9D110BD10B519B1D0F88420102ABD
:100F400001D0012010BDFFF769FC002010BD00009A
:100F500070B50446D0F88400102801D0012070BD7F
:100F60002020C4F884000120A0650420E06620460B
:100F7000FFF7D4FC206805680120FFF71FFD2068FB
:100F80000560206800F58050816941F4005181615D
:100F9000206800F58050816941F00201816120469E
:100FA000FFF78FFA2068016841F0080101602068AE
:100FB00005680120FFF702FD2068056020680168D0
:100FC00041F004010160206800F58050C169044AC5
:100FD0001143C1614020C4F88400002070BD0000AE
:100FE000C1A0010070B50446D0F88400402801D0AB
:100FF000012070BD2020C4F88400206800F58050D6
:10100000C1691F4A1140C161206800F580508169A3
:1010100021F400518161206800F58050816921F040
:10102000020181612068016821F0040101602068EB
:1010300005680120FFF7C2FC206805602046FFF725
:1010400040FA2068016821F0080101602068056805
:101050000120FFF7B3FC20680560002004EB80014D
:10106000896C4A6842F000424A60401C0428F5D36B
:101070000020A0651020C4F88400002070BD00008E
:101080003E5FFEFF10B5044621B1D4F8840040282D
:1010900005D010E054F8880F40F001000AE0486BDA
:1010A000E06301222046FFF79BFA30B154F8880F25
:1010B00040F002002060012010BDBFF34F8FA06AF6
:1010C000401CA062042801D3001FA062206800F524
:1010D00080504169490706D50421416120680021FB
:1010E00000F580504160002010BD00000148C0683C
:1010F00005F06CBB0400002006F04AB87047000001
:101100002DE9F04106680546306900F01C044FF6F1
:10111000FF7000EAC1204FF4F861204301EA821118
:10112000014398B241F0030470612868046100F043
:1011300011F906464FF480370AE000BF00F00AF9C3
:10114000801BB84202D30120BDE8F0812868046901
:10115000E007F3D1F8E700002DE9F84FDFF8BCA174
:101160000022012503264FF00F090AF1040BAAF112
:10117000040E00BF0B6805FA02F42340A34270D1AD
:101180000F7907F00307012F01D0022F16D18768CE
:101190004FEA420806FA08FC27EA0C07D1F80CC00F
:1011A0000CFA08FC4CEA070CC0F808C04768A743D3
:1011B0000C79C4F3001494403C4344600C79E4433C
:1011C000A4070AD0C4684FEA420C06FA0CF7BC43E5
:1011D0008F6807FA0CF72743C7600C7904F0030403
:1011E000022C12D1D40800EB840CDCF82040570705
:1011F000FF0E09FA07F824EA0804D1F8108008FA6B
:1012000007F848EA0408CCF8208004684FEA420C4A
:1012100006FA0CF7BC430F7907F0030707FA0CF73F
:10122000274307604C6814F4403F70D03C4C27685B
:1012300047F480472760246822F0030704F48044C1
:101240000094384C07EB040CDCF8084897074FEA89
:10125000177809FA08F7BC43334FB84202D1002788
:1012600024E054E0314FB84201D101271EE0304F55
:10127000B84201D1022719E02E4FB84201D103270D
:1012800014E02D4FB84201D104270FE02B4FB84294
:1012900001D105270AE02A4FB84201D1062705E00F
:1012A000284FB84201D1072700E0082707FA08F7BE
:1012B0002743CCF80878DAF800405746D1F804C044
:1012C0009C435FEACC2C00D51C433C60DBF800401B
:1012D0005F46D1F804C09C435FEA8C2C00D51C43C8
:1012E0003C60DEF800407746D1F804C09C435FEADA
:1012F0008C3C00D51C433C60084F083F3C68D1F84B
:1013000004C09C435FEACC3C00D51C433C60521CAB
:10131000102AFFF42FAFBDE8F88F0000083C014011
:101320004438024000300140000002400004024006
:1013300000080240000C024000100240001402406D
:1013400000180240001C02400AB181617047090484
:10135000FBE7000001488068704700003000002073
:101360000248816802781144816070473000002093
:101370000B4810B5016841F400710160016841F447
:1013800080610160016841F480710160032000F018
:1013900009F90F2000F006F800F050F8002010BD09
:1013A000003C024030B505461F4887B00024016864
:1013B00041F010010160006806A900F010000090E3
:1013C00001A800F09BF90498A8B100F0B7F940001B
:1013D0001649174AB0FBF1F11648491E026040F267
:1013E000E732C0E90324C0E90114846100F020FC65
:1013F000040003D015E000F0A1F9E9E70D4800F082
:1014000079FC04000DD1362000F09EF8102D07D293
:1014100000222946362000F0A5F80748056000E0C4
:10142000012407B0204630BD4038024040420F0042
:10143000001000402402002034000020F0B53E4897
:1014400087B00024016841F480410160006800F425
:10145000804005903848001F016841F080510160CC
:101460000068224600F0805005900F21A01E00F079
:1014700079F814216846FEF770FF2F481438016888
:1014800041F001010160016801F00101059101686D
:1014900041F004010160016801F004010591016857
:1014A00041F040010160016801F0400105910168CF
:1014B00041F000710160016801F00071059101685F
:1014C00041F080610160016801F08061059101686F
:1014D00041F0006101600068022500F000600590A5
:1014E0008620CDE9000502AA03260B2782E8D0005A
:1014F00069461248FFF730FE3220CDE9000502AA06
:10150000694682E8D0000E48FFF726FE4FF4D0402F
:10151000CDE9000502AA694682E8D0000948FFF734
:101520001BFE002205213D2000F01CF83D2000F0AC
:101530000BF807B0F0BD0000443802400000024044
:101540000008024000180240002809DB00F01F02DA
:10155000012191404009800000F1E020C0F8001115
:1015600070470000F0B40E4B1B680C46C3F3022317
:10157000C3F10705042D00D90425191D072901D23F
:10158000002300E0DB1E012606FA05F1491E21407A
:1015900099409E40761E16403143F0BC01F08EBB50
:1015A0000CED00E0064900F0070208684FF6FF0363
:1015B000184040EA0220034A1043086070470000C8
:1015C0000CED00E00000FA052DE9F0470E4605009D
:1015D00065D0DFF81481D8F80000F7B200F00700FA
:1015E000B04207D288F80070D8F8000000F0070079
:1015F000B04254D128683D4C810712D5400703D52D
:10160000206840F4E05020602878000703D5206867
:1016100040F4604020602068A96820F0F000084392
:1016200020602878C0072DD0304968680839012823
:1016300012D0022813D0032811D009688907002985
:101640002DDA216821F0030101432160FFF782FEBA
:10165000814641F2883A0EE009688903EFE709689C
:101660008901ECE7FFF776FEA0EB0901514502D9AD
:101670000320BDE8F0872068696800F00C00B0EB3B
:10168000810FEFD1D8F80010404601F00701B142B8
:1016900007D90770006800F00700B04201D00120B0
:1016A000E7E72878400705D52068E96820F4E0508E
:1016B000084320602878000706D52068296920F4AF
:1016C000604040EAC100206000F058F82168084AF4
:1016D000C1F30311515CC840064908600648006820
:1016E000FFF760FE0020C4E7003C024008380240DB
:1016F000D4EA00083C000020340000200F220260E1
:101700000C4A136803F003034360136803F0F0030B
:101710008360136803F4E053C36012684FF4E0532E
:1017200003EAD20202610448006800F00700086082
:101730007047000008380240003C02400448054958
:1017400000680968044AC1F38221515CC8407047AF
:101750003C00002008380240E4EA0008044805493B
:1017600000680968044AC1F34231515CC8407047BF
:101770003C00002008380240E4EA0008154810B593
:10178000006810F00C02144813D04110042A0FD046
:10179000082A0ED10F4C241F2268236802F03F0252
:1017A0005B0207D52068C0F38810A0FB010106E0AA
:1017B000084610BD2168C1F38811A1FB0001002378
:1017C000FEF760FD2168C1F30141491C4900B0FBEF
:1017D000F1F010BD083802400024F4002DE9F84F64
:1017E00004006ED02078DFF84C93C007A9F10405FF
:1017F0004AD009F104000168C1F38101012908D030
:101800000068C0F3810002280AD1D9F80000400224
:1018100006D52868800337D560680028E1D033E01A
:101820006068B0F5803F10D0B0F5A02F286810D0C8
:1018300020F480302860286820F4802028606068C8
:10184000A8B1FFF787FD06460DE0286840F4803018
:10185000F4E740F480202860F7E700BFFFF77AFD47
:10186000801B642873D828688003F7D50CE0FFF745
:1018700071FD064605E000BFFFF76CFD801B642884
:10188000F0D828688003F7D42078DFF8AC8280078E
:101890004FF0000A3ED5A748001D016811F00C0F5B
:1018A00008D00068C0F3810002280BD1D9F80000ED
:1018B000400207D42868800716D5E068012800D1C7
:1018C00012E033E1E068B8B10120C8F80000FFF78A
:1018D00041FD064605E000BFFFF73CFD801B0228E6
:1018E000C0D828688007F7D52868216920F0F8005B
:1018F00040EAC10028600DE0C8F800A0FFF72AFD0B
:10190000064604E0FFF726FD801B02281FD8286842
:101910008007F7D42078000722D5864F8748616971
:10192000703771B101210160FFF714FD064604E034
:10193000FFF710FD801B022809D838688007F7D50B
:101940000EE0C0F800A0FFF705FD064605E082E0C6
:10195000FFF700FD801B02287DD838688007F7D488
:101960002078400768D5DFF8CCB100270BF13C0B9D
:10197000DBF80000C0000BD4DBF8001041F0805110
:10198000CBF80010DBF80000012700F08050009039
:101990006B4E3068C00510D4306840F48070306001
:1019A000FFF7D8FC009005E0FFF7D4FC0099401A3F
:1019B000022850D83068C005F6D55E4EA0686C3657
:1019C00001280FD00528306810D020F001003060C9
:1019D000306820F004003060A068B8B1FFF7BAFCAE
:1019E00000900FE0306840F00100F4E740F00400A0
:1019F0003060F7E7FFF7AEFC0099411A41F28830FA
:101A0000814266D830688007F4D50EE0FFF7A2FC6B
:101A1000009007E0FFF79EFC0099411A41F28830E0
:101A2000814256D830688007F4D42FB1DBF800101B
:101A300021F08051CBF80010A069C8B33D49091DC1
:101A40000968C1F3810102294AD00228504607D013
:101A5000C8F8600000E03CE0FFF77CFC04463BE097
:101A60004746C8F86000FFF775FC064605E000BF72
:101A7000FFF770FC801B02282BD828688001F7D460
:101A8000D4E907010843A16A2E4A490802EB014143
:101A9000626A41EA8211084394F82C1040EA01611D
:101AA000C9F8001001203866FFF754FC044606E030
:101AB0003EE000BFFFF74EFC001B022809D8286853
:101AC0008001F7D534E000BFFFF744FC001B02287B
:101AD00002D90320BDE8F88F28688001F4D427E0FC
:101AE0000128F7D0D9F80000E26900F480019142A2
:101AF0001CD1226A00F03F01914217D147F6C07114
:101B0000626A0140B1EB821F10D1A26A4FF0FF332D
:101B100000F4403103EB5202B1EB024F06D194F8CE
:101B20002C1000F07060B0EB016F01D00120D1E704
:101B30000020CFE70438024000004742800E4742B1
:101B4000007000400000FFFF7047704710B590F82C
:101B50003C20012A22D0012280F83C20CA688C68EF
:101B600022F4407222434C6822F4806222430C68C3
:101B700022F4006222430C6922F4805222434C6911
:101B800022F400522243C969002322F480420A430E
:101B900001684A6480F83C30002010BD022010BD6E
:101BA00070B590F83C20012A32D0012480F83C40E6
:101BB000022280F83D2003685A689D6822F0700672
:101BC0000A6832435A60134B02689A4214D0B2F149
:101BD000804F11D0104B9A420ED0104B9A420BD02E
:101BE0000F4B9A4208D00F4B9A4205D00E4B9A42A7
:101BF00002D00E4B9A4204D1496825F08003194364
:101C0000916080F83D40002180F83C10084670BD8E
:101C1000022070BD000001400004004000080040A8
:101C2000000C00400004014000400140001800404A
:101C300010B5040003D094F83D0010B107E0012076
:101C400010BD002084F83C00204600F01FF8022060
:101C500084F83D00211D206800F094FD012084F8E7
:101C6000460084F83E0084F83F0084F8400084F881
:101C7000410084F8420084F8430084F8440084F86A
:101C8000450084F83D00002010BD000010B586B06E
:101C9000044614216846FEF760FB13492068884219
:101CA00020D112480021026842F00102026000685F
:101CB00000F0010005900D481438026842F002025D
:101CC0000260006800F0020005904FF48050009020
:101CD0000220CDE901010120CDE903106946044845
:101CE000FFF73AFA06B010BD000001404438024048
:101CF0000004024090F83D10012901D001207047F6
:101D0000022180F83D100168CA6842F00102CA60F1
:101D100000681149884214D0B0F1804F11D00F49AA
:101D200088420ED00E4988420BD00E49884208D016
:101D30000D49884205D00D49884202D00C4988429D
:101D400004D1816801F00701062903D0016841F040
:101D500001010160002070470000014000040040C4
:101D600000080040000C0040000401400040014019
:101D70000018004070B5044690F83C00002501288A
:101D800017D0012684F83C60022084F83D002068CA
:101D9000826822F0770222F47F428260086850282D
:101DA00038D00DDC20284FD005DC90B3102811D19D
:101DB0004AE0022070BD302846D040280AD13BE0DE
:101DC00060282FD070280DD0B0F5805F03D0B0F51B
:101DD000005F12D0012584F83D60002084F83C00AB
:101DE000284670BDCB68D1E90121206800F032FDA2
:101DF0002068816841F0770109E0CB68D1E90121D1
:101E0000206800F027FD2068816841F480418160EE
:101E1000E1E719E0CA684968206800F0EFFD502149
:101E2000206806E0CA684968206800F0F8FD602173
:101E3000206800F019FDCEE7CA684968206800F004
:101E4000DDFD40212068F4E7226801461046F0E7F6
:101E500070472DE9F04104460068C66805694FF0F7
:101E60000007A90713D5B10711D5F91E016101209B
:101E70002077206880698007204602D0FFF7E8FFBE
:101E800004E000F0E8F8204600F0A8F9277768079A
:101E900016D5700714D521686FF004000861022080
:101EA00020772068806910F4407F204602D0FFF739
:101EB000CFFF04E000F0CFF8204600F08FF927773D
:101EC000280715D5300713D521686FF00800086181
:101ED000042020772068C0698007204602D0FFF7E1
:101EE000B7FF04E000F0B7F8204600F077F9277755
:101EF000E80616D5F00614D521686FF010000861C9
:101F0000082020772068C06910F4407F204602D066
:101F1000FFF79EFF04E000F09EF8204600F05EF917
:101F20002777E80708D0F00706D021686FF0010096
:101F30000861204600F054F9280608D5300606D579
:101F400021686FF0800008612046FFF7FDFD6806FC
:101F500008D5700606D521686FF04000086120465C
:101F600000F048F9A8060AD5B00608D521686FF038
:101F7000200008612046BDE8F041FFF7E6BDBDE85E
:101F8000F0810000F0B587B0044614216846FEF7E2
:101F9000E4F91849206888422AD1174800240168CA
:101FA00041F002010160016801F002010591016840
:101FB00041F0010101600068022500F00100059078
:101FC0004FF46040CDE9000502AA0326012782E80C
:101FD000D00069460948FFF7BFF84FF4E060CDE94B
:101FE000000502AA694682E8D0000548FFF7B4F868
:101FF00007B0F0BD0000014030380240000402404C
:102000000000024070B5044690F83C00002501280D
:102010000FD0012084F83C006AB1042A0FD0082AAE
:1020200011D00C2A13D00125002084F83C0028464A
:1020300070BD022070BD206800F01EFCF4E720682F
:1020400000F04AFCF0E7206800F07CFCECE7206838
:1020500000F0ACFCE8E7704710B5040003D094F83A
:102060003D0010B107E0012010BD002084F83C00C5
:10207000204600F01EF8022084F83D00211D206853
:1020800000F080FB012084F8460084F83E0084F8CC
:102090003F0084F8400084F8410084F8420084F84E
:1020A000430084F8440084F8450084F83D00002093
:1020B00010BD704770B5044690F83C0000260D46F0
:1020C00001280FD0012084F83C006AB1042A1DD0F9
:1020D000082A2FD00C2A3FD00126002084F83C008B
:1020E000304670BD022070BD206800F0C5FB20683E
:1020F000816941F0080181612068816921F0040152
:102100008161206881692A69114311E0206800F02B
:10211000E3FB2068816941F4006181612068816985
:1021200021F480618161206881692A6941EA022184
:102130008161D2E7206800F005FC2068C16941F0A8
:102140000801C1612068C16921F00401C1612068F2
:10215000C1692A69114311E0206800F027FC20685A
:10216000C16941F40061C1612068C16921F48061E5
:10217000C1612068C1692A6941EA0221C161ACE7F5
:1021800010B5040003D094F83D0010B107E0012021
:1021900010BD002084F83C00204600F01EF802200C
:1021A00084F83D00211D206800F0ECFA012084F83D
:1021B000460084F83E0084F83F0084F8400084F82C
:1021C000410084F8420084F8430084F8440084F815
:1021D000450084F83D00002010BD704770470000A6
:1021E00000680349884201D1FFF7BAB87047000080
:1021F00000100040704770B5040004D094F841000E
:10220000002510B106E0012070BD84F84050204642
:1022100000F024F8242084F841002068C16821F4EB
:102220000051C160204600F00DFC2068016921F4D6
:10223000904101612068416921F02A0141612068D3
:10224000C16841F40051C1606564202084F84100F8
:1022500084F842006563002070BD000010B586B0B0
:10226000044614216846FEF778F81349206888422E
:1022700020D112480021026842F01002026000687A
:1022800000F0100005900D481438026842F0020278
:102290000260006800F002000590C020009002205B
:1022A000CDE901010320039007200490694604480A
:1022B000FEF752FF06B010BD001001404438024046
:1022C00000040240FEE7000010B5044A0021044863
:1022D00004F0A8FA0349086010BD0000A4EA000851
:1022E000A9260008000000202DE9F04387B0142142
:1022F0006846FEF732F843480025016841F01001B6
:102300000160016801F010010591016841F48071DC
:102310000160016801F480710591016841F00401D8
:102320000160016801F004010591016841F020019C
:102330000160016801F020010591016841F0800110
:102340000160016801F080010591016841F001011F
:102350000160016801F001010591016841F002018D
:102360000160016801F002010591016841F040013E
:1023700001600068012200F04000234F1602059022
:1023800031463846FEF7E0FFDFF88080002240F259
:1023900001414046FEF7D8FFDFF874900122032187
:1023A0004846FEF7D1FF1C20CDE90005012469460F
:1023B00002944846FEF7D0FECDE9006469463846EF
:1023C000CDE90245FEF7C8FE022003950094CDE951
:1023D000014069464046FEF7BFFEA0028DE831008D
:1023E000694640460395FEF7B7FE0320CDE9000499
:1023F00069464846CDE90245FEF7AEFE07B0BDE8A6
:10240000F0830000303802400020024000140240F7
:1024100000100240FEB54F4CC020251D2070A820A2
:1024200060707320A0701E20E070FF20287068701C
:102430000027A8702E1DEF7037707770B770F77097
:10244000394638460AF05CFD208841BA0A04A17872
:1024500042EA0123E27844BA2404134344EA012403
:102460001B06A4B243EA042344BA40BA000440EA7B
:102470000120E4B243EA04231043A5F1100143EA2A
:1024800010600860288841BA0A04A97844BA42EA70
:102490000123EA782404134344EA01241B06A4B26E
:1024A00043EA042344BA40BA000440EA0120E4B2FB
:1024B00043EA04231043A5F10C0143EA10600860CD
:1024C000308841BA0A04B17844BA42EA0123F2786A
:1024D0002404134344EA01241B06A4B243EA042360
:1024E00044BA40BA000440EA0120E4B243EA0423BB
:1024F000104343EA1060A5F10801A5F10803086044
:10250000154816490097CDE901101A1F111F1448EC
:1025100003F012FC124803F029FE114803F03AFFC1
:1025200010490F4803F07CFE0D4824213430FDF79C
:1025300014FF0B480CA13430024601604FF4806157
:1025400041611021816103B00549BDE8F0400848B0
:1025500004F068B924000020D1D00008ED3D000847
:10256000384E0020E13C00084574684C696E6B00F1
:10257000E33C000830B595B000240F9410941194FA
:10258000129413941C2168461494FDF7E6FE202152
:1025900007A8FDF7E2FE34483249C0E900142021C3
:1025A000816041F26701C0E9031444618461FFF76F
:1025B0003FFB08B1FEF700FA4FF480550FA92A48F7
:1025C0000F95FFF7D7FB08B1FEF7F6F92648FFF79E
:1025D000D7FD08B1FEF7F0F92348FFF73DFD08B13C
:1025E000FEF7EAF9139413A91F481494FFF7D8FAD9
:1025F00008B1FEF7E1F96020CDE9000402940394EC
:10260000049405940022694617480694FFF752FD8A
:1026100008B1FEF7D1F9042269461348FFF74AFDD5
:1026200008B1FEF7C9F9082269460F480094FFF780
:10263000E9FC08B1FEF7C0F9079454200894CDE9ED
:1026400009404FF400500E94CDE90B5007A90648FD
:10265000FFF77CFA08B1FEF7AFF90348FFF792FCE9
:1026600015B030BD00000140940100200C4810B5A9
:102670000A4901604FF4E1314160002181600C2280
:10268000C160C0E904128161C161FFF7B4FD002897
:1026900003D0BDE81040FEF78FB910BD0010014017
:1026A000DC010020FEE7FEE7FFF7B4FE012003F0A7
:1026B000C1FEFBE710B54FF0E02000690BF0F8FF1A
:1026C000012803D0BDE810400BF014BB10BD000082
:1026D00030B593B030216846FDF73FFE14210CA8B9
:1026E000FDF73BFE1E480025016841F08051016066
:1026F000006800F0805011901A48016841F4804150
:1027000001600068022400F48040119001200090D4
:10271000000401908001CDE90640082008904FF4A4
:10272000A870CDE9090404200B906846FFF756F81D
:1027300008B172B6FEE70CA90F2081E831004FF412
:10274000A0500F904FF48050109005210CA8FEF778
:102750003BFF002801D072B6FEE713B030BD000089
:1027600040380240007000400248016841F47001A6
:102770000160704788ED00E00148FFF76ABB000088
:1027800024020020F0B50268274B284D284E294F1F
:10279000294C4FF0804C984209D0604507D0A842A0
:1027A00005D0B04203D0B84201D0A04204D122F0FB
:1027B000700E4A6842EA0E0298421BD0604519D05A
:1027C000A84217D0B04215D0B84213D0A04211D0C1
:1027D0001A4DA8420ED01A4DA8420BD0194DA8424E
:1027E00008D0194DA84205D0184DA84202D0184D66
:1027F000A84203D122F44075CA682A434D6922F0E9
:1028000080022A438D68C5620D688562984201D0B6
:10281000A04201D109690163016841F0040101602E
:10282000012141610260F0BD000001400004004050
:1028300000080040000C004000040140004001403E
:10284000004401400048014000180040001C0040C6
:102850000020004010B5846842EA032224F47F443B
:102860000A432243826010BD826822F070020A434C
:1028700042F0070181607047F0B5036A026A22F0F6
:102880000102026242688469124E24F073050C68EA
:102890002C4323F002058B682B430D4DA84201D039
:1028A000B04205D123F00807CB683B4323F0040373
:1028B000A84201D0B04205D14D6922F440721543BF
:1028C0008A692A4342608461496841630362F0BDBA
:1028D0000000014000040140F0B5026A036A23F0E1
:1028E00010030362436884690D6824F4E64444EAF3
:1028F00005248D6822F0200242EA05120F4D104E89
:10290000A84201D0B04206D1CF6822F0800242EA4C
:10291000071222F04002A84201D0B04207D14D690F
:1029200023F4406343EA85038D6943EA85034360EA
:102930008461496881630262F0BD000000000140CB
:1029400000040140F0B5026A036A23F48073036255
:102950004368C46922F4007224F073050C68124EB7
:102960002C438D6842EA05220E4DA84201D0B042A8
:1029700006D1CF6822F4006242EA072222F4806284
:10298000A84201D0B04207D14D6923F4405343EA35
:1029900005138D6943EA05134360C4614968C16347
:1029A0000262F0BD000001400004014030B5046A3D
:1029B000026A22F4805202624268C3690D6823F4FD
:1029C000E64343EA05238D6824F4005444EA0534C1
:1029D000084DA84202D0084DA84204D14D6922F406
:1029E000804242EA85124260C36149680164046220
:1029F00030BD0000000001400004014010B5036A32
:102A0000046A24F001040462846924F0F00444EAB6
:102A1000021423F00A020A438461026210BD10B559
:102A2000036A046A24F010040462846923F0A0039A
:102A300024F4704444EA023243EA011182610162E3
:102A400010BD000070B5044600680169E26821F419
:102A50004051114301612169A068E269084361693D
:102A6000114308432168CA6849F20C639A43024340
:102A7000CA6020684169A26921F440711143416133
:102A800031492068884202D03049884202D1FEF79D
:102A900065FE01E0FEF752FEE2690023192164257C
:102AA0003226B2F5004F626828D0A0FB0101930FD7
:102AB0009200FDF7E7FB0146B0FBF5F06FF018025E
:102AC000504301EB800006EB0010B0FBF5F000F086
:102AD000F002B1FBF5F002EB0012B1FBF5F06FF084
:102AE0001803584301EB800006EB0010B0FBF5F033
:102AF00000F00F0021681044886070BDA0FB010148
:102B000092185B41FDF7BEFB0146B0FBF5F00201F8
:102B1000B1FBF5F06FF01803584301EB800006EBB2
:102B2000C000B0FBF5F000F0F80002EB4002B1FB92
:102B3000F5F0584301EB800006EBC000B0FBF5F068
:102B400000F00700D6E7000000100140001401402B
:102B5000F8B504460020009063696A4601212068A8
:102B600098476FF00406002838DB63696A46012144
:102B700020689847002831DB0098400743D56369F7
:102B80006A46002120689847002827DB0098C10486
:102B900008D44FF40451814327D0810429D4C005BF
:102BA0002BD42EE063696A460121206898470028EB
:102BB00014DB0098800601D40620F8BD63696A46DC
:102BC000042120689847002808DB0098636985B2D3
:102BD0006A46052120689847002801DA3046F8BD8A
:102BE000009880B20540E80501D50220F8BD28060E
:102BF00001D50320F8BD680601D50420F8BDA8065C
:102C000001D50520F8BD0120F8BD2DE9F8430446A3
:102C10000020054606460090606808BBA06800B129
:102C2000804720206FF004074FF6FF78206063692B
:102C30006A46022128469847002801DA3E4607E006
:102C40000099414504D0002625601F2D06D809E0D3
:102C50006D1C1F2DEBD925681F2D02D96FF00206C0
:102C600002E00EB9012060603046BDE8F88388B10B
:102C7000CA687AB18A686AB10A695AB10A68826018
:102C80004A68C260CA6842618A68026109698161F2
:102C9000002070474FF0FF307047FEE70FB4054B40
:102CA00010B503A9044A029800F028F810BC5DF89A
:102CB00014FB0000C53E0008900100200907090E22
:102CC000002804DB00F1E02080F80014704700F0D9
:102CD0000F0000F1E02080F8141D704702E008C8E2
:102CE000121F08C1002AFAD170477047002001E086
:102CF00001C1121F002AFBD1704700002DE9FF4FD0
:102D00008BB09A460F460546002606E025280BD0D4
:102D100052460D9990476D1C761C28780028F5D1F5
:102D20000FB03046BDE8F08F0024A0460122604974
:102D300000E0044315F8013F203B02FA03F008428B
:102D4000F7D128782E2817D115F8010F44F0040484
:102D50002A280ED06FF02F022878A0F1300109291F
:102D60000AD808EB880102EB410100EB01086D1C59
:102D7000F2E757F8048B6D1C287869283ED006DCF2
:102D80000028CDD063280BD0642804D136E0732806
:102D900010D075284BD052460D999047761C85E08F
:102DA00017F8040B8DF8000000208DF80100E946AB
:102DB000012003E057F8049B4FF0FF3061074FF00C
:102DC000000401D40AE0641C44450DDA8442FADBB5
:102DD00019F804100029F6D106E0641C8442FCDBDB
:102DE00019F804100029F8D1264404E019F8010B61
:102DF00052460D999047641EF8D257E001CF4FF02C
:102E00000A0B002802DA40422D2102E0210504D5F8
:102E10002B218DF82410012103E0E10705D02021AA
:102E2000F7E70DF1200908910CE00021F9E701CF47
:102E30004FF00A0BF9E75946FDF7A7FA01F1300206
:102E400009F8012D0028F6D1ADEB090000F1200BA7
:102E5000600701D44FF00108D84502DDA8EB0B0054
:102E600000E000208046002406E009A85246005DEC
:102E70000D999047641C761C08988442F5DB04E0A9
:102E8000302052460D999047761CB8F10001A8F108
:102E90000108F5DC05E019F8010B52460D99904741
:102EA000761CBBF10001ABF1010BF4DC6D1C34E7C7
:102EB0000928010070B505460C46880706D009A30D
:102EC0004FF4B67213A11BA0FFF7E8FE05F006F958
:102ED000A96809682160A9680C60BDE8704005F028
:102EE00009B900002E2E2F4D6964646C65776172FC
:102EF00065732F54686972645F50617274792F4CE6
:102F00007749502F7372632F636F72652F6D656DF4
:102F1000702E63006D656D705F667265653A206D39
:102F2000656D2070726F7065726C7920616C696775
:102F30006E656400417373657274696F6E2022253B
:102F40007322206661696C6564206174206C696E0F
:102F50006520256420696E2025730A0070B504463B
:102F600005F0BCF80546A0680468002C0FD0216865
:102F70000160A00706D008A34FF48C7212A11BA019
:102F8000FFF78CFE284605F0B5F8204670BD2846B0
:102F900005F0B0F8002070BD2E2E2F4D6964646CD2
:102FA0006577617265732F54686972645F506172EE
:102FB00074792F4C7749502F7372632F636F72654A
:102FC0002F6D656D702E63006D656D705F6D616C4A
:102FD0006C6F633A206D656D702070726F706572F2
:102FE0006C7920616C69676E65640000417373657C
:102FF0007274696F6E2022257322206661696C6588
:1030000064206174206C696E6520256420696E20DF
:1030100025730A0070B5094D0646002404EB4400F0
:1030200005EBC000017D29B18068B04202D1204685
:1030300000F036F9641C0A2CF0DB70BD6CCE002069
:103040002DE9F74F84B04FF00A0B00240646DA460C
:103050005F46D94602940194CDF80040514904EBF3
:10306000440001EBC008039098F814500A2F1DD0BB
:10307000002D2AD0012D08D0022D06D24AA340F2FD
:10308000231257A166A0FFF709FE9EB13168D8F858
:10309000040081420ED1069820B1D8F80810069895
:1030A000814207D1204607B0BDE8F08F002DE1D165
:1030B00027460AE0012D16D0022D06D3B8F81200DB
:1030C0000099884201D3A2460090641C24B20A2CC5
:1030D000C4DB059881074FF0FF30E4D40A2F16D0E7
:1030E00018DA3C463EE02F49039851F8300000289A
:1030F000B8F8120005D002998842E6D3A1460290A2
:10310000E3E701998842E0D3A3460190DDE7059902
:10311000C907C8D05146BAF10A0F0EDA0C46214849
:1031200001EB440150F8310080B11FA340F26D1251
:1031300045A13BA0FFF7B2FD08E05946BBF10A0FDD
:1031400003DB4946B9F10A0FADDA0C460A2C06DB5F
:1031500015A340F27F1242A131A0FFF79FFD204648
:1031600000F09EF80A2C06DB0FA340F283123CA16C
:103170002BA0FFF793FD0B4804EB440100EBC105C6
:10318000287D30B108A34FF4C2723AA124A0FFF702
:1031900085FD0EB130686860002068820698A860DE
:1031A00080E700006CCE00202E2E2F4D6964646CE9
:1031B0006577617265732F54686972645F506172DC
:1031C00074792F4C7749502F7372632F636F726538
:1031D0002F697076342F6574686172702E630000F9
:1031E0007374617465203D3D204554484152505FE1
:1031F00053544154455F50454E44494E47207C7CD2
:10320000207374617465203E3D20455448415250FE
:103210005F53544154455F535441424C45000000B4
:10322000417373657274696F6E2022257322206664
:1032300061696C6564206174206C696E6520256429
:1032400020696E2025730A006172705F7461626C80
:10325000655B695D2E71203D3D204E554C4C000054
:1032600069203C204152505F5441424C455F5349D4
:103270005A4500006172705F7461626C655B695DE4
:103280002E7374617465203D3D2045544841525071
:103290005F53544154455F454D5054590000000060
:1032A00070B5074C00EB4005002654F8350018B106
:1032B00003F06EFF44F8356004EBC500067570BD81
:1032C0006CCE00202DE9F04385B00D00074609D0F3
:1032D0007C684FF480782088404539D120790628D1
:1032E00036D109E01CA340F28A2229A12CA0FFF7C5
:1032F000D5FC05B0BDE8F0836079042828D160884A
:10330000082825D1D4F80E000490A169686820B17E
:10331000814202D10126334601E00026022304F156
:103320000802914604A9284600F0A2FBE088404527
:103330000ED16EB1022204ABCDE90232291DCDE9D6
:10334000001905F1260319464A46284600F090FA6E
:10335000384603F01DFFCCE72E2E2F4D6964646CB8
:103360006577617265732F54686972645F5061722A
:1033700074792F4C7749502F7372632F636F726586
:103380002F697076342F6574686172702E63000047
:103390006E6574696620213D204E554C4C0000003E
:1033A000417373657274696F6E20222573222066E3
:1033B00061696C6564206174206C696E65202564A8
:1033C00020696E2025730A00FEB515460E460400DE
:1033D00006D143A340F21E324FA153A0FFF75EFC7B
:1033E00036B93FA340F21F3259A14FA0FFF756FC58
:1033F00035B93BA34FF4487258A14BA0FFF74EFCE0
:103400002146286800F0ECFE08B1584B3FE02868E0
:10341000C0F303110E2925D0A168636800EA0102F8
:103420000B409A4208D080B2A0F57E41A93903D062
:10343000E068B0B304F10C054D4B4E481A7802EB2E
:10344000420100EBC1010F7D022F2ED38F68A742EE
:103450002BD12F6849688F4227D13146204600F092
:103460008BF8FEBD01208DF8040000208DF80500CA
:103470005E208DF80600687801AB00F07F008DF8C3
:103480000700A8788DF80800E8788DF809004FF457
:103490000060009004F126023146204600F02AFC2C
:1034A000FEBDFFE76FF00300FAE7002202EB4201E6
:1034B00000EBC1010F7D022F08D38F68A74205D111
:1034C0002F6849688F4201D11A70C6E7521CD2B2E8
:1034D0000A2AEBD332462946204600F0D5F8DFE72A
:1034E0002E2E2F4D6964646C6577617265732F545D
:1034F000686972645F50617274792F4C7749502FFC
:103500007372632F636F72652F697076342F6574E1
:10351000686172702E6300006E6574696620213DDB
:10352000204E554C4C000000417373657274696FF6
:103530006E2022257322206661696C6564206174A7
:10354000206C696E6520256420696E2025730A0051
:103550007120213D204E554C4C0000006970616483
:10356000647220213D204E554C4C0000ECEA0008CE
:103570007C0100206CCE00202DE9F843064615465C
:1035800088461C4802EB450100EBC104207D02285F
:1035900006D219A340F2EE2225A131A0FFF77EFB4F
:1035A000144A05EB4501207D02EBC1050C350228CC
:1035B00013D1608A0327B0F58E7F04D9211D3046D0
:1035C00000F010FA07E0B0F5877F06D32A46211DE8
:1035D000304600F00DFA00B927754FF400600090F6
:1035E0002B4606F126024146304600F083FBBDE83B
:1035F000F88300006CCE00202E2E2F4D6964646C81
:103600006577617265732F54686972645F50617287
:1036100074792F4C7749502F7372632F636F7265E3
:103620002F697076342F6574686172702E630000A4
:103630006172705F7461626C655B6172705F696416
:10364000785D2E7374617465203E3D204554484179
:1036500052505F53544154455F535441424C4500CE
:10366000417373657274696F6E2022257322206620
:1036700061696C6564206174206C696E65202564E5
:1036800020696E2025730A002DE9FC5F82462630F2
:1036900001900E46086814464FF0FF374FF0000BBC
:1036A000514600F09DFD80B93068C0F303110E292A
:1036B0000BD056B148B1524601213046FFF7C0FC4D
:1036C000050005D540B2BDE8FC9F6FF00F00FAE79A
:1036D0007F2D06D337A340F2C13244A147A0FFF7A4
:1036E000DDFA05F0FF094F4909EB490801EBC80570
:1036F000287D00280ED0012808D0022806D22DA34C
:1037000040F2CD3248A13DA0FFF7C8FABBF1000F4F
:1037100006D104E001202875C5F808A000E034B9FE
:103720003146504600F05EF90746002CCBD0287D8C
:103730003C4E02280ED346494FF4006005F10C03BD
:1037400081F80090009021465046019A00F0D2FA8C
:1037500007462DE001282BD1254640F2F137688934
:103760002989884207D1286828B112A33A4639A18D
:1037700022A0FFF793FA287B400607D522464FF494
:1037800020710E2003F03AFB044605E02D68002D61
:10379000E5D1204603F090FE44B156F8380008B158
:1037A00003F0F6FC46F83840002701E04FF0FF3701
:1037B000384688E72E2E2F4D6964646C65776172F8
:1037C00065732F54686972645F50617274792F4C0D
:1037D0007749502F7372632F636F72652F6970760C
:1037E000342F6574686172702E630000747970659F
:1037F000206F766572666C6F7700000041737365A9
:103800007274696F6E2022257322206661696C656F
:1038100064206174206C696E6520256420696E20C7
:1038200025730A006CCE00206172705F7461626C57
:10383000655B695D2E7374617465203D3D20504564
:103840004E44494E47206F7220535441424C45002C
:103850007C0100206E6F207061636B657420717550
:103860006575657320616C6C6F776564210000007D
:103870002DE9FF4F81B09846DDE90FA9DDF838B09A
:1038800006004FF0000706D12CA340F2574239A1A1
:103890003CA0FFF703FA4FF420721C210E2003F026
:1038A00069F8050046D068891C2806D223A340F297
:1038B00062423EA133A0FFF7F1F96C68119801F064
:1038C00049FDE08096F82C00062806D01BA340F2A4
:1038D000694243492BA0FFF7E1F9D8F80010A16035
:1038E000B8F80400A081DAF80010C4F81210BAF891
:1038F0000400E082DBF80000C4F80E00D9F80000F4
:10390000A0614FF480702080082060800620207124
:103910000420607140F60600DDE90223009029468C
:10392000304600F0E7F9284603F032FC384605B08F
:10393000BDE8F08F4FF0FF30F9E700002E2E2F4D3D
:103940006964646C6577617265732F546869726429
:103950005F50617274792F4C7749502F7372632FC7
:10396000636F72652F697076342F65746861727049
:103970002E6300006E6574696620213D204E554C13
:103980004C000000417373657274696F6E202225CC
:103990007322206661696C6564206174206C696EB5
:1039A0006520256420696E2025730A0063686563BD
:1039B0006B2074686174206669727374207062751C
:1039C000662063616E20686F6C6420737472756327
:1039D00074206574686172705F6864720000000032
:1039E00014ED0008014A00F003B80000ECEA0008FA
:1039F0007FB5064D031D0124CDE90035CDE9021444
:103A000022331946FFF734FF04B070BDF2EA000814
:103A100070B5164D002400BF04EB440005EBC00256
:103A2000117DF1B1508A401C80B25082B0F5967F72
:103A30000AD2012906D003290AD004290AD0012973
:103A40000BD00EE0052808D32046FFF729FC08E03C
:103A5000042000E00220107503E0111D9068FFF7BC
:103A6000C1FF641C0A2CD7DB70BD00006CCE0020A7
:103A7000F8B5044690F82C001F4616460D46062859
:103A800006D020A340F2A9122CA135A0FFF706F919
:103A90009DB1286888B1214600F0A2FB68B928785A
:103AA000C0F303100E2808D0224639462846FFF7F7
:103AB000C7FA002804DA40B2F8BD6FF00F00F8BD75
:103AC00000EB40013048022300EBC1021375946003
:103AD0003368D360B38813820023538250F8315087
:103AE00075B140F831304FF400600090334604F176
:103AF00026022946204600F0FDF8284603F048FB40
:103B00000020F8BD2E2E2F4D6964646C65776172BC
:103B100065732F54686972645F50617274792F4CB9
:103B20007749502F7372632F636F72652F697076B8
:103B3000342F6574686172702E6300006E6574695D
:103B4000662D3E6877616464725F6C656E203D3DF2
:103B5000204554485F4857414444525F4C454E000D
:103B6000417373657274696F6E202225732220661B
:103B700061696C6564206174206C696E65202564E0
:103B800020696E2025730A006CCE00202DE9F041DB
:103B9000044640890E270D460E283CD9E07B18B913
:103BA00095F83000401CE073606801788689CA0788
:103BB00014D0012905D006221C49FCF7D9FB48B1D5
:103BC0000CE0417851B980785E2807D1607B40F0E5
:103BD000100002E0607B40F008006073082E03D004
:103BE000B6F5C16F17D10DE095F82D00000712D57D
:103BF0003946204603F0AEFC68B92946204600F05D
:103C000037FC10E095F82D00000704D53946204612
:103C100003F0A0FC18B1204603F0BAFA03E02946ED
:103C20002046FFF74FFB0020BDE8F081ECEA0008DA
:103C300070B59AB0064664216846FCF78EFB2648AC
:103C4000FEF786FF254D0446012811DC96F82D006D
:103C5000400709D520482030FDF7C4F9304602F06E
:103C60008BFA304602F0E0FA012068601AB070BDAD
:103C7000062CFBD096F82D00400706D56868A042B8
:103C8000F4D015482030FDF7ADF9134869462030CF
:103C9000FCF7BAFE4FF48041022C08D00020032C20
:103CA00003D00590042C03D004E0059102E00591B7
:103CB0004FF400600690084869462030FDF73BF954
:103CC00005482030FDF744F9304602F063FB3046EA
:103CD00002F000FB6C60C9E7304D002004000020BA
:103CE000704704462046FFF7A3FF642002F0A2FBC2
:103CF000F8E700002DE9F04104461F4690460E46C5
:103D0000069801F027FB05460E21304602F0CFFD54
:103D100018B16FF00100BDE8F081706885813968E5
:103D20000160B9888180D8F80020C0F80620B8F872
:103D30000410418194F82C00062806D006A34FF405
:103D4000997213A11FA0FEF7A9FF31462046A26970
:103D5000BDE8F041104700002E2E2F4D6964646CC1
:103D60006577617265732F54686972645F50617220
:103D700074792F4C7749502F7372632F6E65746975
:103D8000662F65746865726E65742E6300000000AE
:103D90006E657469662D3E6877616464725F6C65F8
:103DA0006E206D757374206265203620666F7220F8
:103DB00065746865726E65745F6F75747075742173
:103DC00000000000417373657274696F6E202225D4
:103DD0007322206661696C6564206174206C696E71
:103DE0006520256420696E2025730A0010B5040043
:103DF00006D10BA340F2D71210A114A0FEF74EFF7C
:103E0000732084F82E00742084F82F001948606114
:103E10001948A061204601F073F9002010BD000090
:103E20002E2E2F4C5749502F5461726765742F65A1
:103E3000746865726E657469662E63006E65746978
:103E40006620213D204E554C4C00000041737365A7
:103E50007274696F6E2022257322206661696C6519
:103E600064206174206C696E6520256420696E2071
:103E700025730A00C93300086D52000808B50F4DBC
:103E800004464FF0FF3800274146A86802F024FCA2
:103E90000028F9D10097287818B969460848FCF736
:103EA00039FF009E002EEFD0226921463046904710
:103EB0000028EFD0304603F06BF9EBE70400002058
:103EC000504D002038B504468DF8000069460320A7
:103ED000ABBE204638BD0A46032100F0F5B800000D
:103EE0002DE9FE4F8A4644490446D1F8088098F8E7
:103EF00000000007850E142D79D36089042876D33D
:103F000060680078002872D0082870D1486901F1F3
:103F10001407C0F303120E2A69D08946096800F01D
:103F20005FF9002863D12089082860D305F10E01CC
:103F30000E46204602F0BBFC002830D020894119F3
:103F400089B2884253D84FF420720E2002F012FD3D
:103F500006004CD0718905F10800814216D32A462B
:103F600041467068FCF7D2F92946304603F0F2FA70
:103F7000002806D021A3B6222EA13CA0FEF78EFE7B
:103F800004E02146304602F087FF18B1304603F0C6
:103F9000FFF82CE0204603F0FBF834460CE03146F5
:103FA000204603F0D7FA002806D014A3C72239A16F
:103FB0002EA0FEF773FE1AE029462046666802F03E
:103FC00076FCA0B960683968FF22C160D9F810108A
:103FD00001610021317071800272418101228DE8FE
:103FE00006040A46FF233946204600F011FB20460E
:103FF000BDE8FE4F03F0CCB8649700202E2E2F4D65
:104000006964646C6577617265732F546869726462
:104010005F50617274792F4C7749502F7372632F00
:10402000636F72652F697076342F69636D702E63CC
:104030000000000069636D705F696E7075743A20EE
:104040006D6F76696E6720722D3E7061796C6F615D
:104050006420746F2069636D7020686561646572A7
:10406000206661696C65640A000000004173736535
:104070007274696F6E2022257322206661696C65F7
:1040800064206174206C696E6520256420696E204F
:1040900025730A0069636D705F696E7075743A20EC
:1040A000726573746F72696E67206F726967696E8B
:1040B000616C20702D3E7061796C6F616420666167
:1040C000696C65640A0000002DE9FF479146884647
:1040D00006464FF420722421222002F04BFC0500FA
:1040E00031D06889242806D218A34FF4B47225A1D0
:1040F0002FA0FEF7D3FD6C6877681C2284F800803F
:1041000084F801904FF00008A4F80480A4F8068019
:10411000686871680830FCF7F9F8F868039003A83C
:1041200000F086FC60B1A4F802800122CDF8008086
:10413000CDE90120FF2303AA0021284600F068FAF8
:10414000284603F025F8BDE8FF8700002E2E2F4DEE
:104150006964646C6577617265732F546869726411
:104160005F50617274792F4C7749502F7372632FAF
:10417000636F72652F697076342F69636D702E637B
:1041800000000000636865636B20746861742066DA
:104190006972737420706275662063616E20686F47
:1041A0006C642069636D70206D6573736167650071
:1041B000417373657274696F6E20222573222066C5
:1041C00061696C6564206174206C696E652025648A
:1041D00020696E2025730A000A460B21FFF774BF81
:1041E000421C12D088B191F82D2092070BD54B6854
:1041F000834208D0896800EA01020B409A4202D14A
:104200000143491C01D00020704701207047000085
:104210002DE9F74F88B00446099800251426808CB4
:10422000AF1F1438C11700EB5170C0F3CF000390DB
:1042300060680690017801F00F01052903D0384627
:104240000BB0BDE8F08F6189142907D25BA34FF44E
:104250003F7269A16FA0FEF721FDF0E7C08801F071
:1042600079F8C0F30C0100F4005002910790208906
:1042700014381FFA80F88EE003984FF6FF7101EAB8
:10428000C0004146404500D9084604904FF42072D2
:1042900014210E2002F06EFB5FEA000A7ED0BAF80D
:1042A0000A00142806D245A34FF4497263A159A00D
:1042B000FEF7F4FC1422DAF804000699FCF726F85D
:1042C000DAF804000590049F35E06089811B8DB207
:1042D000B04206D239A340F22D3260A14DA0FEF7C4
:1042E000DDFCAF4200D23D461DB3052001F08CFC41
:1042F0005FEA000957D060684B463044CDE90005BD
:1043000041222946002002F0BBFC5FEA000B50D09E
:10431000204603F0D1F85549C9E9041459465046DE
:1043200002F0CAFC781B07043F0C06D00026246864
:10433000CBE724680026002FC7D1701986B20998F0
:10434000808C143840450298C0F30C0001DB0799BB
:1043500009B140F4005000F0FDFF0599C8800498B1
:10436000143080B200F0F6FF0599488005980021CE
:104370004181099851460A9A43699847504602F08C
:1043800007FF0499A8EB01001FFA80F8DDE902019C
:10439000084480B20290B8F1000F00E006E07FF41C
:1043A0006BAF00204CE7504602F0F2FE4FF0FF30BA
:1043B00046E7484600F06CFBF5E700002E2E2F4D37
:1043C0006964646C6577617265732F54686972649F
:1043D0005F50617274792F4C7749502F7372632F3D
:1043E000636F72652F697076342F6970345F6672FF
:1043F00061672E63000000006970345F6672616758
:1044000028293A207062756620746F6F2073686F78
:1044100072740000417373657274696F6E20222597
:104420007322206661696C6564206174206C696E1A
:104430006520256420696E2025730A0074686973FD
:10444000206E656564732061207062756620696EF8
:10445000206F6E652070696563652100702D3E6C6C
:10446000656E203E3D20706F666600006950000852
:104470002DE9F047456807460E4628780421B1EB40
:10448000101F03D0384602F083FE77E000074FEAA2
:104490009068688800F05EFF04463889A04203D91E
:1044A0002146384602F06EFF79894145EAD33889C2
:1044B000A042E7D3B8F1140FE4D32969DFF81C91C7
:1044C000C1F303100E28C9F81410EA68C9F81020C7
:1044D00005D0304600F086F850B1344619E096F821
:1044E0002D00C00702D070680028F6D1002410E02B
:1044F00099F8140000247F280BD03948046806E09E
:10450000B44203D0204600F06DF810B92468002CA6
:10451000F6D13146D9F81000FFF762FE0028B1D17C
:1045200099F81000C0F303100E28ABD0002CA9D0CE
:10453000E88830F0C00005D0384600F035F90700B3
:104540001CD07D68C9F80850C9E90046297838466A
:104550000907890EA9F80C10414602F0FBFF687AA2
:10456000012818D0062811D011280AD04D4621461E
:10457000D9F81400FFF734FE90B11EE00020BDE82A
:10458000F0873146384608F019FF19E031463846C1
:1045900004F0BEFD14E031463846FFF7A1FC0FE001
:1045A000287DC0F303100E2807D04146384602F09C
:1045B000D1FE02213846FFF78EFC384602F0E8FDB6
:1045C0000021C9F80010C9F80410C9F80810A9F8AA
:1045D0000C10C9F81010C9F81410CFE76497002028
:1045E0001801002010B590F82D10C9070CD04168B3
:1045F00051B1064A52698A4204D001461046FFF77B
:10460000EFFD08B1012010BD002010BD649700200F
:10461000FEB5DDE90954089E1AB109B10F6807B962
:10462000211D0096CDE9015400F002F8FEBD000006
:104630002DE9F84F0546DDE90BA8807BDDF828B0B1
:104640001F4616468946012806D02FA34FF45572FF
:104650003AA13DA0FEF722FB6FF00104002E35D0F9
:104660001421284602F023F9002832D168896C68A9
:10467000142806D224A34FF462723DA132A0FEF7A3
:104680000DFB277284F809A0306820614520207056
:1046900084F801B0288900F05DFE414F60804FF042
:1046A000000AA4F806A0388800F054FEA0803888DC
:1046B000401C3880B9F1000F05D0D9F80000E06047
:1046C000A4F80AA00CE037480068F8E768891428C5
:1046D00002D22046BDE8F88F68686E4600690090F7
:1046E000B8F8240040B12989814205D932464146B3
:1046F0002846FFF78DFDEDE7D8F8143040463246E6
:1047000029469847E6E700002E2E2F4D6964646C19
:104710006577617265732F54686972645F50617266
:1047200074792F4C7749502F7372632F636F7265C2
:104730002F697076342F6970342E6300702D3E72AD
:104740006566203D3D203100417373657274696F69
:104750006E2022257322206661696C656420617475
:10476000206C696E6520256420696E2025730A001F
:10477000636865636B207468617420666972737422
:1047800020706275662063616E20686F6C642073B0
:1047900074727563742069705F6864720000000051
:1047A0007E01002034EC00082DE9F05F4568834667
:1047B000287800F00F0005287DD1E88800F0CAFDB8
:1047C000C004070C688800F0C5FD29780907890E28
:1047D000814270D8401A1FFA80F8584602F004FB54
:1047E0006A4C0646208830440A2809D931462846B2
:1047F00000F0E4FB00285ED0208830440A28E8D886
:10480000A14664684FF0000A0CE06069E9688842DC
:1048100007D1A0692969884203D1A089A988884263
:1048200003D02468002CF0D106E02CB1E88800F019
:1048300091FDC0041BD025E0042001F0E5F904003F
:104840000AD13146284600F0B9FBB04233DB0420E0
:1048500001F0DAF90400CED02021FBF77EFD0F2015
:10486000E077D9F804102160C9F8044004E0E08939
:1048700000F070FDC00405D01422294604F10800A0
:10488000FBF744FDA87940F340156D1C08D007EBF9
:10489000080080B2B84263D34FF6EB7188425FD80C
:1048A0002A465946204600F03BF9411C58D0B9F839
:1048B0000020324400E064E0A9F8002035B107EBA5
:1048C0000801A183A17F41F00101A177012845D111
:1048D000A08B1422143087B2606804F10801456887
:1048E00028462E68FBF712FD384600F033FD68803D
:1048F000A5F806A0A5F80AA0656809E014213046CD
:10490000776802F027FE3146284602F0D5F93E6866
:10491000002EF3D1D9F804104E468C4205D1002167
:1049200005E00868A04202D001460029F9D12046DE
:1049300000F01AFA284602F057FA04463088A042DE
:1049400006D213A340F29B2220A127A0FEF7A6F9CE
:104950003088001B30802846BDE8F09F0020FBE730
:10496000606870B9D9F80400844206D008A340F208
:10497000AB2227A11CA0FEF791F90021204600F0F0
:10498000F3F9584602F004FCE8E70000800100203B
:104990002E2E2F4D6964646C6577617265732F5498
:1049A000686972645F50617274792F4C7749502F37
:1049B0007372632F636F72652F697076342F69701D
:1049C000345F667261672E630000000069705F7279
:1049D000656173735F70627566636F756E74203E98
:1049E0003D20636C656E0000417373657274696F7E
:1049F0006E2022257322206661696C6564206174D3
:104A0000206C696E6520256420696E2025730A007C
:104A10006E6F74206669727374616C74686F756709
:104A200068206A75737420656E71756575656400BC
:104A300070B50146144813E090F82D20D3070FD02D
:104A400053070DD543685BB184680D68234005EAC0
:104A500004069E4216D0920702D4C268954211D035
:104A600000680028E8D10948006850B190F82D206E
:104A7000D30706D0520704D5426812B109787F29BE
:104A800000D1002070BD0000180100201C01002092
:104A900010B5040006D106A34FF4317213A116A07D
:104AA000FEF7FCF82146BDE81040052000F0F4BFF9
:104AB0002E2E2F4D6964646C6577617265732F5477
:104AC000686972645F50617274792F4C7749502F16
:104AD0007372632F636F72652F697076342F6970FC
:104AE000345F667261672E63000000007020213D14
:104AF000204E554C4C000000417373657274696F11
:104B00006E2022257322206661696C6564206174C1
:104B1000206C696E6520256420696E2025730A006B
:104B20002DE9F05F4C68064693460F4600254FF08E
:104B30000108608800F00EFC21784FF0FF3A090769
:104B4000890E814231D8A0EB0109E08800F002FC17
:104B5000C0047C68010C0020206001EB090083B2D6
:104B6000A180E3808B4220D3726829E05068B0F8BE
:104B700004C0614515D222606DB1B5F806C061452B
:104B800013D38088834210D82F60A088844506D034
:104B90004FF0000803E08088834206D877608AB12E
:104BA0002EE002D0C288914202D25046BDE8F09F6A
:104BB00025B1EA88624501D04FF000080268054639
:104BC000002AD3D195B1E888A188884206D92AA3C2
:104BD0004FF4DB7237A13FA0FEF760F82F60E88842
:104BE000A18888420CD04FF0000809E0706830B10D
:104BF00021A34FF4DF7241A136A0FEF74FF8776092
:104C0000BBF1000F02D1B07FC007CFD0B8F1000FC9
:104C100030D07268002A2DD050688088002829D1B1
:104C20002168204629B14C68C088A1888842F7D005
:104C300020E0B8F1000F1DD032B90FA340F2DF120F
:104C40003CA124A0FEF72AF870684068A04206D173
:104C500009A34FF4F07237A11EA0FEF71FF82068D9
:104C600030B105A34FF4F17236A11AA0FEF716F881
:104C700001209BE7002099E72E2E2F4D6964646C7C
:104C80006577617265732F54686972645F506172F1
:104C900074792F4C7749502F7372632F636F72654D
:104CA0002F697076342F6970345F667261672E6386
:104CB00000000000636865636B20667261676D6564
:104CC0006E747320646F6E2774206F7665726C61EA
:104CD00070000000417373657274696F6E20222545
:104CE0007322206661696C6564206174206C696E52
:104CF0006520256420696E2025730A006E6F207080
:104D0000726576696F757320667261676D656E7422
:104D10002C2074686973206D75737420626520742B
:104D2000686520666972737420667261676D656E6E
:104D30007421000073616E69747920636865636B28
:104D40000000000076616C69646174655F64617481
:104D5000616772616D3A6E6578745F706275662125
:104D60003D4E554C4C00000070B504460C480D46B5
:104D70004168A14202D1216841600AE0002D06D1BC
:104D800008A340F2451216A11CA0FDF787FF20687A
:104D900028602146BDE87040042000F07DBE000080
:104DA000800100202E2E2F4D6964646C657761723E
:104DB00065732F54686972645F50617274792F4C07
:104DC0007749502F7372632F636F72652F69707606
:104DD000342F6970345F667261672E6300000000D3
:104DE00073616E69747920636865636B206C696EAA
:104DF0006B6564206C697374000000004173736517
:104E00007274696F6E2022257322206661696C6559
:104E100064206174206C696E6520256420696E20B1
:104E200025730A002DE9F047054600240F46A942E4
:104E300005D12FA3AB223DA13FA0FDF72FFF002FEF
:104E400008D03868A84205D029A3AD2244A13AA0D1
:104E5000FDF724FF6E684FF4803870688188002960
:104E60001AD100686860142205F108017068FBF728
:104E70004DFA01213046FFF7AFF9304601F0B4FF9B
:104E80000446404505D31AA3BC223AA12AA0FDF747
:104E900005FF304602F07CF96E6812E07068B1469A
:104EA0000668484601F0A0FF0444444505D310A31A
:104EB000CC2230A120A0FDF7F1FEA4B2484602F0BA
:104EC00067F9002EEAD139462846FFF74DFF314DEC
:104ED0002888A04205D206A3D2222FA116A0FDF752
:104EE000DDFE2888001B28802046BDE8F0870000F2
:104EF0002E2E2F4D6964646C6577617265732F5433
:104F0000686972645F50617274792F4C7749502FD1
:104F10007372632F636F72652F697076342F6970B7
:104F2000345F667261672E63000000007072657600
:104F300020213D2069707200417373657274696F3E
:104F40006E2022257322206661696C65642061747D
:104F5000206C696E6520256420696E2025730A0027
:104F6000707265762D3E6E657874203D3D206970C7
:104F70007200000070627566735F6672656564201A
:104F80002B20636C656E203C3D203078666666663B
:104F9000000000008001002069705F72656173731A
:104FA0005F70627566636F756E74203E3D2070623F
:104FB0007566735F66726565640000002DE9F047F1
:104FC0001D4F894606460024002213461146154609
:104FD000786822E0D0F814C0D6F80C80C4450BD114
:104FE000D0F818C0D6F81080C44505D1B0F80CC070
:104FF000B6F80480C44509D06D1C2AB190F81FC0D2
:1050000092F81F80C44501D802461946D0F800C066
:10501000BCF1000F00D0034660460028DAD11AB177
:105020001046FFF7FFFE04444C4501DA012DCBDCAE
:105030002046BDE8F08700008001002070B50948D7
:10504000002544680BE0E07F20B1401EE077254654
:10505000246804E0204624682946FFF7E3FE002C7C
:10506000F1D170BD8001002010B5040006D108A365
:1050700040F2CE2215A118A0FDF710FE606908B11C
:1050800002F086F82046BDE81040FFF701BD0000A1
:105090002E2E2F4D6964646C6577617265732F5491
:1050A000686972645F50617274792F4C7749502F30
:1050B0007372632F636F72652F697076342F697016
:1050C000345F667261672E630000000070637220B7
:1050D000213D204E554C4C00417373657274696FCD
:1050E0006E2022257322206661696C6564206174DC
:1050F000206C696E6520256420696E2025730A0086
:10510000F0B591B00446142109A8FBF726F94C4DDF
:105110004A48002628608DF8386080208DF83900D4
:10512000E1208DF83A008DF83C608DF83B608DF8F9
:105130003D600EA868604FF40000A860A5F1C000B3
:10514000E860A03828614FF4C06068612846FBF72A
:105150003DFD0746382105F1B000FBF7FEF805F1EB
:10516000B000212101604FF44001C0E904613548DD
:1051700000F034FD062084F82C00686800221146F7
:10518000007884F826006868407884F8270068680A
:10519000807884F828006868C07884F829006868F6
:1051A000007984F82A006868407984F82B0040F27E
:1051B000DC50A08494F82D0040F00A0084F82D0003
:1051C000012001F0B7FA204D00221146A86001200D
:1051D00001F0B0FAE86024216846FBF7BEF81BA096
:1051E00000904FF4AF700590302006906A4621463B
:1051F000184801F017FB1FB1FBF7DEFB11B0F0BD43
:105200001548099015480A9015480C9015480B90C0
:1052100015480D900A4809A92038FDF728FD08B166
:10522000FBF7CAFB06482038FDF7EFFC08B1FBF797
:10523000C3FB2046FEF7FCFCE0E7000000800240D4
:10524000504D0020C8EA0008040000204574684959
:10525000660000007D3E0008A30500089B050008CD
:10526000A9050008C50500089F050008F0B58DB028
:105270000E46002530216846FBF76FF8302168465E
:10528000FBF76BF834466FF00B076846002215E019
:10529000042D02D338460DB0F0BD05EB450163681F
:1052A00040F8213000EB810163894B600DB141F87A
:1052B000041C236803B98A6024686D1C002CE7D1A4
:1052C000124932894E63C1E90120304602F0F4F8F8
:1052D0000F4C4FF4FA650D49A1F1B000FBF7D2FE77
:1052E0000028D8D00948B038FBF78BFB800708D5D9
:1052F0002946E06801F0F0F90448B038FBF7AEFD4C
:10530000E9E7304601F044FFC4E70000004E00200A
:105310000400002010B504464068804702F050FFAA
:10532000094A216852688B181A1AB2F1004F03D348
:1053300008442246054902E0044922461846BDE8D1
:10534000104002F0B9BF00006801002015530008AA
:1053500000BA704740BA704710B502F0F3FE00F093
:1053600017F900F02BFC00F06BFE08F01BF803F0BF
:10537000C3FEBDE8104003F01BB80000FBF7F8FFC8
:10538000FDF7A6F9FCF7B0FFFDF770F9FDF7F2F8AD
:105390000C4D4FF48074002221462846FBF7D4FFC1
:1053A0003220FBF70BFB012221462846FBF7CCFFFE
:1053B000C820FBF703FB01F051F8FCF785FF01F073
:1053C0005FF8FEE7002002402DE9F041002861D09F
:1053D000810704D030A340F273223BA10DE0434D7E
:1053E000A0F1080429688C4203D369680C30884214
:1053F00007D929A340F27F223DA144A0FDF74EFC2E
:105400002FE03A48083002F0C7FE207900282ED05D
:105410002888201A86B2208802F0AAFD07466088F4
:1054200002F0A6FD21884FF4C863002299420DD8EE
:10543000618899420AD8B14202D00088B04205D1B1
:105440006868874218D07888B04215D012A340F21D
:10545000952238A12DA0FDF721FC2448083002F048
:10546000ACFE02F03BFEBDE8F04102F043BE0AA3F1
:105470004FF423723CA1EDE72271E868844200D228
:10548000EC60204602F0CEF8BDE8F0411748083045
:1054900002F093BEBDE8F0812E2E2F4D6964646C3E
:1054A0006577617265732F54686972645F506172C9
:1054B00074792F4C7749502F7372632F636F726525
:1054C0002F6D656D2E6300006D656D5F667265659D
:1054D0003A2073616E69747920636865636B20613B
:1054E0006C69676E6D656E7400000000D00000206E
:1054F0006D656D5F667265653A20696C6C656761A4
:105500006C206D656D6F72790000000041737365EA
:105510007274696F6E2022257322206661696C6542
:1055200064206174206C696E6520256420696E209A
:1055300025730A006D656D5F667265653A20696C5A
:105540006C6567616C206D656D6F72793A206E6F66
:105550006E2D6C696E6B65643A20646F75626C6564
:1055600020667265650000006D656D5F6672656539
:105570003A20696C6C6567616C206D656D6F72793E
:105580003A20646F75626C65206672656500000084
:1055900070B51248124C20F003014FF4C865216029
:1055A0000D80002048800871284602F0E1FC0121AE
:1055B00060600171058045802068E06004F10800AA
:1055C00002F0EFFD002808D0BDE8704005A340F2CE
:1055D0001F2210A116A0FDF761BB70BD7F970020B0
:1055E000D00000202E2E2F4D6964646C65776172A7
:1055F00065732F54686972645F50617274792F4CBF
:105600007749502F7372632F636F72652F6D656DCD
:105610002E6300006661696C656420746F2063729C
:1056200065617465206D656D5F6D757465780000EA
:10563000417373657274696F6E2022257322206630
:1056400061696C6564206174206C696E65202564F5
:1056500020696E2025730A002DE9F04700280ED03E
:10566000C41C4FF6FC710C404FF4C8690C2C01D2DD
:105670000C2401E04C4501D8844202D20020BDE850
:10568000F087444802F088FD4248C4F5C8670838EE
:10569000824681890288891A8EB274E0304602F00F
:1056A00067FC0546007900286AD12888801B0838E5
:1056B000A04265D3288804F11401801B08384FF0FC
:1056C000010888421DD33019083087B24F4506D1F2
:1056D00031A340F287323CA140A0FDF7DFFA384603
:1056E00002F046FC002101712988018046802F804C
:1056F00085F804800088484505D002F039FC4780D1
:1057000001E085F80480DAF80C005646854203D0A3
:1057100014E0008802F02CFC017911B17168884214
:10572000F7D1F0607168884208D0007930B11AA3CF
:1057300040F2B53233A129A0FDF7B0FA154802F0C6
:105740003CFD281971680830884206D912A340F23E
:10575000B93233A121A0FDF7A1FAA8070DD00EA3FD
:1057600040F2BB323AA11DA0FDF798FA0AA340F21D
:10577000BD3243A119A0FDF791FA05F108007EE7BB
:10578000DAF80000865BB74288D8024802F015FDBF
:1057900074E70000D80000202E2E2F4D6964646C41
:1057A0006577617265732F54686972645F506172C6
:1057B00074792F4C7749502F7372632F636F726522
:1057C0002F6D656D2E630000696E76616C696420D3
:1057D0006E65787420707472000000004173736508
:1057E0007274696F6E2022257322206661696C6570
:1057F00064206174206C696E6520256420696E20C8
:1058000025730A006D656D5F6D616C6C6F633A2086
:10581000216C667265652D3E75736564000000003D
:105820006D656D5F6D616C6C6F633A20616C6C6F60
:105830006361746564206D656D6F7279206E6F743D
:105840002061626F76652072616D5F656E642E0007
:105850006D656D5F6D616C6C6F633A20616C6C6F30
:105860006361746564206D656D6F72792070726F0D
:105870007065726C7920616C69676E65642E0000DA
:105880006D656D5F6D616C6C6F633A2073616E69FD
:10589000747920636865636B20616C69676E6D6500
:1058A0006E74000002490988401A80B270470000F7
:1058B000D00000202DE9F05F0646CC1C4FF6FC70AE
:1058C00004404FF4C86A0C2C01D20C2401E054456A
:1058D0002FD88C422DD3464F3868864202D3786841
:1058E000864206D343A340F2D1224EA153A0FDF736
:1058F000D5F93868864202D379688E4204D302F023
:10590000EDFB02F0F7FB19E0A6F10805BB46281AEB
:1059100087B22888C01B08381FFA80F94C4506D981
:1059200034A34FF439724FA144A0FDF7B7F94C45A9
:1059300003D94FF00000BDE8F09F01D13046FAE7EF
:105940002B4800F1080002F027FC288802F010FB29
:105950008046007900282AD004F11400484521D857
:105960003819083084B22888504506D121A340F266
:10597000163244A131A0FDF791F9204602F0F8FA61
:10598000DBF80C20904201D2CBF80C000021017111
:105990002988018047802C800088504502D002F081
:1059A000E7FA44801248083002F007FCC6E728886E
:1059B000504506D10FA340F2F52232A11FA0FDF7FA
:1059C0006DF938190830DBF80C10B8F8009084B283
:1059D000414504D1204602F0CBFACBF80C0020461A
:1059E00002F0C6FA00210171A0F80090D2E7000091
:1059F000D00000202E2E2F4D6964646C6577617293
:105A000065732F54686972645F50617274792F4CAA
:105A10007749502F7372632F636F72652F6D656DB9
:105A20002E6300006D656D5F7472696D3A206C6560
:105A300067616C206D656D6F7279000041737365ED
:105A40007274696F6E2022257322206661696C650D
:105A500064206174206C696E6520256420696E2065
:105A600025730A006D656D5F7472696D2063616EE8
:105A7000206F6E6C7920736872696E6B206D656D36
:105A80006F727900696E76616C6964206E657874F6
:105A900020707472000000000D2806D307A34FF495
:105AA000D57212A118A0FDF7F9B8002904D0204A38
:105AB00052F82000FDF7FEB9704700002E2E2F4D42
:105AC0006964646C6577617265732F546869726488
:105AD0005F50617274792F4C7749502F7372632F26
