:020000040800F2
:10000000E82101209103000803390008B1340008F9
:10001000013900089F150008C53F000800000000D6
:100020000000000000000000000000009D02000829
:10003000A115000800000000F9020008213900089D
:10004000AB030008AB030008AB030008AB030008D8
:10005000AB030008AB030008AB030008AB030008C8
:10006000AB030008AB030008AB030008AB030008B8
:10007000AB030008AB030008AB030008AB030008A8
:10008000AB030008AB030008AB030008AB03000898
:10009000AB030008AB030008AB030008AB03000888
:1000A000AB030008AB030008AB030008AB03000878
:1000B000AB030008AB030008AB030008AB03000868
:1000C000AB030008AB030008AB030008AB03000858
:1000D000AB030008AB030008AB030008AB03000848
:1000E000AB030008AB030008AB030008AB03000838
:1000F000AB030008AB030008AB030008AB03000828
:10010000AB030008AB030008AB030008AB03000817
:10011000AB030008AB030008E5390008AB03000897
:10012000AB030008AB030008AB030008AB030008F7
:10013000AB0300083D160008AB030008AB03000842
:10014000AB030008AB030008AB030008AB030008D7
:10015000AB030008AB030008AB030008AB030008C7
:10016000AB030008AB030008AB030008AB030008B7
:10017000AB030008AB030008AB030008000000005D
:10018000AB030008AB03000800F002F800F077F8BA
:100190000AA090E8000C82448344AAF10107DA45E2
:1001A00001D100F06CF8AFF2090EBAE80F0013F0BD
:1001B000010F18BFFB1A43F001031847C063010089
:1001C000E06301000A444FF0000C10F8013B13F00B
:1001D000070408BF10F8014B1D1108BF10F8015BA0
:1001E000641E05D010F8016B641E01F8016BF9D193
:1001F00013F0080F1EBF10F8014BAD1C0C1B09D1EA
:100200006D1E58BF01F801CBFAD505E014F8016B5B
:1002100001F8016B6D1EF9D59142D6D370470000ED
:100220000023002400250026103A28BF78C1FBD8FF
:10023000520728BF30C148BF0B607047642900F0E7
:10024000B181732900F06D83002070471FB515F050
:1002500065FF9DE8030000F097FF00F002FA00F050
:10026000EDFA04000020002115F042FF401C606000
:1002700000F048FC1FBD10B500F0ADFC10BD00F053
:1002800050FD1146FFF7E2FF08F0F4FE00F04EFFCC
:1002900003B4FFF7F0FF03BC01F0F0F82C4B196832
:1002A0000868B0E8F04F80F30988BFF36F8F4FF014
:1002B000000080F3118870470000000008480068C3
:1002C000006880F308884FF0000080F3148862B65D
:1002D00061B6BFF34F8FBFF36F8F00DF00BF00BF6A
:1002E00008ED00E0DFF80C00016841F470010160E6
:1002F000704700BF88ED00E0EFF30980BFF36F8F18
:10030000134B1A681EF0100F08BF20ED108A20E969
:10031000F04F106009B44FF0500080F31188BFF324
:100320004F8FBFF36F8F14F05FFF4FF0000080F32B
:10033000118809BC19680868B0E8F04F1EF0100F6A
:1003400008BFB0EC108A80F30988BFF36F8F704745
:1003500040000020EFF30580704700000B49D1F802
:1003600000C04A685CF8043B1068184442F8040B6B
:100370008C4528BFA1F1DC0C8A4228BFA1F1DC0228
:10038000C1F800C04A6020F000407047841A012084
:100390000948804709480047FEE7FEE7FEE7FEE719
:1003A000FEE7FEE7FEE7FEE7FEE7FEE70448054955
:1003B000054A064B70470000D5390008890100083E
:1003C000E81B0120E8210120E81D0120E81D012093
:1003D00010B500F033FA001D10BD00BF155D01001F
:1003E00053EA020C00F069802DE9F04B4FF0000653
:1003F000002B1FBFB3FA83F503FA05F424FA05F6C0
:100400005E4012BF1643B2FA82F502FA05F4C5F156
:1004100020051EBF22FA05FC44EA0C04203556EAEA
:10042000044C4FEA144418BF641C4FF000084FF00E
:100430000009904271EB030C39D3002919BFB1FABE
:1004400081F701FA07F6B0FA80F700FA07F6C7F16C
:1004500020071EBF20FA07FC46EA0C062037B6FB31
:10046000F4FCA7EB0507103F07F01F0BCBF12006AC
:100470000CFA0BFB2CFA06F644BFB3460026202FDD
:10048000A4BF5E464FF0000B5BEA060C08BF4FF0BE
:10049000010B19EB0B09ABFB027C48EB0608C01BF8
:1004A00006FB02CC0BFB03CC71EB0C01C1E70B4646
:1004B000024641464846BDE8F08B13B54FF00000B8
:1004C0004FF00001AFF30080BDE81C407047000012
:1004D0000FB4044910B503AA029800F027FA10BC23
:1004E0005DF814FBE01A01202DE9F0410E460446A8
:1004F000002020622046E168884730B3252805D0D7
:10050000D4E901219047206A401CF2E7E1682046C7
:1005100000278847050018D0A5F14100192802D806
:1005200020354FF400673246294620462760FFF702
:1005300085FE40B1012804D0F61D26F007060836D6
:10054000D8E7361DD6E72846DAE7206ABDE8F0810D
:1005500070B50C460546012A05D02878800600D5DE
:10056000EA69002302E0012305E05B1C934202D20A
:10057000E05C0028F9D1A869E618C01AA861286AC9
:10058000184428622846AFF3008004E0D5E9012131
:1005900014F8010B9047B442F8D32846AFF300801B
:1005A00070BD00002DE9F041064600241068752951
:1005B000314616A510D0AFF30080002802DA404281
:1005C00013A507E031688A0701D512A502E04907A3
:1005D00004D511A5012401E0AFF3008000210A2217
:1005E00006F1240709E0B0FBF2FCB0FBF2F302FBDA
:1005F0001C00303078541846491C0028F3D123469B
:100600002A463046BDE8F04100F020B90000000065
:100610002D0000002B0000002000000070B50646F1
:1006200000F010F90468054630460A22002100F067
:100630008FF92C6070BD00000B4910B5A1F17C0250
:100640000A4CC2E93712372106E000EB104342F8AA
:100650002130074B00FB03400B1EA1F10101F4DC2C
:1006600010BD0120E8E70000241A0120E119D66638
:10067000CD0D010040EA010310B59B070FD1042AFC
:100680000DD310C808C9121F9C42F8D020BA19BA5D
:10069000884201D9012010BD4FF0FF3010BD1AB1C2
:1006A000D30703D0521C07E0002010BD10F8013B17
:1006B00011F8014B1B1B07D110F8013B11F8014B3E
:1006C0001B1B01D1921EF1D1184610BD10B5431C61
:1006D00002E010F8011B71B18107FAD14FF001322D
:1006E00002C88C1A8C4314EAC211F9D0C01A0A0647
:1006F00003D0C01E10BDC01A10BD0A0401D0801E58
:1007000010BD0902FCD0401E10BD032A40F230800B
:1007100010F0030C00F0158011F8013BBCF1020F42
:10072000624498BF11F801CB00F8013B38BF11F8C3
:10073000013BA2F1040298BF00F801CB38BF00F8DA
:10074000013B11F0030300F03B81083AC0F0088040
:1007500051F8043B083A51F804CBA0E80810F5E73B
:10076000121D5CBF51F8043B40F8043BAFF300801E
:10077000D20724BF11F8013B11F801CB48BF11F893
:10078000012B24BF00F8013B00F801CB48BF00F863
:10079000012B704702F0FF0343EA032242EA0242C0
:1007A00000F002B84FF000020429C0F0128010F0EF
:1007B000030C00F01B80CCF1040CBCF1020F18BF3D
:1007C00000F8012BA8BF20F8022BA1EB0C0100F0D0
:1007D0000DB85FEAC17C24BF00F8012B00F8012BA3
:1007E00048BF00F8012B70474FF0000200B51346D8
:1007F00094469646203922BFA0E80C50A0E80C5041
:10080000B1F12001BFF4F7AF090728BFA0E80C50F1
:1008100048BF0CC05DF804EB890028BF40F8042BEA
:1008200008BF704748BF20F8022B11F0804F18BF57
:1008300000F8012B704770477047704700487047B9
:10084000A81B012000487047881B01202DE9F047B4
:100850000D4699469246044600F124080168880630
:1008600004D5E06921F01001216000E00120A842D8
:1008700001DD471B00E00027A1697A1902EB09009E
:10088000081AA0612078C00602D42046AFF3008089
:10089000002608E0D4E901211AF806009047206AF2
:1008A000401C761C20624E45F4DB2078C0060AD539
:1008B0002046AFF3008006E0D4E9012130209047C4
:1008C000206A401C2062381EA7F10107F4DC07E013
:1008D000D4E9012118F805009047206A401C2062E5
:1008E000281EA5F10105F3DC2046AFF30080207837
:1008F000000602D50220BDE8F0870120FBE710B515
:10090000436913B1AFF3008001E0FFF721FE01203E
:1009100010BD127800F124010A7000224A700122F1
:10092000EDE711684FF0FF32E9E70000074B70B5C3
:100930000D467B4400F07FF80446284600F0DDF8C1
:1009400010B14FF0FF3070BD204670BDC34E0000A7
:100950002DE9F04791460F4680460446002614F8DC
:10096000015B2DB1FFF734FD0068405DC007F6D193
:100970002B2D02D02D2D18D0641E4A463946204614
:1009800000F06CF827B13968A14201D1C7F80080A6
:100990004FF0020471050BD54042002803DDFFF73C
:1009A00051FF0460A007BDE8F08746F48066E4E7E5
:1009B0000028F8DAFFF746FF04606FF00040F2E726
:1009C00010B5203AC0F00B80B1E81850203AA0E8EA
:1009D0001850B1E81850A0E81850BFF4F5AF5FEA1E
:1009E000027C24BFB1E81850A0E8185044BF18C9D1
:1009F00018C0BDE810405FEA827C24BF51F8043B78
:100A000040F8043B08BF7047D20728BF31F8023BCB
:100A100048BF11F8012B28BF20F8023B48BF00F85F
:100A2000012B704700487047881B012001694A1C50
:100A300002610878704700B58FB0CDE9013100211F
:100A4000059105497944CDE9031011466846FFF741
:100A50004BFD0FB000BD0000E5FFFFFF2DE9F05F8B
:100A6000824615468B4600270AF10104B9460078F4
:100A7000302801D09DB113E014F8010B012778282C
:100A800003D0582801D045B10AE00DB1102D07D18F
:100A9000002714F8010B102502E0082500E00A25C4
:100AA0000026B0460EE005FB080005FB06F1012715
:100AB0001FFA80F801EB1046B6F5803F00D3B94627
:100AC00014F8010B294600F078F90028EBDABBF1A5
:100AD000000F05D00FB1641E00E05446CBF8004073
:100AE000B9F1000F06D0FFF7ADFE02210160C81E6C
:100AF000BDE8F09F48EA0640FAE7007B00F080007E
:100B00007047000010B542485421FFF76DFE414880
:100B10005421FFF769FE40485421FFF765FE3F4925
:100B20003B483C4A3F4B08603D490A603A491960DE
:100B3000531C0365481C1065012008653B48344A76
:100B400039A1784400F056FA20B9384878440A3878
:100B500000F0F5FA37482F4A35A1784400F04AFAF8
:100B600020B9344878440A3800F0E9FA32482A4A71
:100B70002FA1784400F03EFA20B92F4878440A3873
:100B800000F0DDFA40232248DC000021224600F07C
:100B90000DFA20B125487844543800F0D0FA1D48A9
:100BA00022464023002100F001FA20B12148784478
:100BB000543800F0C4FA184822461023002100F0EF
:100BC000F5F9002806D01C487844BDE81040563896
:100BD00000F0B5BA10BD104870B5006D20F00104EA
:100BE0000B4800F07DFA0B4800F07AFA0A4800F052
:100BF00077FA09E0206D20F00105204600F070FA38
:100C0000204600F0B3F82C46002CF3D170BD000054
:100C10008C1A0120E01A0120341B0120A0010020C1
:100C2000A4010020A801002072000000BE570100AE
:100C300077000000AA570100965701004FF0013CD1
:100C400050F8042B51F8043B9A4221D1A2EB0C033B
:100C5000934313EACC1317D150F8042B51F8043BFB
:100C60009A4215D1A2EB0C03934313EACC130BD198
:100C700050F8042B51F8043B9A4209D1A2EB0C0323
:100C8000934313EACC13DBD04FF00000704700BF52
:100C9000D01A01BAB1FA81F101F0180122FA01F07B
:100CA000CB40C1F12001DBB2C0B2C01A2CFA01F373
:100CB000D11A914311EAC311E6D170470EB5CDE9BF
:100CC0000001FFF703FD029069460120ABBE0EBD97
:100CD00008B5694600900220ABBE08BD1FB58DE87F
:100CE000070069460520ABBE04B010BD1FB58DE8F6
:100CF0000F0069460620ABBEF6E708B569460090CE
:100D00000920ABBE08BD1CB5CDE9000169460A202B
:100D1000ABBE1CBD704708B5694600900C20ABBE49
:100D200008BD7546FFF77EFEAE4605006946534690
:100D300020F00700854618B020B5FFF737FBBDE867
:100D400020404FF000064FF000074FF000084FF032
:100D5000000B21F00701AC46ACE8C009ACE8C009C3
:100D6000ACE8C009ACE8C0098D46704770B50446D0
:100D7000051F00F0EDF90068002C14BF446870BD39
:100D8000002C18BFAC423CBF20466468F8D3016811
:100D90000A18AA4218BF456003D12A6805461144C3
:100DA000016028684119A1421CBF6C6070BD616878
:100DB000696021680844286070BD3A2800D2303844
:100DC00020F02002412A01D3A2F13700884201D34A
:100DD0004FF0FF3070472DE9F04705460C46C868D4
:100DE00020F4201040F48000C860800602D5084638
:100DF00000F0FBFAE06841F282014FF0FF39014058
:100E0000022903D0204600F099FAB5E000F4204111
:100E1000B1F5004F0FD1C00306D56168E06A884282
:100E200000D80846606006E02069E06260606069A2
:100E3000FFF771FFA061A0680022EEB200280DDA72
:100E4000E1688B050AD4C043A06041F49030226071
:100E5000E0606068411C61600670A5E0E068904653
:100E6000226040F40050E060206968BB6069FFF7D1
:100E700044FF012704F12405A0B1A08910F4407FAC
:100E800008D0E06900F0AFF9206118B1E06840F4E3
:100E9000006016E0E7612561E06820F4407040F4EE
:100EA00080600EE0E06900F09EF900282061F1D03A
:100EB000E06840F4006010F4407FE06002D140F44C
:100EC0008070E06020696060E06825696FF0010A69
:100ED000C1051FD56168E06A884200D80846411BF9
:100EE00004D02246284600F033FAF0BBE068010245
:100EF00003D5E562C4E9015854E0691CE162616010
:100F0000E16940F48030491EC4E9021030462E7079
:100F1000BDE8F087010202D500F480320AE0606883
:100F2000411C61600670E0680A2E40F48030E06089
:100F300006D00022E16A6068814203D90B4602E0D4
:100F40000122F7E70346A7895B1B7F0503D4E76906
:100F50009F4200DDE2B1814200D80146E5620F1AEE
:100F6000C4E90158002B09DD00E005E022461946DE
:100F7000284600F0EDF908B14846C9E747B1A06935
:100F8000E5626560C01BA061E06840F01000E060B1
:100F9000E068000208D56168A069E562491B084461
:100FA0006560A0615046B3E73046B1E770B5C468EC
:100FB000A50713D0650211D4B2F5807F09D0B2F530
:100FC000007F06D0B2F5806F08D1012300F1240123
:100FD00006E05D1E6FF07F46B54201D3012070BD73
:100FE0000161C361416024F470611143C16000205C
:100FF00070BD00002DE9F0410C460746164610462C
:1010000000F06EF82078611C61280AD0722802D0A6
:1010100077283CD102E00125002405E002250424C4
:1010200002E0082448F2020511F8010B2B2806D033
:10103000622809D011F8010C74280AD00BE045F0A1
:10104000030544F00204EFE745F0040544F0010411
:10105000EAE744F0100438462146FFF72FFE411C12
:1010600015D00021316171604FF40071F560F161BC
:101070007061200704D530460222002100F0E2F81A
:10108000306D40F0010030653046BDE8F081002051
:10109000FBE72DE9F0410D460646104C206DC107D7
:1010A00004D0410804D020F00104F7E722460EE006
:1010B000542000F098F807000ED0206D47F0010191
:1010C0000843542120653846FFF78EFB3A462946EF
:1010D0003046BDE8F0418DE70020D6E78C1A0120AC
:1010E0002DE9F04704464FF000094FF0FF37C5687F
:1010F000D4E90486A80707D0204600F053F930460B
:10110000FFF7E6FD002802DA3846BDE8F08728053B
:1011100002D54046FFF72AFE4C212046FFF764FB2C
:10112000206D20F0010020654846EEE710B504462A
:10113000AFF300802046BDE81040FFF7A9B810B516
:1011400000F07AF9BDE8104000F070B97047000077
:1011500000487047901B01207047704770477047E8
:1011600038B504460A4600206946AFF300800028DF
:1011700008BF38BD02460099204600F08CF90120D6
:1011800038BD012000F072B9F8B5AFF30080054614
:1011900000200C46102000BF0646A819A0420DD919
:1011A000324669460020AFF30080070008BF00F018
:1011B0005DF90098A04218BF0546C419FFF7C8FFA3
:1011C00005600746F01D20F007004619284600F08C
:1011D0005BF9B44208BFF8BDA21B31463868BDE8D0
:1011E000F84000F058B970B50646FFF7B1FF056842
:1011F00006F10B0020F00704B4429CBF002070BD34
:101200002B466A68BAB11068A04210D304F10801F5
:1012100088423CBF5068586007D35168101941603C
:101220001168091B016058601460101D70BD1346E1
:101230005268002AE7D121462846FFF791FF00288F
:10124000DED170BD2DE9F041044616460D464769D2
:10125000007B80072ED03846FFF74FFD50BB3EB3D2
:10126000012E02D0022E25D104E0204600F02DF9F7
:1012700005441DE03846FFF74EFDE168002841F0C7
:101280001001E16005DA204600F058F80120BDE8C1
:10129000F081C9030BD56268E16A914200D811461A
:1012A000A26911442269891A814200DD0846054479
:1012B000002D01DA0220EAE7E16A6068E268814213
:1012C00006D29103E06203D522F4003141F010020E
:1012D000A6690027AE4213DCE16A814201D90B46C0
:1012E00000E0034603EB060C2369ACEB030CAC45B2
:1012F00006DD814201D98C4600E084469C4505D13B
:10130000A760276042F02000A5620DE0AD1BE669F2
:10131000AE1B8142A66000D90846C01A281A206078
:101320005819606022F0200003490840E060002066
:1013300084F84870ABE70000BFCFD7FFC16821F445
:10134000001141F08001C16000218160016070479F
:101350002DE9F047814614460E464FF0FF383248DB
:10136000D5685769054209D03846A169FFF7CBFC1B
:10137000002811DB2C48C0430540E5602B4632466F
:1013800049463846FFF7AAFCA16920F00042B21A8C
:1013900011440028A16103D02046FFF7CFFF40464B
:1013A000BDE8F08770B504460569C06A6168884287
:1013B00000D80846E16821F42011E160C90312D584
:1013C000A84208D02246411B2846FFF7C1FF10B1B2
:1013D0004FF0FF3070BD0020E562C4E90150E068C5
:1013E00020F48030E060002070BD10B50446C06875
:1013F00020F02000E060A16AA06988420DD020465C
:10140000FFF7D0FFE06820F4405040F01000E060AB
:10141000A06AA0612069E062606044F24001E06877
:101420008843E06010BD000010000200002801D0D9
:1014300000F024B87047000010B5014602A000F08B
:1014400065F8012010BD00005349475254524544ED
:101450003A2052656469726563743A2063616E274D
:1014600074206F70656E3A200000000010B500F027
:1014700067F8BDE81040FFF7D9BF00000149182008
:10148000ABBEFEE72600020000210160C0E90110AA
:10149000704710207047034640688C46002818BFEC
:1014A00088423CBF03464068F8D318681844884215
:1014B00007D00CF1030020F00700001D411A521A5A
:1014C0000146081D0A60FFF751BC10B50146C2680D
:1014D000900703D0900607D5886A0AE0FFF7B2F9B3
:1014E00001210160881E10BD8B69486818440B6992
:1014F000C01A91F848301BB191F84910401A10BD3C
:101500001103FCD50028FADD401E10BD70B505465C
:101510000C460A2000E06D1C00F03AF835B128783E
:101520000028F8D102E0641C00F032F814B12078F1
:101530000028F8D1BDE870400A2000F029B800006A
:1015400010B5012805D0002103A0FFF7DFFF01201F
:1015500010BD09A1F8E7000053494752544D454DCD
:101560003A204F7574206F662068656170206D6544
:101570006D6F7279000000003A2048656170206D3F
:10158000656D6F727920636F727275707465640037
:1015900008B569468DF800000320ABBE08BDFEE724
:1015A00070470000F0B500231A464FF0004500BF19
:1015B000016903EB830401EBC4010A604A608A609D
:1015C000CA600A620D604A62466946F480464E600F
:1015D0004E6826F000464E6000EB8306032BB16494
:1015E00005D22827066907EBC404344400E00469E7
:1015F000CC605B1C042BDBD3C26502668266C266CC
:1016000082650169006800F58050C160F0BD38B5A1
:101610000446006800F58050816941F480118161C1
:10162000206800F5805080690090012000F06CFA7D
:101630002068009900F58050816138BD014800F0B4
:10164000FFBA0000684D002070B5A4B00125002449
:1016500006468DF828408DF804501494A8038DF8A0
:10166000564005908DF8105002948DF80E508DF86C
:101670005440C0108DF811508DF81F408DF8204057
:1016800006908DF81E508DF80F4009948DF81C407F
:1016900012948DF84C408DF855406946304600F064
:1016A00063F98DF881508DF880408DF882402804D0
:1016B0001B908DF8685080011F908DF870508DF848
:1016C000885040128DF871501E941D908DF8725004
:1016D000239421948DF8895019A93046199400F06B
:1016E000E3F824B070BD0020704700F0D9BE0020A0
:1016F0007047000013460A4610B50146034800F043
:1017000021FC002801D04FF0FF3010BD684D0020B3
:1017100013460A4610B50146034800F097FD00281D
:1017200001D04FF0FF3010BD684D00202DE9F0438F
:10173000836A1830914650F823208D681C4617683C
:101740000026002F6BDB00EB83077F69BFBBD5F85A
:1017500000C00127C2F808C0D2F804C0D5F8048040
:101760006FF30C0C4CEA080CC2F804C091F800C0EE
:101770005FEACC7C09D0D2F800C0D1F814802CF4F8
:10178000400C4CEA080CC2F800C091F800C05FEAB7
:101790008C6C09D5D2F800C0D1F810802CF0406CC8
:1017A0004CEA080CC2F800C00978490703D5116853
:1017B00041F080011160116841F0805148E02EE055
:1017C000116821F0005111601168B9F1000F02D0C9
:1017D00041F0804101E021F0804111605B1C042B4D
:1017E00000D31B1F50F823201168002903DB00EBF6
:1017F00083014969B1B150F8242000210DE000BFF8
:10180000BFF35F8F136823F000431360641C042C44
:1018100000D3241F491C50F82420B942F0D30220E1
:10182000BDE8F083116821F080511160AD6829682E
:1018300091605168D5F804C06FF30C0141EA0C01C6
:101840005160761C7F1CBFF35F8F116841F000412F
:101850001160A9680029B3D11168B9F1000F02D055
:1018600041F0804101E021F080411160116841F0B8
:101870000051116050F82410BFF35F8F0A6842F0E6
:1018800000420A6000EB8302416A5161EFF310816C
:10189000012282F310880361826A761C324481F34C
:1018A000108882620020BBE770B50C4601680546CF
:1018B00001F5805188692B4A1040227BEAB300224F
:1018C000637B920642EA4362637FBBB35FF000032F
:1018D00042EA0352A37B42EA435263691A43237FDD
:1018E00042EAC312A37F42EA8312236A1A4394F89E
:1018F000243042EA830202438A61286800F580505E
:101900008669012000F000F9286800F580508661A2
:10191000A169A06822790843216941EA426108432C
:1019200094F8251040EAC110A16A40EA81002168BC
:10193000084340F40001286801E00FE010E000F5E2
:1019400080500160286800F580500468012000F094
:10195000DBF8286800F58050046070BD0122AFE715
:101960000123B5E7233FDEF870B5026805460C4653
:1019700010683C49A37B0840A16841EA4361237C8D
:10198000002B64D00023667CDB05002E61D000268E
:1019900043EA86531943E37F41EA034163691943EC
:1019A000A37FEBB35FF0000341EA4331237F41EAB9
:1019B0000331A3691943237941EA832194F8203044
:1019C0007BB3002341EA4321E37B41EAC311636A0D
:1019D000194394F8283041EA031101431160286843
:1019E0000668012000F090F8286806602A6890696F
:1019F0004FF641710840A36C216D41EA034194F810
:101A00004C3063B3002394F85560DB01012E00D005
:101A1000002643EAC603194394F85630012B01E02F
:101A200019E01AE000D0002341EA830194F8543011
:101A3000012B00D0002341EA430101439161286852
:101A40008469012000F060F82868846170BD01237A
:101A500099E701269CE70123A6E70123B2E70123CA
:101A6000D1E700000F8120FD2DE9F8430446002056
:101A70000090A56E4FF0010804EB8500E76E866CC0
:101A80001EE0306A30B9684600F0BCFA009880B3B6
:101A90003062B060B8F1000F12D0A06D002860690C
:101AA0002BD040F480407060306840F000403060DF
:101AB0006D1C042D00D32D1F04EB85007F1E866C4A
:101AC00017B1B8F1000FDCD1E06EB8420FD0E81CBE
:101AD00000F00300BFF35F8F216900EB800001EB92
:101AE000C001206800F580508160C4E91A57BDE844
:101AF000F883FFE74FF00008E2E701490843D2E727
:101B00000040008072B6FEE770B5044600F0C8FCE5
:101B10000546601C02D004480078044400F0C0FC74
:101B2000401BA042FAD370BD3000002010B500F079
:101B30000BF8000605D503488068BDE8104009F0A1
:101B4000EDBE10BD04000020D0F88C007047D0F826
:101B500088007047002970D002681268C2F3001232
:101B600081F828200268126802F060024A62026866
:101B7000126842F34022521C81F820200268126849
:101B8000C2F30042CA770268126842F34032521C24
:101B90008A7702681268C2F300320A770268126814
:101BA00002F400628A610268126802F480424A61AB
:101BB0000268126842F38052521C4A74026812682A
:101BC00042F3C052521C0A7402681268C2F3C01277
:101BD000CA730268126802F460228A60026812689E
:101BE000C2F380220A7102681268C2F340628A73EB
:101BF00002689269C2F3400281F854200268926937
:101C000042F3C012521C81F84C200268926902F023
:101C100030020A6502689269120C8A64026892694D
:101C2000C2F3800281F8562000688069C0F3C000CA
:101C300081F8550000207047FFE70120FBE7000016
:101C40002DE9F0470446006850F8387FD0F8DC5F93
:101C5000D0F8E46FDFF8B490D9F8008000F6C870CF
:101C6000690606D5710604D529494161204600F070
:101C7000EDF905EA0600C00708D020684FF0011111
:101C800000F580504161204600F0D6FA280423D5A3
:101C9000300421D5D4F8880040F00800C4F888004A
:101CA000A804206800F580500CD54169194A1140FC
:101CB000C4F88C10C16921F4C031C161E020C4F8BE
:101CC000840006E0426948F280610A40C4F88C2032
:101CD00041612046FFF72AFF38070BD52068C06A0C
:101CE00000F06000C4F89400204600F0B8F800202E
:101CF000C4F894005FEA083006D54FF40021C9F813
:101D00000010204600F0A0FABDE8F087143C014026
:101D10004000010000207E00F8B5040003D0D4F894
:101D2000840010B107E00120F8BD2020C4F8840031
:101D3000204600F093F845480025016841F48041B1
:101D40000160006800F4804000904148016821F47F
:101D5000000101600168A268114301600068206809
:101D600000F58050016841F00101016000F098FB2E
:101D700006464FF4FA770BE000F092FB801BB84266
:101D800006D90420C4F88800E020C4F88400CAE71B
:101D9000206800F580500068C007EDD12046FFF7AD
:101DA00053FC0021E06801EB810200EBC2000560FA
:101DB00045608560C56004EB81039861036843F466
:101DC00080130360032905D22826E36806EBC202CC
:101DD0001A4400E0E268C260026842F44002026015
:101DE000491C0429DED3A5622068E16800F5805013
:101DF00001612046FFF7D6FB6068164A81881164AE
:101E00000178C37841EA0361837840781B0443EA90
:101E10000020014351642068C16B41F40271C16329
:101E20002068D0F80C110C4A1143C0F80C1120683E
:101E3000D0F8101141F40311C0F81011C4F8885003
:101E40001020C4F884000020F8BD0000443802408F
:101E50000438014000800240600002007047704773
:101E60002DE9F84F4FF000075FEA01090446B84634
:101E700004D0D4F8840040285AD105E054F8880FE3
:101E800040F00100206053E0E66D4FF0000B04EBE2
:101E90008600856CE06EC0F1040A36E02868C00553
:101EA00003D5E869A067A86960672868800501D440
:101EB000E06F10B32868800503D5C4F860B0C4F89B
:101EC00064B02868C0F30D4000902868C00503D5B1
:101ED00028684FF001082067AA682A6204F180018F
:101EE000081F009B00F0B8F8206E401C2066616E51
:101EF000009808446066C5F820B0761C042E00D314
:101F0000361F04EB86007F1C856C2868002804DBE4
:101F1000574502D2B8F1000FC0D0E06EC019E0669C
:101F200002D02046FFF7A0FDE665B8F1010F02D010
:101F30000120BDE8F88FE16FC9F800100020C4F857
:101F40007CB0F6E72DE9F04198460368054618692C
:101F500000F01C044FF6FF7000EAC1204FF4F86156
:101F6000204301EA8211014321F0020040F0010404
:101F70001C6100F095FA06464FF480370AE000BF76
:101F800000F08EFA801BB84202D30120BDE8F08138
:101F900028680469E007F3D12868406981B200200D
:101FA000C8F80010F2E700002DE9F04700F118052D
:101FB0008046D5E90A64012719E000BF05EB8409D2
:101FC000761ED9F81400C0B1D8F80C1004EB8402C6
:101FD00051F8321000290DDB00F034F90021641CA7
:101FE000C9F81410042C00D3241FC5E90A640EB1EB
:101FF000002FE3D10020BDE8F087641C042CF6D349
:10200000241FF4E71CB504460D4807F0CBFC030081
:102010000FD003F1200020600A4818614FF4C0611E
:102020002068CDE9000100214122084609F0D0FED8
:102030001CBD054901200870002020601CBD000067
:102040004C61010855C40008040000200148806864
:1020500009F064BC0400002010B5002442F8204DB3
:102060001481538104681CB10C6822600A6004E08A
:102070000260FBE701891944018100680028F9D159
:1020800010BD10B519B1D0F88420102A01D001205C
:1020900010BDFFF769FC002010BD000070B50446BC
:1020A000D0F88400102801D0012070BD2020C4F891
:1020B00084000120A0650420E0662046FFF7D4FCE0
:1020C000206805680120FFF71FFD20680560206873
:1020D00000F58050816941F400518161206800F56C
:1020E0008050816941F0020181612046FFF78FFA3B
:1020F0002068016841F0080101602068056801203E
:10210000FFF702FD206805602068016841F00401C6
:102110000160206800F58050C169044A1143C16123
:102120004020C4F88400002070BD0000C1A0010060
:1021300070B50446D0F88400402801D0012070BD5D
:102140002020C4F88400206800F58050C1691F4A2F
:102150001140C161206800F58050816921F400516F
:102160008161206800F58050816921F00201816160
:102170002068016821F004010160206805680120E1
:10218000FFF7C2FC206805602046FFF740FA206890
:10219000016821F008010160206805680120FFF74F
:1021A000B3FC20680560002004EB8001896C4A685C
:1021B00042F000424A60401C0428F5D30020A0658C
:1021C0001020C4F88400002070BD00003E5FFEFFB8
:1021D00010B5044621B1D4F88400402805D010E0A1
:1021E00054F8880F40F001000AE0486BE0630122D8
:1021F0002046FFF79BFA30B154F8880F40F00200F8
:102200002060012010BDBFF34F8FA06A401CA06268
:10221000042801D3001FA062206800F580504169A6
:10222000490706D5042141612068002100F580504E
:102230004160002010BD00000148C06809F06EBB7D
:10224000040000200AF054B8704700002DE9F04166
:1022500006680546306900F01C044FF6FF7000EA7E
:10226000C1204FF4F861204301EA8211014398B282
:1022700041F0030470612868046100F011F906461A
:102280004FF480370AE000BF00F00AF9801BB84223
:1022900002D30120BDE8F08128680469E007F3D18A
:1022A000F8E700002DE9F84FDFF8BCA10022012576
:1022B00003264FF00F090AF1040BAAF1040E00BF28
:1022C0000B6805FA02F42340A34270D10F7907F09E
:1022D0000307012F01D0022F16D187684FEA420869
:1022E00006FA08FC27EA0C07D1F80CC00CFA08FC27
:1022F0004CEA070CC0F808C04768A7430C79C4F340
:10230000001494403C4344600C79E443A4070AD091
:10231000C4684FEA420C06FA0CF7BC438F6807FA10
:102320000CF72743C7600C7904F00304022C12D188
:10233000D40800EB840CDCF820405707FF0E09FAA4
:1023400007F824EA0804D1F8108008FA07F848EAE8
:102350000408CCF8208004684FEA420C06FA0CF717
:10236000BC430F7907F0030707FA0CF72743076010
:102370004C6814F4403F70D03C4C276847F48047C9
:102380002760246822F0030704F480440094384C4A
:1023900007EB040CDCF8084897074FEA177809FAAE
:1023A00008F7BC43334FB84202D1002724E054E081
:1023B000314FB84201D101271EE0304FB84201D160
:1023C000022719E02E4FB84201D1032714E02D4F08
:1023D000B84201D104270FE02B4FB84201D10527A5
:1023E0000AE02A4FB84201D1062705E0284FB8423B
:1023F00001D1072700E0082707FA08F72743CCF8A0
:102400000878DAF800405746D1F804C09C435FEAE8
:10241000CC2C00D51C433C60DBF800405F46D1F873
:1024200004C09C435FEA8C2C00D51C433C60DEF862
:1024300000407746D1F804C09C435FEA8C3C00D54D
:102440001C433C60084F083F3C68D1F804C09C43E3
:102450005FEACC3C00D51C433C60521C102AFFF4C0
:102460002FAFBDE8F88F0000083C0140443802401F
:102470000030014000000240000402400008024019
:10248000000C0240001002400014024000180240FC
:10249000001C02400AB1816170470904FBE700009B
:1024A00001488068704700003000002002488168C1
:1024B0000278114481607047300000200B4810B54D
:1024C000016841F400710160016841F480610160BC
:1024D000016841F480710160032000F009F90F20C8
:1024E00000F006F800F050F8002010BD003C02405B
:1024F00030B505461F4887B00024016841F010013F
:102500000160006806A900F01000009001A800F02A
:102510009BF90498A8B100F0B7F940001649174A92
:10252000B0FBF1F11648491E026040F2E732C0E903
:102530000324C0E90114846100F020FC040003D0EE
:1025400015E000F0A1F9E9E70D4800F079FC04007E
:102550000DD1362000F09EF8102D07D2002229461A
:10256000362000F0A5F80748056000E0012407B018
:10257000204630BD4038024040420F00001000406D
:102580003C02002034000020F0B53E4887B0002413
:10259000016841F480410160006800F480400590CA
:1025A0003848001F016841F08051016000682246F0
:1025B00000F0805005900F21A01E00F079F8142142
:1025C0006846FEF711F92F481438016841F00101FF
:1025D0000160016801F001010591016841F0040109
:1025E0000160016801F004010591016841F04001BA
:1025F0000160016801F040010591016841F000713E
:102600000160016801F000710591016841F080618D
:102610000160016801F080610591016841F000618D
:1026200001600068022500F0006005908620CDE979
:10263000000502AA03260B2782E8D000694612484B
:10264000FFF730FE3220CDE9000502AA694682E894
:10265000D0000E48FFF726FE4FF4D040CDE900052C
:1026600002AA694682E8D0000948FFF71BFE002253
:1026700005213D2000F01CF83D2000F00BF807B0CC
:10268000F0BD000044380240000002400008024053
:1026900000180240002809DB00F01F0201219140D0
:1026A0004009800000F1E020C0F8001170470000F0
:1026B000F0B40E4B1B680C46C3F30223C3F10705AD
:1026C000042D00D90425191D072901D2002300E09B
:1026D000DB1E012606FA05F1491E214099409E4065
:1026E000761E16403143F0BC01F0ACBD0CED00E0AD
:1026F000064900F0070208684FF6FF03184040EA59
:102700000220034A10430860704700000CED00E00F
:102710000000FA052DE9F0470E46050065D0DFF808
:102720001481D8F80000F7B200F00700B04207D2D9
:1027300088F80070D8F8000000F00700B04254D1CB
:1027400028683D4C810712D5400703D5206840F426
:10275000E05020602878000703D5206840F46040EE
:1027600020602068A96820F0F000084320602878E5
:10277000C0072DD0304968680839012812D00228D6
:1027800013D0032811D00968890700292DDA2168A0
:1027900021F0030101432160FFF782FE814641F2EF
:1027A000883A0EE009688903EFE709688901ECE7D8
:1027B000FFF776FEA0EB0901514502D90320BDE8E1
:1027C000F0872068696800F00C00B0EB810FEFD152
:1027D000D8F80010404601F00701B14207D9077050
:1027E000006800F00700B04201D00120E7E7287838
:1027F000400705D52068E96820F4E05008432060D0
:102800002878000706D52068296920F4604040EA4E
:10281000C100206000F058F82168084AC1F3031194
:10282000515CC8400649086006480068FFF760FE32
:102830000020C4E7003C024008380240586101080B
:102840003C000020340000200F2202600C4A136874
:1028500003F003034360136803F0F003836013681D
:1028600003F4E053C36012684FF4E05303EAD2026A
:1028700002610448006800F007000860704700002B
:1028800008380240003C02400448054900680968D5
:10289000044AC1F38221515CC84070473C000020CB
:1028A0000838024068610108044805490068096861
:1028B000044AC1F34231515CC84070473C000020DB
:1028C0000838024068610108154810B5006810F02A
:1028D0000C02144813D04110042A0FD0082A0ED13C
:1028E0000F4C241F2268236802F03F025B0207D5C9
:1028F0002068C0F38810A0FB010106E0084610BD67
:102900002168C1F38811A1FB00010023FDF768FDD8
:102910002168C1F30141491C4900B0FBF1F010BD31
:10292000083802400024F4002DE9F84F04006ED06E
:102930002078DFF84C93C007A9F104054AD009F1CB
:1029400004000168C1F38101012908D00068C0F3C7
:10295000810002280AD1D9F80000400206D5286873
:10296000800337D560680028E1D033E06068B0F5B7
:10297000803F10D0B0F5A02F286810D020F4803010
:102980002860286820F4802028606068A8B1FFF7DC
:1029900087FD06460DE0286840F48030F4E740F4F7
:1029A00080202860F7E700BFFFF77AFD801B6428CE
:1029B00073D828688003F7D50CE0FFF771FD064651
:1029C00005E000BFFFF76CFD801B6428F0D8286885
:1029D0008003F7D42078DFF8AC8280074FF0000A3C
:1029E0003ED5A748001D016811F00C0F08D0006803
:1029F000C0F3810002280BD1D9F80000400207D4AF
:102A00002868800716D5E068012800D112E033E17C
:102A1000E068B8B10120C8F80000FFF741FD0646A4
:102A200005E000BFFFF73CFD801B0228C0D82868E6
:102A30008007F7D52868216920F0F80040EAC10036
:102A400028600DE0C8F800A0FFF72AFD064604E064
:102A5000FFF726FD801B02281FD828688007F7D4BF
:102A60002078000722D5864F87486169703771B199
:102A700001210160FFF714FD064604E0FFF710FD99
:102A8000801B022809D838688007F7D50EE0C0F807
:102A900000A0FFF705FD064605E082E0FFF700FD18
:102AA000801B02287DD838688007F7D4207840073B
:102AB00068D5DFF8CCB100270BF13C0BDBF8000048
:102AC000C0000BD4DBF8001041F08051CBF80010AF
:102AD000DBF80000012700F0805000906B4E30685A
:102AE000C00510D4306840F480703060FFF7D8FC27
:102AF000009005E0FFF7D4FC0099401A022850D856
:102B00003068C005F6D55E4EA0686C3601280FD03F
:102B10000528306810D020F001003060306820F0C7
:102B200004003060A068B8B1FFF7BAFC00900FE075
:102B3000306840F00100F4E740F004003060F7E74F
:102B4000FFF7AEFC0099411A41F28830814266D805
:102B500030688007F4D50EE0FFF7A2FC009007E094
:102B6000FFF79EFC0099411A41F28830814256D805
:102B700030688007F4D42FB1DBF8001021F08051C9
:102B8000CBF80010A069C8B33D49091D0968C1F31D
:102B9000810102294AD00228504607D0C8F86000B7
:102BA00000E03CE0FFF77CFC04463BE04746C8F809
:102BB0006000FFF775FC064605E000BFFFF770FCFC
:102BC000801B02282BD828688001F7D4D4E907019C
:102BD0000843A16A2E4A490802EB0141626A41EAB0
:102BE0008211084394F82C1040EA0161C9F80010E2
:102BF00001203866FFF754FC044606E03EE000BFC3
:102C0000FFF74EFC001B022809D828688001F7D581
:102C100034E000BFFFF744FC001B022802D9032068
:102C2000BDE8F88F28688001F4D427E00128F7D0A8
:102C3000D9F80000E26900F4800191421CD1226AB7
:102C400000F03F01914217D147F6C071626A01401E
:102C5000B1EB821F10D1A26A4FF0FF3300F4403174
:102C600003EB5202B1EB024F06D194F82C1000F0A6
:102C70007060B0EB016F01D00120D1E70020CFE7F9
:102C80000438024000004742800E47420070004076
:102C90000000FFFF7047704710B590F83C20012AF4
:102CA00022D0012280F83C20CA688C6822F440724D
:102CB00022434C6822F4806222430C6822F40062B2
:102CC00022430C6922F4805222434C6922F40052C0
:102CD0002243C969002322F480420A4301684A64FE
:102CE00080F83C30002010BD022010BD70B590F877
:102CF0003C20012A32D0012480F83C40022280F896
:102D00003D2003685A689D6822F070060A683243C5
:102D10005A60134B02689A4214D0B2F1804F11D01E
:102D2000104B9A420ED0104B9A420BD00F4B9A4246
:102D300008D00F4B9A4205D00E4B9A4202D00E4B50
:102D40009A4204D1496825F080031943916080F8C4
:102D50003D40002180F83C10084670BD022070BD47
:102D6000000001400004004000080040000C00404A
:102D700000040140004001400018004010B504006C
:102D800003D094F83D0010B107E0012010BD0020F1
:102D900084F83C00204600F01FF8022084F83D0033
:102DA000211D206800F024FE012084F8460084F8EC
:102DB0003E0084F83F0084F8400084F8410084F825
:102DC000420084F8430084F8440084F8450084F805
:102DD0003D00002010BD000010B586B0044614214F
:102DE0006846FDF701FD13492068884220D112484A
:102DF0000021026842F001020260006800F0010058
:102E000005900D481438026842F002020260006822
:102E100000F0020005904FF4805000900220CDE9B0
:102E200001010120CDE9031069460448FFF73AFA91
:102E300006B010BD000001404438024000040240CA
:102E400090F83D10012901D001207047022180F83F
:102E50003D100168CA6842F00102CA600068114969
:102E6000884214D0B0F1804F11D00F4988420ED063
:102E70000E4988420BD00E49884208D00D4988423D
:102E800005D00D49884202D00C49884204D181689E
:102E900001F00701062903D0016841F0010101603A
:102EA000002070470000014000040040000800407E
:102EB000000C0040000401400040014000180040A8
:102EC00070B5044690F83C000025012817D0012673
:102ED00084F83C60022084F83D002068826822F07B
:102EE000770222F47F4282600868502838D00DDCD7
:102EF00020284FD005DC90B3102811D14AE00220E1
:102F000070BD302846D040280AD13BE060282FD041
:102F100070280DD0B0F5805F03D0B0F5005F12D0FF
:102F2000012584F83D60002084F83C00284670BDEF
:102F3000CB68D1E90121206800F0C2FD20688168DA
:102F400041F0770109E0CB68D1E90121206800F068
:102F5000B7FD2068816841F480418160E1E719E0B4
:102F6000CA684968206800F07FFE5021206806E0AA
:102F7000CA684968206800F088FE6021206800F077
:102F8000A9FDCEE7CA684968206800F06DFE4021BF
:102F90002068F4E7226801461046F0E770472DE903
:102FA000F04104460068C66805694FF00007A907AC
:102FB00013D5B10711D5F91E0161012020772068D2
:102FC00080698007204602D0FFF7E8FF04E000F0A8
:102FD000E8F8204600F0A8F92777680716D57007AB
:102FE00014D521686FF00400086102202077206862
:102FF000806910F4407F204602D0FFF7CFFF04E045
:1030000000F0CFF8204600F08FF92777280715D574
:10301000300713D521686FF008000861042020777D
:103020002068C0698007204602D0FFF7B7FF04E0A0
:1030300000F0B7F8204600F077F92777E80616D5B4
:10304000F00614D521686FF0100008610820207781
:103050002068C06910F4407F204602D0FFF79EFF31
:1030600004E000F09EF8204600F05EF92777E807BC
:1030700008D0F00706D021686FF0010008612046F3
:1030800000F054F9280608D5300606D521686FF0FF
:10309000800008612046FFF7FDFD680608D5700630
:1030A00006D521686FF040000861204600F048F91D
:1030B000A8060AD5B00608D521686FF0200008617F
:1030C0002046BDE8F041FFF7E6BDBDE8F081000015
:1030D000F0B587B0044614216846FDF785FB184912
:1030E000206888422AD117480024016841F0020173
:1030F0000160016801F002010591016841F00101E0
:1031000001600068022500F0010005904FF4604066
:10311000CDE9000502AA0326012782E8D00069460E
:103120000948FFF7BFF84FF4E060CDE9000502AAB7
:10313000694682E8D0000548FFF7B4F807B0F0BD53
:10314000000001403038024000040240000002400C
:1031500070B5044690F83C00002501280FD00120EE
:1031600084F83C006AB1042A0FD0082A11D00C2A36
:1031700013D00125002084F83C00284670BD0220B1
:1031800070BD206800F0AEFCF4E7206800F0DAFCC7
:10319000F0E7206800F00CFDECE7206800F03CFD53
:1031A000E8E7704710B5040003D094F83D0010B173
:1031B00007E0012010BD002084F83C00204600F00C
:1031C0001EF8022084F83D00211D206800F010FC4C
:1031D000012084F8460084F83E0084F83F0084F81B
:1031E000400084F8410084F8420084F8430084F8E9
:1031F000440084F8450084F83D00002010BD70476D
:1032000070B5044690F83C0000260D4601280FD00A
:10321000012084F83C006AB1042A1DD0082A2FD06E
:103220000C2A3FD00126002084F83C00304670BDB7
:10323000022070BD206800F055FC2068816941F0D3
:10324000080181612068816921F0040181612068A1
:1032500081692A69114311E0206800F073FC20683D
:10326000816941F4006181612068816921F4806194
:103270008161206881692A6941EA02218161D2E77E
:10328000206800F095FC2068C16941F00801C16127
:103290002068C16921F00401C1612068C1692A69FF
:1032A000114311E0206800F0B7FC2068C16941F4C7
:1032B0000061C1612068C16921F48061C161206839
:1032C000C1692A6941EA0221C161ACE710B5040075
:1032D00003D094F83D0010B107E0012010BD00209C
:1032E00084F83C00204600F01EF8022084F83D00DF
:1032F000211D206800F07CFB012084F8460084F842
:103300003E0084F83F0084F8400084F8410084F8CF
:10331000420084F8430084F8440084F8450084F8AF
:103320003D00002010BD7047704700000068034951
:10333000884201D1FFF7BAB8704700000010004082
:10334000704770B5040004D094F84100002510B116
:1033500006E0012070BD84F84050204600F024F8BB
:10336000242084F841002068C16821F40051C16024
:10337000204600F0C3FC2068016921F490410161FE
:103380002068416921F02A0141612068C16841F447
:103390000051C1606564202084F8410084F8420037
:1033A0006563002070BD000010B586B0044614218E
:1033B0006846FDF719FA13492068884220D112485F
:1033C0000021026842F010020260006800F0100064
:1033D00005900D481438026842F00202026000684D
:1033E00000F002000590C02000900220CDE901010C
:1033F000032003900720049069460448FEF752FF1B
:1034000006B010BD001001404438024000040240E4
:103410002DE9F843044690F84100984616460D46BB
:10342000202802D00220BDE8F88385B17EB10020BB
:103430006064212084F84100FFF732F8A6848146B9
:10344000E684A0682027B0F5805F02D003E0012069
:10345000E9E7206910B12E4600250EE000260CE0B9
:103460008021204600F0D0FCA8B9C6B116F8010BA7
:1034700021684860E08C401EE084E08C4B464FF0B1
:103480000002CDF800800028EAD14FF0400120462C
:1034900000F0BAFC40B184F841700320C3E735F86E
:1034A000020BC0F30800E3E784F841700020BAE79C
:1034B000FEE7000010B5044A0021044808F05AFA5B
:1034C0000349086010BD00002861010805390008A3
:1034D000000000202DE9F04387B014216846FDF775
:1034E00083F943480025016841F01001016001683B
:1034F00001F010010591016841F4807101600168DB
:1035000001F480710591016841F0040101600168D6
:1035100001F004010591016841F02001016001689A
:1035200001F020010591016841F08001016001680E
:1035300001F080010591016841F00101016001681D
:1035400001F001010591016841F00201016001688B
:1035500001F002010591016841F04001016000683D
:10356000012200F04000234F1602059031463846F4
:10357000FEF790FFDFF88080002240F201414046D4
:10358000FEF788FFDFF87490012203214846FEF71A
:1035900081FF1C20CDE900050124694602944846BC
:1035A000FEF780FECDE9006469463846CDE9024564
:1035B000FEF778FE022003950094CDE901406946AC
:1035C0004046FEF76FFEA0028DE831006946404696
:1035D0000395FEF767FE0320CDE9000469464846DF
:1035E000CDE90245FEF75EFE07B0BDE8F0830000BE
:1035F0003038024000200240001402400010024017
:10360000FEB54F4CC020251D2070A820607073208F
:10361000A0701E20E070FF20287068700027A8703E
:103620002E1DEF7037707770B770F77039463846D7
:1036300010F040FA208841BA0A04A17842EA012336
:10364000E27844BA2404134344EA01241B06A4B2DA
:1036500043EA042344BA40BA000440EA0120E4B239
:1036600043EA04231043A5F1100143EA1060086007
:10367000288841BA0A04A97844BA42EA0123EA78C0
:103680002404134344EA01241B06A4B243EA04239E
:1036900044BA40BA000440EA0120E4B243EA0423F9
:1036A0001043A5F10C0143EA10600860308841BA6C
:1036B0000A04B17844BA42EA0123F278240413439D
:1036C00044EA01241B06A4B243EA042344BA40BAE4
:1036D000000440EA0120E4B243EA0423104343EA31
:1036E0001060A5F10801A5F1080308601548164906
:1036F0000097CDE901101A1F111F144807F06EFB47
:10370000124807F0A5FD114807F0B6FE10490F4812
:1037100007F0F8FD0D4824213430FDF765F80B481B
:103720000CA13430024601604FF4806141611021E8
:10373000816103B00549BDE8F040084808F01AB9B6
:1037400024000020853C0108E9550008504E002067
:10375000DD5400084574684C696E6B00DF54000846
:1037600030B595B000240F941094119412941394D2
:103770001C2168461494FDF737F8202107A8FDF7AF
:1037800033F834483249C0E900142021816041F205
:103790006701C0E9031444618461FFF7EFFA08B1DF
:1037A000FEF7B0F94FF480550FA92A480F95FFF79F
:1037B00087FB08B1FEF7A6F92648FFF787FD08B199
:1037C000FEF7A0F92348FFF7EDFC08B1FEF79AF9E0
:1037D000139413A91F481494FFF788FA08B1FEF751
:1037E00091F96020CDE900040294039404940594B7
:1037F0000022694617480694FFF702FD08B1FEF75C
:1038000081F9042269461348FFF7FAFC08B1FEF774
:1038100079F9082269460F480094FFF799FC08B12E
:10382000FEF770F9079454200894CDE909404FF44D
:1038300000500E94CDE90B5007A90648FFF72CFA6B
:1038400008B1FEF75FF90348FFF742FC15B030BD41
:1038500000000140AC0100200C4810B50A4901608D
:103860004FF4E1314160002181600C22C160C0E968
:1038700004128161C161FFF764FD002803D0BDE837
:103880001040FEF73FB910BD00100140F4010020C8
:1038900030B593B024216846FCF7A6FF0FA0009036
:1038A0004FF400641820CDE905406A4600210E4817
:1038B00008F060F80D4D2421686009A8FCF794FF1A
:1038C0000BA009901020CDE90E4009AA00210B4859
:1038D00008F050F8A86013B030BD00005463705376
:1038E00065727665720000000340000894010020B4
:1038F000546370436C69656E74000000FB3F000800
:10390000FEE7FEE7FFF77CFEFFF7C2FF0348006813
:1039100011F04CFB012007F0FFFDFBE70000002049
:1039200010B54FF0E020006912F0E8F9012803D04B
:10393000BDE8104011F004BD10BD000030B593B0DB
:1039400030216846FCF750FF14210CA8FCF74CFF0F
:103950001E480025016841F080510160006800F0B8
:10396000805011901A48016841F48041016000685C
:10397000022400F480401190012000900004019086
:103980008001CDE90640082008904FF4A870CDE9E9
:10399000090404200B906846FEF7C6FF08B172B612
:1039A000FEE70CA90F2081E831004FF4A0500F90E2
:1039B0004FF48050109005210CA8FEF7ABFE0028B4
:1039C00001D072B6FEE713B030BD000040380240AF
:1039D000007000400248016841F4700101607047C6
:1039E00088ED00E00148FFF7DABA00003C02002051
:1039F000F0B50268274B284D284E294F294C4FF02F
:103A0000804C984209D0604507D0A84205D0B0420A
:103A100003D0B84201D0A04204D122F0700E4A680F
:103A200042EA0E0298421BD0604519D0A84217D036
:103A3000B04215D0B84213D0A04211D01A4DA842BE
:103A40000ED01A4DA8420BD0194DA84208D0194DDE
:103A5000A84205D0184DA84202D0184DA84203D163
:103A600022F44075CA682A434D6922F080022A4335
:103A70008D68C5620D688562984201D0A04201D16F
:103A800009690163016841F004010160012141619C
:103A90000260F0BD0000014000040040000800404A
:103AA000000C00400004014000400140004401407F
:103AB0000048014000180040001C00400020004069
:103AC00010B5846842EA032224F47F440A43224367
:103AD000826010BD826822F070020A4342F0070142
:103AE00081607047F0B5036A026A22F00102026247
:103AF00042688469124E24F073050C682C4323F04D
:103B000002058B682B430D4DA84201D0B04205D170
:103B100023F00807CB683B4323F00403A84201D0FD
:103B2000B04205D14D6922F4407215438A692A4397
:103B300042608461496841630362F0BD0000014056
:103B400000040140F0B5026A036A23F01003036227
:103B5000436884690D6824F4E64444EA05248D68CA
:103B600022F0200242EA05120F4D104EA84201D069
:103B7000B04206D1CF6822F0800242EA071222F05A
:103B80004002A84201D0B04207D14D6923F44063FE
:103B900043EA85038D6943EA85034360846149688C
:103BA00081630262F0BD000000000140000401409A
:103BB000F0B5026A036A23F4807303624368C46940
:103BC00022F4007224F073050C68124E2C438D68A9
:103BD00042EA05220E4DA84201D0B04206D1CF687C
:103BE00022F4006242EA072222F48062A84201D055
:103BF000B04207D14D6923F4405343EA05138D6960
:103C000043EA05134360C4614968C1630262F0BDC1
:103C1000000001400004014030B5046A026A22F449
:103C2000805202624268C3690D6823F4E64343EAA6
:103C300005238D6824F4005444EA0534084DA84255
:103C400002D0084DA84204D14D6922F4804242EAD4
:103C500085124260C36149680164046230BD00009E
:103C6000000001400004014010B5036A046A24F01A
:103C700001040462846924F0F00444EA021423F08D
:103C80000A020A438461026210BD10B5036A046A25
:103C900024F010040462846923F0A00324F4704427
:103CA00044EA023243EA01118261016210BD0168F7
:103CB0000C3151E8002F22F4907241E80023002BD0
:103CC000F5D10168143151E8002F22F0010241E8DA
:103CD0000023002BF5D1016B012909D101680C31BA
:103CE00051E8002F22F0100241E80023002BF5D10B
:103CF000202180F8421000210163704770B504460E
:103D000000680169E26821F44051114301612169B1
:103D1000A068E26908436169114308432168CA68E1
:103D200049F20C639A430243CA6020684169A26960
:103D300021F440711143416131492068884202D029
:103D40003049884202D1FEF7AFFD01E0FEF79CFD4D
:103D5000E2690023192164253226B2F5004F62681A
:103D600028D0A0FB0101930F9200FCF739FB01461C
:103D7000B0FBF5F06FF01802504301EB800006EB4A
:103D80000010B0FBF5F000F0F002B1FBF5F002EB33
:103D90000012B1FBF5F06FF01803584301EB8000FF
:103DA00006EB0010B0FBF5F000F00F0021681044A6
:103DB000886070BDA0FB010192185B41FCF710FB0D
:103DC0000146B0FBF5F00201B1FBF5F06FF018030E
:103DD000584301EB800006EBC000B0FBF5F000F0AB
:103DE000F80002EB4002B1FBF5F0584301EB800014
:103DF00006EBC000B0FBF5F000F00700D6E70000CE
:103E000000100140001401402DE9F8439846174680
:103E10000D460446089E24E0701C22D0FEF740FBAD
:103E2000A0EB0800B0421AD8CEB12068C16849079B
:103E300017D5802D15D0402D13D00168C94309072F
:103E40000FD401680025406800902046FFF72FFF3F
:103E50000820606484F840500120BDE8F883032006
:103E6000FBE72068006835EA000004D00020B84273
:103E7000D2D00020F1E70120F9E7F8B50446002090
:103E8000009063696A460121206898476FF0040634
:103E9000002838DB63696A460121206898470028BA
:103EA00031DB0098400743D563696A4600212068EA
:103EB0009847002827DB0098C10408D44FF4045128
:103EC000814327D0810429D4C0052BD42EE0636917
:103ED0006A46012120689847002814DB0098800674
:103EE00001D40620F8BD63696A460421206898471A
:103EF000002808DB0098636985B26A4605212068BE
:103F00009847002801DA3046F8BD009880B2054095
:103F1000E80501D50220F8BD280601D50320F8BD2B
:103F2000680601D50420F8BDA80601D50520F8BD16
:103F30000120F8BD2DE9F843044600200546064659
:103F40000090606808BBA06800B1804720206FF037
:103F500004074FF6FF78206063696A46022128460D
:103F60009847002801DA3E4607E00099414504D011
:103F7000002625601F2D06D809E06D1C1F2DEBD9EA
:103F800025681F2D02D96FF0020602E00EB901204C
:103F900060603046BDE8F88388B1CA687AB18A6843
:103FA0006AB10A695AB10A6882604A68C260CA681E
:103FB00042618A68026109698161002070474FF09F
:103FC000FF307047FEE7000010B50446FCF77EFBAB
:103FD000214682B2BDE8104064230148FFF718BAB9
:103FE000F401002010B504460068002804DB03F04B
:103FF00079F84FF0FF30206010BD08B5684600F03A
:1040000049F808B5684600F0D9F870B586B005469D
:1040100001214FF4FA60CDE903010424002000944B
:10402000CDE901100A4604AB0621284604F0ACFD98
:1040300041F20602D61F03AB31462846009404F035
:10404000A3FD03ABB21D31462846009404F09CFD4D
:104050000820009001AB80223146284604F094FDF0
:1040600006B070BD2DE9F04115460E460746002406
:104070000BE02A1B31190023384604F0A5FC002868
:1040800002DC0020BDE8F0810444AC42F1DB0120F9
:10409000F8E7000086B000244FF47A75062201216B
:1040A000022004F069FF0090002823DBFFF7ADFF3A
:1040B000019402208DF8050002940394049441F2C7
:1040C000707003F013F9ADF806000E48006802F0B6
:1040D00059FD0290102201A9009803F06DF848B92B
:1040E0001D2209490098FFF7BDFF18B1284607F0C7
:1040F00013FAF5E7284607F00FFA6846FFF772FF54
:10410000CCE70000940100201063010830B587B0AF
:104110000C462448FFF758FF06220121022004F034
:104120002BFF05462046FFF75DFF2800206001D5E4
:104130001D482DE0FFF769FF01200590042120684C
:104140000A46009105AB40F6FF7104F01DFD00200A
:10415000019002900390049002208DF8050041F236
:10416000883003F0C3F8ADF80600102201A92068DA
:1041700002F04AFF002801DA0C4809E00C48FFF77A
:1041800023FF0121206803F0C5F8002805DA09485B
:10419000FFF71AFF002007B030BD0748FFF714FFF4
:1041A0000120F8E7A3630108B9630108D663010899
:1041B000F16301080864010825640108C2B00646DD
:1041C0004FF0FF344FF47A7541A930464194FFF720
:1041D0009DFF30B9284607F09FF941A8FFF702FF7D
:1041E000F2E71448FFF7F0FE00221146419802F072
:1041F00029FE4090002801DA0F4815E0FFF705FF7F
:104200000E48FFF7E1FE4FF4807400232246694612
:10421000409804F0A5F9021E05DD69464098FFF7B5
:1042200021FF0028F1D10648FFF7CEFE40A8FFF796
:10423000D9FED6E72E6301084963010866630108C9
:10424000866301080907090E002804DB00F1E0205D
:1042500080F80014704700F00F0000F1E02080F8B3
:10426000141D70472DE9F04790460E4604006FF08C
:10427000050555D004F11400814609F0D3FB002850
:104280004ED0EF1F002E3DD0B8F1000F06D032A364
:1042900040F22A223DA147A0FCF71AF92078E16AF2
:1042A00005F02CFD05004FF0FF383DD06E6009F0A1
:1042B000EBFA2946484609F0A9FBA0B36C68002137
:1042C000204609F0C7FE002120460DF013FC002116
:1042D00020460EF04FF90022114620460CF03EFC1D
:1042E000002120460AF02CFC0020686005F1100037
:1042F000044609F06FFB204609F085FB284605F0CF
:1043000065FF1FE0384604F081F80146484609F091
:104310007DFB28B9E36A1BB100221146204698476D
:104320002846BDE8F0870FE0384604F06FF80146F4
:10433000484609F06BFB28B9E36A1BB1002211461D
:10434000204698474046ECE7E36A1BB1002211463D
:10435000204698470020E4E72E2E2F4D6964646CB8
:104360006577617265732F54686972645F5061721A
:1043700074792F4C7749502F7372632F6170692FB6
:104380006170695F6D73672E63000000657870650A
:104390006374206E6577706362203D3D204E554CFE
:1043A0004C206F7220657272203D3D204552525F55
:1043B0004F4B0000417373657274696F6E20222544
:1043C0007322206661696C6564206174206C696E7B
:1043D0006520256420696E2025730A002DE9F041CF
:1043E000884607460024174D09F09AFA05EB041198
:1043F000096841B109F0BCFA641C0C2CF4DB4FF0E5
:10440000FF30BDE8F08105EB04152F6009F0B0FA2C
:1044100000266E60A87B002806D00BA340F20E2277
:1044200016A11EA0FCF754F82E8138780121B1EBBB
:10443000101F02D15FEA080000D001206881AE8120
:104440002046DEE77CDB00202E2E2F4D6964646C55
:104450006577617265732F54686972645F50617229
:1044600074792F4C7749502F7372632F6170692FC5
:10447000736F636B6574732E63000000736F636BFF
:104480006574735B695D2E73656C6563745F7761DA
:104490006974696E67203D3D20300000417373658B
:1044A0007274696F6E2022257322206661696C65C3
:1044B00064206174206C696E6520256420696E201B
:1044C00025730A0070B505460C46880706D009A377
:1044D0004FF4B67213A11BA0FBF7FAFF09F020FA04
:1044E000A96809682160A9680C60BDE8704009F0FE
:1044F0003FBA00002E2E2F4D6964646C657761729F
:1045000065732F54686972645F50617274792F4CBF
:104510007749502F7372632F636F72652F6D656DCE
:10452000702E63006D656D705F667265653A206D13
:10453000656D2070726F7065726C7920616C69674F
:104540006E656400417373657274696F6E20222515
:104550007322206661696C6564206174206C696EE9
:104560006520256420696E2025730A0070B5044615
:1045700009F0D6F90546A0680468002C0FD0216820
:104580000160A00706D008A34FF48C7212A11BA0F3
:10459000FBF79EFF284609F0EBF9204670BD284640
:1045A00009F0E6F9002070BD2E2E2F4D6964646C71
:1045B0006577617265732F54686972645F506172C8
:1045C00074792F4C7749502F7372632F636F726524
:1045D0002F6D656D702E63006D656D705F6D616C24
:1045E0006C6F633A206D656D702070726F706572CC
:1045F0006C7920616C69676E656400004173736556
:104600007274696F6E2022257322206661696C6561
:1046100064206174206C696E6520256420696E20B9
:1046200025730A002DE9F0470F46040006D141A387
:104630004FF4DC724CA150A0FBF74AFF09F070F96F
:1046400000266660277294F8261041F0010184F874
:1046500026106578667009F08BF9E36A7BB1002259
:10466000042120469847E36A4BB1002211462046B8
:104670009847E36A1BB1002202212046984738463A
:1046800003F0C4FE804604F11000814609F0CAF927
:1046900018B14146484609F0B9F904F114008146C1
:1046A00009F0C0F918B14146484609F0AFF9012DAB
:1046B0000FD0042D0DD0032D0BD0A06A002836D0CA
:1046C000BDE8F0471BA340F2F71235A12AA0FBF783
:1046D000FFBE94F82610C1F3800001F0FB0184F8BE
:1046E0002610002823D1A06A30B912A34FF4F37228
:1046F00032A121A0FBF7ECFEA06A042D08D00771BF
:10470000A06A05680C35284609F0C4F910B108E024
:104710000671F5E707A340F2EF122FA116A0FBF7F1
:10472000D7FE2846A662BDE8F04709F0B0B9BDE85B
:10473000F08700002E2E2F4D6964646C65776172DE
:1047400065732F54686972645F50617274792F4C7D
:104750007749502F7372632F6170692F6170695FA1
:104760006D73672E63000000636F6E6E20213D2025
:104770004E554C4C00000000417373657274696FB4
:104780006E2022257322206661696C656420617445
:10479000206C696E6520256420696E2025730A00EF
:1047A000636F6E6E2D3E63757272656E745F6D73AE
:1047B00067203D3D204E554C4C000000636F6E6EEF
:1047C0002D3E63757272656E745F6D736720213D57
:1047D000204E554C4C000000696E61766C69642077
:1047E0006F705F636F6D706C657465645F73656D2A
:1047F00000000000002802DC4142112901DB0520F5
:1048000070470249A1EB8000006870478061010891
:1048100070B5094D0646002404EB440005EBC000CA
:10482000017D29B18068B04202D1204600F036F9FE
:10483000641C0A2CF0DB70BDB81801202DE9F74F7D
:1048400084B04FF00A0B00240646DA465F46D9468C
:1048500002940194CDF80040514904EB440001EB6F
:10486000C008039098F814500A2F1DD0002D2AD0AC
:10487000012D08D0022D06D24AA340F2231257A1DF
:1048800066A0FBF725FE9EB13168D8F8040081428E
:104890000ED1069820B1D8F808100698814207D1A9
:1048A000204607B0BDE8F08F002DE1D127460AE091
:1048B000012D16D0022D06D3B8F8120000998842B7
:1048C00001D3A2460090641C24B20A2CC4DB0598D4
:1048D00081074FF0FF30E4D40A2F16D018DA3C4697
:1048E0003EE02F49039851F830000028B8F8120034
:1048F00005D002998842E6D3A1460290E3E70199E8
:104900008842E0D3A3460190DDE70599C907C8D0E6
:104910005146BAF10A0F0EDA0C46214801EB440168
:1049200050F8310080B11FA340F26D1245A13BA0A9
:10493000FBF7CEFD08E05946BBF10A0F03DB494601
:10494000B9F10A0FADDA0C460A2C06DB15A340F2CA
:104950007F1242A131A0FBF7BBFD204600F09EF87C
:104960000A2C06DB0FA340F283123CA12BA0FBF71D
:10497000AFFD0B4804EB440100EBC105287D30B1CD
:1049800008A34FF4C2723AA124A0FBF7A1FD0EB117
:1049900030686860002068820698A86080E70000A0
:1049A000B81801202E2E2F4D6964646C65776172F2
:1049B00065732F54686972645F50617274792F4C0B
:1049C0007749502F7372632F636F72652F6970760A
:1049D000342F6574686172702E63000073746174A3
:1049E00065203D3D204554484152505F5354415449
:1049F000455F50454E44494E47207C7C207374618E
:104A00007465203E3D204554484152505F53544107
:104A100054455F535441424C450000004173736557
:104A20007274696F6E2022257322206661696C653D
:104A300064206174206C696E6520256420696E2095
:104A400025730A006172705F7461626C655B695DF9
:104A50002E71203D3D204E554C4C000069203C20DD
:104A60004152505F5441424C455F53495A45000002
:104A70006172705F7461626C655B695D2E737461F5
:104A80007465203D3D204554484152505F53544188
:104A900054455F454D5054590000000070B5074C17
:104AA00000EB4005002654F8350018B107F020FC53
:104AB00044F8356004EBC500067570BDB8180120D8
:104AC0002DE9F04385B00D00074609D07C684FF40E
:104AD00080782088404539D12079062836D109E0F0
:104AE0001CA340F28A2229A12CA0FBF7F1FC05B0FF
:104AF000BDE8F0836079042828D16088082825D192
:104B0000D4F80E000490A169686820B1814202D1F6
:104B10000126334601E00026022304F108029146F3
:104B200004A9284600F0A2FBE08840450ED16EB1F2
:104B3000022204ABCDE90232291DCDE9001905F1AD
:104B4000260319464A46284600F090FA384607F0F0
:104B5000CFFBCCE72E2E2F4D6964646C65776172B4
:104B600065732F54686972645F50617274792F4C59
:104B70007749502F7372632F636F72652F69707658
:104B8000342F6574686172702E6300006E657469FD
:104B90006620213D204E554C4C000000417373654A
:104BA0007274696F6E2022257322206661696C65BC
:104BB00064206174206C696E6520256420696E2014
:104BC00025730A00FEB515460E46040006D143A320
:104BD00040F21E324FA153A0FBF77AFC36B93FA337
:104BE00040F21F3259A14FA0FBF772FC35B93BA32D
:104BF0004FF4487258A14BA0FBF76AFC2146286885
:104C000000F0B6FF08B1584B3FE02868C0F303112D
:104C10000E2925D0A168636800EA01020B409A4280
:104C200008D080B2A0F57E41A93903D0E068B0B3C6
:104C300004F10C054D4B4E481A7802EB420100EB93
:104C4000C1010F7D022F2ED38F68A7422BD12F6871
:104C500049688F4227D13146204600F08BF8FEBDCF
:104C600001208DF8040000208DF805005E208DF8ED
:104C70000600687801AB00F07F008DF80700A87887
:104C80008DF80800E8788DF809004FF40060009076
:104C900004F126023146204600F02AFCFEBDFFE763
:104CA0006FF00300FAE7002202EB420100EBC101C2
:104CB0000F7D022F08D38F68A74205D12F6849685E
:104CC0008F4201D11A70C6E7521CD2B20A2AEBD326
:104CD00032462946204600F0D5F8DFE72E2E2F4D2C
:104CE0006964646C6577617265732F546869726476
:104CF0005F50617274792F4C7749502F7372632F14
:104D0000636F72652F697076342F65746861727095
:104D10002E6300006E6574696620213D204E554C5F
:104D20004C000000417373657274696F6E20222518
:104D30007322206661696C6564206174206C696E01
:104D40006520256420696E2025730A007120213DAD
:104D5000204E554C4C000000697061646472202143
:104D60003D204E554C4C0000706101088001002030
:104D7000B81801202DE9F8430646154688461C4818
:104D800002EB450100EBC104207D022806D219A3E5
:104D900040F2EE2225A131A0FBF79AFB144A05EB65
:104DA0004501207D02EBC1050C35022813D1608A34
:104DB0000327B0F58E7F04D9211D304600F010FA8C
:104DC00007E0B0F5877F06D32A46211D304600F064
:104DD0000DFA00B927754FF4006000902B4606F1DC
:104DE00026024146304600F083FBBDE8F883000010
:104DF000B81801202E2E2F4D6964646C657761729E
:104E000065732F54686972645F50617274792F4CB6
:104E10007749502F7372632F636F72652F697076B5
:104E2000342F6574686172702E6300006172705F68
:104E30007461626C655B6172705F6964785D2E732A
:104E400074617465203E3D204554484152505F5383
:104E5000544154455F535441424C4500417373657E
:104E60007274696F6E2022257322206661696C65F9
:104E700064206174206C696E6520256420696E2051
:104E800025730A002DE9FC5F8246263001900E460C
:104E9000086814464FF0FF374FF0000B514600F002
:104EA00067FE80B93068C0F303110E290BD056B1EC
:104EB00048B1524601213046FFF7C0FC050005D538
:104EC00040B2BDE8FC9F6FF00F00FAE77F2D06D3DC
:104ED00037A340F2C13244A147A0FBF7F9FA05F02D
:104EE000FF094F4909EB490801EBC805287D002857
:104EF0000ED0012808D0022806D22DA340F2CD32D0
:104F000048A13DA0FBF7E4FABBF1000F06D104E095
:104F100001202875C5F808A000E034B93146504694
:104F200000F05EF90746002CCBD0287D3C4E0228CD
:104F30000ED346494FF4006005F10C0381F8009050
:104F4000009021465046019A00F0D2FA07462DE023
:104F500001282BD1254640F2F137688929898842FA
:104F600007D1286828B112A33A4639A122A0FBF73D
:104F7000AFFA287B400607D522464FF420710E2059
:104F800006F0ECFF044605E02D68002DE5D1204633
:104F900007F05CFB44B156F8380008B107F0A8F9F7
:104FA00046F83840002701E04FF0FF37384688E7E1
:104FB0002E2E2F4D6964646C6577617265732F5472
:104FC000686972645F50617274792F4C7749502F11
:104FD0007372632F636F72652F697076342F6574F7
:104FE000686172702E63000074797065206F766559
:104FF00072666C6F77000000417373657274696F3D
:105000006E2022257322206661696C6564206174BC
:10501000206C696E6520256420696E2025730A0066
:10502000B81801206172705F7461626C655B695DC4
:105030002E7374617465203D3D2050454E44494EA9
:1050400047206F7220535441424C4500800100209C
:105050006E6F207061636B65742071756575657323
:1050600020616C6C6F776564210000002DE9FF4FB3
:1050700081B09846DDE90FA9DDF838B006004FF0A1
:10508000000706D12CA340F2574239A13CA0FBF700
:105090001FFA4FF420721C210E2006F013FD0500AC
:1050A00046D068891C2806D223A340F262423EA162
:1050B00033A0FBF70DFA6C68119802F017F9E08045
:1050C00096F82C00062806D01BA340F269424349FB
:1050D0002BA0FBF7FDF9D8F80010A160B8F8040088
:1050E000A081DAF80010C4F81210BAF80400E082C7
:1050F000DBF80000C4F80E00D9F80000A0614FF4FE
:10510000807020800820608006202071042060715B
:1051100040F60600DDE9022300902946304600F003
:10512000E7F9284607F0E4F8384605B0BDE8F08F07
:105130004FF0FF30F9E700002E2E2F4D6964646CAC
:105140006577617265732F54686972645F5061722C
:1051500074792F4C7749502F7372632F636F726588
:105160002F697076342F6574686172702E63000049
:105170006E6574696620213D204E554C4C00000040
:10518000417373657274696F6E20222573222066E5
:1051900061696C6564206174206C696E65202564AA
:1051A00020696E2025730A00636865636B2074684C
:1051B0006174206669727374207062756620636121
:1051C0006E20686F6C6420737472756374206574EC
:1051D000686172705F6864720000000028650108F1
:1051E000014A00F003B80000706101087FB5064D68
:1051F000031D0124CDE90035CDE9021422331946FF
:10520000FFF734FF04B070BD7661010870B5164D2C
:10521000002400BF04EB440005EBC002117DF1B196
:10522000508A401C80B25082B0F5967F0AD2012984
:1052300006D003290AD004290AD001290BD00EE098
:10524000052808D32046FFF729FC08E0042000E0E9
:105250000220107503E0111D9068FFF7C1FF641C68
:105260000A2CD7DB70BD0000B8180120F8B5044641
:1052700090F82C001F4616460D46062806D020A39F
:1052800040F2A9122CA135A0FBF722F99DB12868A4
:1052900088B1214600F06CFC68B92878C0F303108F
:1052A0000E2808D0224639462846FFF7C7FA0028BC
:1052B00004DA40B2F8BD6FF00F00F8BD00EB40011A
:1052C0003048022300EBC102137594603368D36049
:1052D000B38813820023538250F8315075B140F8DF
:1052E00031304FF400600090334604F12602294625
:1052F000204600F0FDF8284606F0FAFF0020F8BD31
:105300002E2E2F4D6964646C6577617265732F541E
:10531000686972645F50617274792F4C7749502FBD
:105320007372632F636F72652F697076342F6574A3
:10533000686172702E6300006E657469662D3E6848
:1053400077616464725F6C656E203D3D2045544812
:105350005F4857414444525F4C454E00417373656A
:105360007274696F6E2022257322206661696C65F4
:1053700064206174206C696E6520256420696E204C
:1053800025730A00B81801202DE9F0410446408930
:105390000E270D460E283CD9E07B18B995F8300051
:1053A000401CE073606801788689CA0714D001291F
:1053B00005D006221C49FBF75DF948B10CE04178A5
:1053C00051B980785E2807D1607B40F0100002E080
:1053D000607B40F008006073082E03D0B6F5C16F03
:1053E00017D10DE095F82D00000712D5394620465B
:1053F00007F07AF968B92946204600F001FD10E06F
:1054000095F82D00000704D53946204607F06CF9C1
:1054100018B1204606F06CFF03E029462046FFF74E
:105420004FFB0020BDE8F0817061010870B59AB0B3
:10543000064664216846FBF7D7F92648FEF71DFDAE
:10544000254D0446012811DC96F82D00400709D5AA
:1054500020482030FCF76CFE304605F0FFFE304659
:1054600005F054FF012068601AB070BD062CFBD017
:1054700096F82D00400706D56868A042F4D015487C
:105480002030FCF755FE134869462030FCF762FBDC
:105490004FF48041022C08D00020032C03D005904B
:1054A000042C03D004E0059102E005914FF4006064
:1054B0000690084869462030FCF7E3FD0548203097
:1054C000FCF7ECFD304605F0D7FF304605F074FFE1
:1054D0006C60C9E7484D0020040000207047044676
:1054E0002046FFF7A3FF642006F016F8F8E7000057
:1054F0002DE9F04104461F4690460E46069801F0FD
:10550000F5FE05460E21304606F079FA18B16FF027
:105510000100BDE8F0817068858139680160B98853
:105520008180D8F80020C0F80620B8F80410418126
:1055300094F82C00062806D006A34FF4997213A104
:105540001FA0FAF7C5FF31462046A269BDE8F04129
:10555000104700002E2E2F4D6964646C65776172D0
:1055600065732F54686972645F50617274792F4C4F
:105570007749502F7372632F6E657469662F657457
:105580006865726E65742E63000000006E65746954
:10559000662D3E6877616464725F6C656E206D7520
:1055A0007374206265203620666F722065746865AA
:1055B000726E65745F6F7574707574210000000001
:1055C000417373657274696F6E20222573222066A1
:1055D00061696C6564206174206C696E6520256466
:1055E00020696E2025730A0010B5040006D10BA3B4
:1055F00040F2D71210A114A0FAF76AFF732084F8C2
:105600002E00742084F82F00194860611948A061A9
:10561000204601F00DFB002010BD00002E2E2F4C67
:105620005749502F5461726765742F6574686572AD
:105630006E657469662E63006E6574696620213D2F
:10564000204E554C4C000000417373657274696FB5
:105650006E2022257322206661696C656420617466
:10566000206C696E6520256420696E2025730A0010
:10567000C54B00089D6D000808B50F4D04464FF05E
:10568000FF3800274146A86806F0B8F80028F9D18D
:105690000097287818B969460848FCF7E1FB009E96
:1056A000002EEFD022692146304690470028EFD0E7
:1056B000304606F01DFEEBE704000020684D002098
:1056C0002DE9F0410E4604005ED0A569002D0DDAEB
:1056D00008F026F9A569002D06DA0EB96D1EA56140
:1056E000BDE8F04108F044B908F042F9284600F05E
:1056F000AFF8040048D0012708F012F980460120D5
:10570000052E19D2DFE806F0030A0E1316002089D1
:10571000401C00B22081012834DC14E02089401EA6
:1057200020812FE0618901B1002760810BE000201A
:10573000608127E0A08106E014A34FF41F6220A13E
:1057400023A0FAF7C5FEA07BE0B1DFB1B4F90800F1
:10575000002801DD012700E00027608908B101264B
:1057600000E00026A08908B1012400E000244046A2
:1057700008F0FEF82346324639462846BDE8F04197
:1057800007F0B0BF4046ABE7BDE8F0812E2E2F4DAD
:105790006964646C6577617265732F5468697264BB
:1057A0005F50617274792F4C7749502F7372632F59
:1057B0006170692F736F636B6574732E63000000F3
:1057C000756E6B6E6F776E206576656E7400000087
:1057D000417373657274696F6E202225732220668F
:1057E00061696C6564206174206C696E6520256454
:1057F00020696E2025730A008A68002A01DCFBF705
:10580000EABA521E8A604A68C0B2531C4B601070DC
:1058100070472DE9F0410E46044608F081F800215A
:10582000676861602568216008F0A2F8380005D03B
:1058300016B106F05DFD01E004F0FAF8002D04D089
:105840002846BDE8F04104F0FDBBBDE8F081000052
:1058500010B50EF091FB002803D102490920086021
:10586000002010BD8C0100200A46032100F0F4B88E
:105870002DE9FE4F8A4644490446D1F8088098F83D
:1058800000000007850E142D79D36089042876D393
:1058900060680078002872D0082870D1486901F14A
:1058A0001407C0F303120E2A69D08946096800F074
:1058B0005FF9002863D12089082860D305F10E0123
:1058C0000E46204606F09BF8002830D0208941196A
:1058D00089B2884253D84FF420720E2006F0F2F8B5
:1058E00006004CD0718905F10800814216D32A4682
:1058F00041467068FAF709FF2946304606F0F4FE83
:10590000002806D021A3B6222EA13CA0FAF7E0FD84
:1059100004E02146304606F06FFB18B1304606F031
:10592000E7FC2CE0204606F0E3FC34460CE0314670
:10593000204606F0D9FE002806D014A3C72239A1BC
:105940002EA0FAF7C5FD1AE029462046666806F043
:1059500056F8A0B960683968FF22C160D9F8101004
:1059600001610021317071800272418101228DE854
:1059700006040A46FF233946204600F011FB204664
:10598000BDE8FE4F06F0B4BC3CDC00202E2E2F4DAF
:105990006964646C6577617265732F5468697264B9
:1059A0005F50617274792F4C7749502F7372632F57
:1059B000636F72652F697076342F69636D702E6323
:1059C0000000000069636D705F696E7075743A2045
:1059D0006D6F76696E6720722D3E7061796C6F61B4
:1059E0006420746F2069636D7020686561646572FE
:1059F000206661696C65640A00000000417373658C
:105A00007274696F6E2022257322206661696C654D
:105A100064206174206C696E6520256420696E20A5
:105A200025730A0069636D705F696E7075743A2042
:105A3000726573746F72696E67206F726967696EE1
:105A4000616C20702D3E7061796C6F6164206661BD
:105A5000696C65640A0000002DE9FF47914688469D
:105A600006464FF420722421222006F02BF8050070
:105A700031D06889242806D218A34FF4B47225A126
:105A80002FA0FAF725FD6C6877681C2284F8008047
:105A900084F801904FF00008A4F80480A4F8068070
:105AA000686871680830FAF730FEF868039003A858
:105AB00000F086FC60B1A4F802800122CDF80080DD
:105AC000CDE90120FF2303AA0021284600F068FA4F
:105AD000284606F00DFCBDE8FF8700002E2E2F4D56
